{
  "contractName": "ProposalContract",
  "abi": [
    {
      "inputs": [],
      "payable": false,
      "stateMutability": "nonpayable",
      "type": "constructor"
    },
    {
      "anonymous": false,
      "inputs": [
        {
          "indexed": false,
          "internalType": "address",
          "name": "from",
          "type": "address"
        },
        {
          "indexed": false,
          "internalType": "uint256",
          "name": "amount",
          "type": "uint256"
        },
        {
          "indexed": false,
          "internalType": "string",
          "name": "ipfsDataAddress",
          "type": "string"
        }
      ],
      "name": "ProposalCreated",
      "type": "event"
    },
    {
      "anonymous": false,
      "inputs": [
        {
          "indexed": false,
          "internalType": "address",
          "name": "from",
          "type": "address"
        },
        {
          "indexed": false,
          "internalType": "uint256",
          "name": "amount",
          "type": "uint256"
        },
        {
          "indexed": false,
          "internalType": "string",
          "name": "ipfsDataAddress",
          "type": "string"
        }
      ],
      "name": "ProposalEnd",
      "type": "event"
    },
    {
      "anonymous": false,
      "inputs": [
        {
          "indexed": false,
          "internalType": "address",
          "name": "from",
          "type": "address"
        },
        {
          "indexed": false,
          "internalType": "uint256",
          "name": "amount",
          "type": "uint256"
        },
        {
          "indexed": false,
          "internalType": "string",
          "name": "ipfsDataAddress",
          "type": "string"
        }
      ],
      "name": "ProposalUpdated",
      "type": "event"
    },
    {
      "constant": true,
      "inputs": [
        {
          "internalType": "uint256",
          "name": "",
          "type": "uint256"
        }
      ],
      "name": "proposalList",
      "outputs": [
        {
          "internalType": "string",
          "name": "",
          "type": "string"
        }
      ],
      "payable": false,
      "stateMutability": "view",
      "type": "function"
    },
    {
      "constant": true,
      "inputs": [
        {
          "internalType": "string",
          "name": "",
          "type": "string"
        }
      ],
      "name": "proposals",
      "outputs": [
        {
          "internalType": "address",
          "name": "sender",
          "type": "address"
        },
        {
          "internalType": "uint256",
          "name": "balance",
          "type": "uint256"
        }
      ],
      "payable": false,
      "stateMutability": "view",
      "type": "function"
    },
    {
      "constant": true,
      "inputs": [],
      "name": "staker",
      "outputs": [
        {
          "internalType": "address",
          "name": "",
          "type": "address"
        }
      ],
      "payable": false,
      "stateMutability": "view",
      "type": "function"
    },
    {
      "constant": true,
      "inputs": [],
      "name": "getMessage",
      "outputs": [
        {
          "internalType": "string",
          "name": "",
          "type": "string"
        }
      ],
      "payable": false,
      "stateMutability": "view",
      "type": "function"
    },
    {
      "constant": false,
      "inputs": [
        {
          "internalType": "string",
          "name": "ipfsDataAddress",
          "type": "string"
        }
      ],
      "name": "proposeCreate",
      "outputs": [],
      "payable": true,
      "stateMutability": "payable",
      "type": "function"
    },
    {
      "constant": false,
      "inputs": [
        {
          "internalType": "string",
          "name": "ipfsDataAddress",
          "type": "string"
        }
      ],
      "name": "proposeUpdate",
      "outputs": [],
      "payable": true,
      "stateMutability": "payable",
      "type": "function"
    },
    {
      "constant": false,
      "inputs": [
        {
          "internalType": "string",
          "name": "ipfsDataAddress",
          "type": "string"
        }
      ],
      "name": "proposeEnd",
      "outputs": [],
      "payable": false,
      "stateMutability": "nonpayable",
      "type": "function"
    },
    {
      "constant": false,
      "inputs": [
        {
          "internalType": "string",
          "name": "ipfsDataAddress",
          "type": "string"
        },
        {
          "internalType": "string",
          "name": "ipfsSolutionAddress",
          "type": "string"
        }
      ],
      "name": "solutionCreate",
      "outputs": [],
      "payable": false,
      "stateMutability": "nonpayable",
      "type": "function"
    },
    {
      "constant": false,
      "inputs": [
        {
          "internalType": "string",
          "name": "ipfsDataAddress",
          "type": "string"
        },
        {
          "internalType": "string",
          "name": "ipfsSolutionAddress",
          "type": "string"
        }
      ],
      "name": "solutionUpdate",
      "outputs": [],
      "payable": false,
      "stateMutability": "nonpayable",
      "type": "function"
    },
    {
      "constant": false,
      "inputs": [
        {
          "internalType": "string",
          "name": "ipfsDataAddress",
          "type": "string"
        }
      ],
      "name": "withdraw",
      "outputs": [],
      "payable": false,
      "stateMutability": "nonpayable",
      "type": "function"
    },
    {
      "constant": true,
      "inputs": [],
      "name": "getProposalCount",
      "outputs": [
        {
          "internalType": "uint256",
          "name": "",
          "type": "uint256"
        }
      ],
      "payable": false,
      "stateMutability": "view",
      "type": "function"
    }
  ],
  "bytecode": "0x60806040526040518060400160405280600e81526020017f48656c6c6f20576f726c64212121000000000000000000000000000000000000815250600190805190602001906200005192919062000066565b503480156200005f57600080fd5b5062000115565b828054600181600116156101000203166002900490600052602060002090601f016020900481019282601f10620000a957805160ff1916838001178555620000da565b82800160010185558215620000da579182015b82811115620000d9578251825591602001919060010190620000bc565b5b509050620000e99190620000ed565b5090565b6200011291905b808211156200010e576000816000905550600101620000f4565b5090565b90565b611a3080620001256000396000f3fe60806040526004361061009c5760003560e01c8063c6311e3f11610064578063c6311e3f14610361578063ce6d41de14610415578063df39cc66146104a5578063df812cc214610604578063f0460a6e146106cc578063ffa0d2a41461082b5761009c565b8063061ee931146100a157806331fb67c21461015c57806356ac3a65146102245780635ebaf1db146102df578063c08cc02d14610336575b600080fd5b61015a600480360360208110156100b757600080fd5b81019080803590602001906401000000008111156100d457600080fd5b8201836020820111156100e657600080fd5b8035906020019184600183028401116401000000008311171561010857600080fd5b91908080601f016020809104026020016040519081016040528093929190818152602001838380828437600081840152601f19601f82011690508083019250505050505050919291929050505061093a565b005b34801561016857600080fd5b506102226004803603602081101561017f57600080fd5b810190808035906020019064010000000081111561019c57600080fd5b8201836020820111156101ae57600080fd5b803590602001918460018302840111640100000000831117156101d057600080fd5b91908080601f016020809104026020016040519081016040528093929190818152602001838380828437600081840152601f19601f820116905080830192505050505050509192919290505050610b54565b005b6102dd6004803603602081101561023a57600080fd5b810190808035906020019064010000000081111561025757600080fd5b82018360208201111561026957600080fd5b8035906020019184600183028401116401000000008311171561028b57600080fd5b91908080601f016020809104026020016040519081016040528093929190818152602001838380828437600081840152601f19601f820116905080830192505050505050509192919290505050610d02565b005b3480156102eb57600080fd5b506102f461105f565b604051808273ffffffffffffffffffffffffffffffffffffffff1673ffffffffffffffffffffffffffffffffffffffff16815260200191505060405180910390f35b34801561034257600080fd5b5061034b611084565b6040518082815260200191505060405180910390f35b34801561036d57600080fd5b5061039a6004803603602081101561038457600080fd5b8101908080359060200190929190505050611091565b6040518080602001828103825283818151815260200191508051906020019080838360005b838110156103da5780820151818401526020810190506103bf565b50505050905090810190601f1680156104075780820380516001836020036101000a031916815260200191505b509250505060405180910390f35b34801561042157600080fd5b5061042a61114a565b6040518080602001828103825283818151815260200191508051906020019080838360005b8381101561046a57808201518184015260208101905061044f565b50505050905090810190601f1680156104975780820380516001836020036101000a031916815260200191505b509250505060405180910390f35b3480156104b157600080fd5b50610602600480360360408110156104c857600080fd5b81019080803590602001906401000000008111156104e557600080fd5b8201836020820111156104f757600080fd5b8035906020019184600183028401116401000000008311171561051957600080fd5b91908080601f016020809104026020016040519081016040528093929190818152602001838380828437600081840152601f19601f8201169050808301925050505050505091929192908035906020019064010000000081111561057c57600080fd5b82018360208201111561058e57600080fd5b803590602001918460018302840111640100000000831117156105b057600080fd5b91908080601f016020809104026020016040519081016040528093929190818152602001838380828437600081840152601f19601f8201169050808301925050505050505091929192905050506111ec565b005b34801561061057600080fd5b506106ca6004803603602081101561062757600080fd5b810190808035906020019064010000000081111561064457600080fd5b82018360208201111561065657600080fd5b8035906020019184600183028401116401000000008311171561067857600080fd5b91908080601f016020809104026020016040519081016040528093929190818152602001838380828437600081840152601f19601f820116905080830192505050505050509192919290505050611454565b005b3480156106d857600080fd5b50610829600480360360408110156106ef57600080fd5b810190808035906020019064010000000081111561070c57600080fd5b82018360208201111561071e57600080fd5b8035906020019184600183028401116401000000008311171561074057600080fd5b91908080601f016020809104026020016040519081016040528093929190818152602001838380828437600081840152601f19601f820116905080830192505050505050509192919290803590602001906401000000008111156107a357600080fd5b8201836020820111156107b557600080fd5b803590602001918460018302840111640100000000831117156107d757600080fd5b91908080601f016020809104026020016040519081016040528093929190818152602001838380828437600081840152601f19601f820116905080830192505050505050509192919290505050611570565b005b34801561083757600080fd5b506108f16004803603602081101561084e57600080fd5b810190808035906020019064010000000081111561086b57600080fd5b82018360208201111561087d57600080fd5b8035906020019184600183028401116401000000008311171561089f57600080fd5b91908080601f016020809104026020016040519081016040528093929190818152602001838380828437600081840152601f19601f8201169050808301925050505050505091929192905050506117d7565b604051808373ffffffffffffffffffffffffffffffffffffffff1673ffffffffffffffffffffffffffffffffffffffff1681526020018281526020019250505060405180910390f35b60006003826040518082805190602001908083835b60208310610972578051825260208201915060208101905060208303925061094f565b6001836020036101000a038019825116818451168082178552505050505050905001915050908152602001604051809103902060010154116109ff576040517f08c379a00000000000000000000000000000000000000000000000000000000081526004018080602001828103825260328152602001806119ca6032913960400191505060405180910390fd5b346003826040518082805190602001908083835b60208310610a365780518252602082019150602081019050602083039250610a13565b6001836020036101000a0380198251168184511680821785525050505050509050019150509081526020016040518091039020600101600082825401925050819055507f7ccfb8b27ec625d8960369ad7422c6991904dd932865d3cc2bb8d65b9c17000f333483604051808473ffffffffffffffffffffffffffffffffffffffff1673ffffffffffffffffffffffffffffffffffffffff16815260200183815260200180602001828103825283818151815260200191508051906020019080838360005b83811015610b15578082015181840152602081019050610afa565b50505050905090810190601f168015610b425780820380516001836020036101000a031916815260200191505b5094505050505060405180910390a150565b60006003826040518082805190602001908083835b60208310610b8c5780518252602082019150602081019050602083039250610b69565b6001836020036101000a038019825116818451168082178552505050505050905001915050908152602001604051809103902060020160003373ffffffffffffffffffffffffffffffffffffffff1673ffffffffffffffffffffffffffffffffffffffff16815260200190815260200160002060000154905060006003836040518082805190602001908083835b60208310610c3d5780518252602082019150602081019050602083039250610c1a565b6001836020036101000a038019825116818451168082178552505050505050905001915050908152602001604051809103902060020160003373ffffffffffffffffffffffffffffffffffffffff1673ffffffffffffffffffffffffffffffffffffffff168152602001908152602001600020600001819055503373ffffffffffffffffffffffffffffffffffffffff166108fc829081150290604051600060405180830381858888f19350505050158015610cfd573d6000803e3d6000fd5b505050565b60006003826040518082805190602001908083835b60208310610d3a5780518252602082019150602081019050602083039250610d17565b6001836020036101000a03801982511681845116808217855250505050505090500191505090815260200160405180910390206001015414610dc7576040517f08c379a000000000000000000000000000000000000000000000000000000000815260040180806020018281038252602c815260200180611900602c913960400191505060405180910390fd5b60003411610e20576040517f08c379a000000000000000000000000000000000000000000000000000000000815260040180806020018281038252602b81526020018061197e602b913960400191505060405180910390fd5b336003826040518082805190602001908083835b60208310610e575780518252602082019150602081019050602083039250610e34565b6001836020036101000a038019825116818451168082178552505050505050905001915050908152602001604051809103902060000160006101000a81548173ffffffffffffffffffffffffffffffffffffffff021916908373ffffffffffffffffffffffffffffffffffffffff160217905550346003826040518082805190602001908083835b60208310610f025780518252602082019150602081019050602083039250610edf565b6001836020036101000a0380198251168184511680821785525050505050509050019150509081526020016040518091039020600101600082825401925050819055506002819080600181540180825580915050906001820390600052602060002001600090919290919091509080519060200190610f8292919061185a565b50507f9db6e12bf11e1f7aeb4a3bbaf7334db3a3ed38a7dc42e8f16530c97c54ec7124333483604051808473ffffffffffffffffffffffffffffffffffffffff1673ffffffffffffffffffffffffffffffffffffffff16815260200183815260200180602001828103825283818151815260200191508051906020019080838360005b83811015611020578082015181840152602081019050611005565b50505050905090810190601f16801561104d5780820380516001836020036101000a031916815260200191505b5094505050505060405180910390a150565b6000809054906101000a900473ffffffffffffffffffffffffffffffffffffffff1681565b6000600280549050905090565b6002818154811061109e57fe5b906000526020600020016000915090508054600181600116156101000203166002900480601f0160208091040260200160405190810160405280929190818152602001828054600181600116156101000203166002900480156111425780601f1061111757610100808354040283529160200191611142565b820191906000526020600020905b81548152906001019060200180831161112557829003601f168201915b505050505081565b606060018054600181600116156101000203166002900480601f0160208091040260200160405190810160405280929190818152602001828054600181600116156101000203166002900480156111e25780601f106111b7576101008083540402835291602001916111e2565b820191906000526020600020905b8154815290600101906020018083116111c557829003601f168201915b5050505050905090565b6113396003836040518082805190602001908083835b602083106112255780518252602082019150602081019050602083039250611202565b6001836020036101000a038019825116818451168082178552505050505050905001915050908152602001604051809103902060020160003373ffffffffffffffffffffffffffffffffffffffff1673ffffffffffffffffffffffffffffffffffffffff1681526020019081526020016000206001018054600181600116156101000203166002900480601f01602080910402602001604051908101604052809291908181526020018280546001816001161561010002031660029004801561132f5780601f106113045761010080835404028352916020019161132f565b820191906000526020600020905b81548152906001019060200180831161131257829003601f168201915b5050505050611831565b1561138f576040517f08c379a000000000000000000000000000000000000000000000000000000000815260040180806020018281038252602981526020018061192c6029913960400191505060405180910390fd5b806003836040518082805190602001908083835b602083106113c657805182526020820191506020810190506020830392506113a3565b6001836020036101000a038019825116818451168082178552505050505050905001915050908152602001604051809103902060020160003373ffffffffffffffffffffffffffffffffffffffff1673ffffffffffffffffffffffffffffffffffffffff168152602001908152602001600020600101908051906020019061144f92919061185a565b505050565b6003816040518082805190602001908083835b6020831061148a5780518252602082019150602081019050602083039250611467565b6001836020036101000a038019825116818451168082178552505050505050905001915050908152602001604051809103902060000160009054906101000a900473ffffffffffffffffffffffffffffffffffffffff1673ffffffffffffffffffffffffffffffffffffffff163373ffffffffffffffffffffffffffffffffffffffff1614611564576040517f08c379a00000000000000000000000000000000000000000000000000000000081526004018080602001828103825260218152602001806119a96021913960400191505060405180910390fd5b61156d81611857565b50565b6116bd6003836040518082805190602001908083835b602083106115a95780518252602082019150602081019050602083039250611586565b6001836020036101000a038019825116818451168082178552505050505050905001915050908152602001604051809103902060020160003373ffffffffffffffffffffffffffffffffffffffff1673ffffffffffffffffffffffffffffffffffffffff1681526020019081526020016000206001018054600181600116156101000203166002900480601f0160208091040260200160405190810160405280929190818152602001828054600181600116156101000203166002900480156116b35780601f10611688576101008083540402835291602001916116b3565b820191906000526020600020905b81548152906001019060200180831161169657829003601f168201915b5050505050611831565b611712576040517f08c379a00000000000000000000000000000000000000000000000000000000081526004018080602001828103825260298152602001806119556029913960400191505060405180910390fd5b806003836040518082805190602001908083835b602083106117495780518252602082019150602081019050602083039250611726565b6001836020036101000a038019825116818451168082178552505050505050905001915050908152602001604051809103902060020160003373ffffffffffffffffffffffffffffffffffffffff1673ffffffffffffffffffffffffffffffffffffffff16815260200190815260200160002060010190805190602001906117d292919061185a565b505050565b6003818051602081018201805184825260208301602085012081835280955050505050506000915090508060000160009054906101000a900473ffffffffffffffffffffffffffffffffffffffff16908060010154905082565b6000606082905060008151141561184c576000915050611852565b60019150505b919050565b50565b828054600181600116156101000203166002900490600052602060002090601f016020900481019282601f1061189b57805160ff19168380011785556118c9565b828001600101855582156118c9579182015b828111156118c85782518255916020019190600101906118ad565b5b5090506118d691906118da565b5090565b6118fc91905b808211156118f85760008160009055506001016118e0565b5090565b9056fe546865726520697320616c726561647920612070726f706f73616c20666f72207468617420646174617365744120736f6c7574696f6e20616c72656164792065786973747320666f7220746869732073656e6465724120736f6c7574696f6e20646f6573206e6f7420657869737420666f7220746869732073656e6465724d757374207374616b6520736f6d6520616d6f756e7420746f2063726561746520612070726f706f73616c4f6e6c7920746865206f776e65722063616e20656e6420612070726f706f73616c5468657265206973206e6f7420616e206578697374696e672070726f706f73616c20666f7220746861742064617461736574a265627a7a72315820f61445066ec543d4228ed52244b7a46b5acb131aeaa0f3c1eaea74db2c084bcb64736f6c63430005100032",
  "source": "pragma solidity >=0.5.16;\n\ncontract ProposalContract {\n  address public staker;\n  string private message = \"Hello World!!!\";\n  struct Proposal {\n    address sender;\n    uint balance;\n    mapping (address => Solution) solutions;\n  }\n\n  struct Solution {\n    uint reward;\n    string ipfsSolutionAddress;\n  }\n\n  string[] public proposalList;\n  mapping (string => Proposal) public proposals;\n\n  event ProposalCreated(address from, uint amount, string ipfsDataAddress);\n  event ProposalUpdated(address from, uint amount, string ipfsDataAddress);\n  event ProposalEnd(address from, uint amount, string ipfsDataAddress);\n\n  constructor() public {\n  }\n\n  function getMessage() public view returns(string memory){\n    return message;\n  }\n  function proposeCreate(string memory ipfsDataAddress) public payable {\n\n    require(proposals[ipfsDataAddress].balance == 0, \"There is already a proposal for that dataset\");\n    require(msg.value > 0, \"Must stake some amount to create a proposal\");\n    // TODO: validation on IPFS address\n\n    proposals[ipfsDataAddress].sender = msg.sender;\n    proposals[ipfsDataAddress].balance += msg.value;\n    proposalList.push(ipfsDataAddress);\n\n    // Emits the event defined earlier\n    emit ProposalCreated(msg.sender, msg.value,  ipfsDataAddress);\n  }\n\n  function proposeUpdate(string memory ipfsDataAddress) public payable {\n    require(proposals[ipfsDataAddress].balance > 0, \"There is not an existing proposal for that dataset\");\n\n    proposals[ipfsDataAddress].balance += msg.value;\n    emit ProposalUpdated(msg.sender, msg.value, ipfsDataAddress);\n  }\n\n  function proposeEnd(string memory ipfsDataAddress) public {\n    require(msg.sender == proposals[ipfsDataAddress].sender, \"Only the owner can end a proposal\");\n    _reward(ipfsDataAddress);\n  }\n\n  function solutionCreate(string memory ipfsDataAddress, string memory ipfsSolutionAddress) public {\n    // TODO: validation on IPFS address\n    // TODO: ensure bad actors cant submit same model from different addresses, or slightly tweaked model to get more rewards\n    require(!_testEmptyString(proposals[ipfsDataAddress].solutions[msg.sender].ipfsSolutionAddress), \"A solution already exists for this sender\");\n    proposals[ipfsDataAddress].solutions[msg.sender].ipfsSolutionAddress = ipfsSolutionAddress;\n  }\n\n  function solutionUpdate(string memory ipfsDataAddress, string memory ipfsSolutionAddress) public {\n    require(_testEmptyString(proposals[ipfsDataAddress].solutions[msg.sender].ipfsSolutionAddress), \"A solution does not exist for this sender\");\n    proposals[ipfsDataAddress].solutions[msg.sender].ipfsSolutionAddress = ipfsSolutionAddress;\n  }\n\n  function withdraw(string memory ipfsDataAddress) public {\n    uint reward = proposals[ipfsDataAddress].solutions[msg.sender].reward;\n    proposals[ipfsDataAddress].solutions[msg.sender].reward = 0;\n    msg.sender.transfer(reward);\n  }\n\n  function getProposalCount() public view returns(uint) {\n    return proposalList.length;\n  }\n\n  function _reward(string memory ipfsDataAddress) internal {\n      // TODO: figure out entire reward system\n  }\n\n  function _testEmptyString(string memory anyString) pure internal returns(bool) {\n    bytes memory tempEmptyStringTest = bytes(anyString); // Uses memory\n    if (tempEmptyStringTest.length == 0) {\n      return false;\n    } else {\n      return true;\n    }\n  }\n}\n",
  "sourcePath": "/Users/adamwootton/Code/hackfs/contracts/ProposalContract.sol",
  "compiler": {
    "name": "solc",
    "version": "0.5.16+commit.9c3226ce.Emscripten.clang"
  },
  "schemaVersion": "3.2.3",
  "updatedAt": "2020-07-31T03:09:57.260Z",
  "networkType": "ethereum",
  "devdoc": {
    "methods": {}
  },
  "userdoc": {
    "methods": {}
  }
}