{
  "contractName": "ProposalContract",
  "abi": [
    {
      "inputs": [],
      "payable": false,
      "stateMutability": "nonpayable",
      "type": "constructor"
    },
    {
      "anonymous": false,
      "inputs": [
        {
          "indexed": false,
          "internalType": "address",
          "name": "from",
          "type": "address"
        },
        {
          "indexed": false,
          "internalType": "uint256",
          "name": "amount",
          "type": "uint256"
        },
        {
          "indexed": false,
          "internalType": "string",
          "name": "ipfsDataAddress",
          "type": "string"
        }
      ],
      "name": "ProposalCreated",
      "type": "event"
    },
    {
      "anonymous": false,
      "inputs": [
        {
          "indexed": false,
          "internalType": "address",
          "name": "from",
          "type": "address"
        },
        {
          "indexed": false,
          "internalType": "uint256",
          "name": "amount",
          "type": "uint256"
        },
        {
          "indexed": false,
          "internalType": "string",
          "name": "ipfsDataAddress",
          "type": "string"
        }
      ],
      "name": "ProposalEnd",
      "type": "event"
    },
    {
      "anonymous": false,
      "inputs": [
        {
          "indexed": false,
          "internalType": "address",
          "name": "from",
          "type": "address"
        },
        {
          "indexed": false,
          "internalType": "uint256",
          "name": "amount",
          "type": "uint256"
        },
        {
          "indexed": false,
          "internalType": "string",
          "name": "ipfsDataAddress",
          "type": "string"
        }
      ],
      "name": "ProposalUpdated",
      "type": "event"
    },
    {
      "constant": true,
      "inputs": [
        {
          "internalType": "uint256",
          "name": "",
          "type": "uint256"
        }
      ],
      "name": "proposalList",
      "outputs": [
        {
          "internalType": "string",
          "name": "",
          "type": "string"
        }
      ],
      "payable": false,
      "stateMutability": "view",
      "type": "function"
    },
    {
      "constant": true,
      "inputs": [
        {
          "internalType": "string",
          "name": "",
          "type": "string"
        }
      ],
      "name": "proposals",
      "outputs": [
        {
          "internalType": "address",
          "name": "sender",
          "type": "address"
        },
        {
          "internalType": "uint256",
          "name": "balance",
          "type": "uint256"
        },
        {
          "internalType": "uint256",
          "name": "status",
          "type": "uint256"
        },
        {
          "internalType": "uint256",
          "name": "endDateMS",
          "type": "uint256"
        }
      ],
      "payable": false,
      "stateMutability": "view",
      "type": "function"
    },
    {
      "constant": true,
      "inputs": [
        {
          "internalType": "address",
          "name": "",
          "type": "address"
        },
        {
          "internalType": "uint256",
          "name": "",
          "type": "uint256"
        }
      ],
      "name": "solutionsForAddr",
      "outputs": [
        {
          "internalType": "string",
          "name": "",
          "type": "string"
        }
      ],
      "payable": false,
      "stateMutability": "view",
      "type": "function"
    },
    {
      "constant": false,
      "inputs": [
        {
          "internalType": "string",
          "name": "ipfsDataAddress",
          "type": "string"
        },
        {
          "internalType": "uint256",
          "name": "endDateMS",
          "type": "uint256"
        }
      ],
      "name": "proposeCreate",
      "outputs": [],
      "payable": true,
      "stateMutability": "payable",
      "type": "function"
    },
    {
      "constant": false,
      "inputs": [
        {
          "internalType": "string",
          "name": "ipfsDataAddress",
          "type": "string"
        }
      ],
      "name": "proposeUpdate",
      "outputs": [],
      "payable": true,
      "stateMutability": "payable",
      "type": "function"
    },
    {
      "constant": false,
      "inputs": [
        {
          "internalType": "string",
          "name": "ipfsDataAddress",
          "type": "string"
        }
      ],
      "name": "proposeDateEnd",
      "outputs": [],
      "payable": false,
      "stateMutability": "nonpayable",
      "type": "function"
    },
    {
      "constant": false,
      "inputs": [
        {
          "internalType": "string",
          "name": "ipfsDataAddress",
          "type": "string"
        }
      ],
      "name": "proposePayout",
      "outputs": [],
      "payable": false,
      "stateMutability": "nonpayable",
      "type": "function"
    },
    {
      "constant": false,
      "inputs": [
        {
          "internalType": "string",
          "name": "ipfsDataAddress",
          "type": "string"
        },
        {
          "internalType": "string",
          "name": "ipfsSolutionAddress",
          "type": "string"
        },
        {
          "internalType": "uint256",
          "name": "score",
          "type": "uint256"
        },
        {
          "internalType": "string",
          "name": "preprocessorAddress",
          "type": "string"
        }
      ],
      "name": "solutionCreate",
      "outputs": [],
      "payable": false,
      "stateMutability": "nonpayable",
      "type": "function"
    },
    {
      "constant": false,
      "inputs": [
        {
          "internalType": "string",
          "name": "ipfsDataAddress",
          "type": "string"
        },
        {
          "internalType": "string",
          "name": "ipfsSolutionAddress",
          "type": "string"
        }
      ],
      "name": "solutionUpdate",
      "outputs": [],
      "payable": false,
      "stateMutability": "nonpayable",
      "type": "function"
    },
    {
      "constant": false,
      "inputs": [
        {
          "internalType": "string",
          "name": "ipfsDataAddress",
          "type": "string"
        },
        {
          "internalType": "uint256",
          "name": "score",
          "type": "uint256"
        }
      ],
      "name": "solutionEvaluate",
      "outputs": [],
      "payable": false,
      "stateMutability": "nonpayable",
      "type": "function"
    },
    {
      "constant": true,
      "inputs": [],
      "name": "getSolutionsForAddressLength",
      "outputs": [
        {
          "internalType": "uint256",
          "name": "",
          "type": "uint256"
        }
      ],
      "payable": false,
      "stateMutability": "view",
      "type": "function"
    },
    {
      "constant": false,
      "inputs": [
        {
          "internalType": "string",
          "name": "ipfsDataAddress",
          "type": "string"
        }
      ],
      "name": "withdraw",
      "outputs": [],
      "payable": false,
      "stateMutability": "nonpayable",
      "type": "function"
    },
    {
      "constant": true,
      "inputs": [],
      "name": "getProposalCount",
      "outputs": [
        {
          "internalType": "uint256",
          "name": "",
          "type": "uint256"
        }
      ],
      "payable": false,
      "stateMutability": "view",
      "type": "function"
    },
    {
      "constant": true,
      "inputs": [
        {
          "internalType": "string",
          "name": "ipfsDataAddress",
          "type": "string"
        }
      ],
      "name": "getProposalSolutionCount",
      "outputs": [
        {
          "internalType": "uint256",
          "name": "",
          "type": "uint256"
        }
      ],
      "payable": false,
      "stateMutability": "view",
      "type": "function"
    },
    {
      "constant": true,
      "inputs": [
        {
          "internalType": "string",
          "name": "ipfsDataAddress",
          "type": "string"
        },
        {
          "internalType": "uint256",
          "name": "index",
          "type": "uint256"
        }
      ],
      "name": "getProposalSolution",
      "outputs": [
        {
          "internalType": "string",
          "name": "cid",
          "type": "string"
        },
        {
          "internalType": "uint256",
          "name": "score",
          "type": "uint256"
        },
        {
          "internalType": "address",
          "name": "owner",
          "type": "address"
        },
        {
          "internalType": "string",
          "name": "preprocessor",
          "type": "string"
        },
        {
          "internalType": "bool",
          "name": "disputed",
          "type": "bool"
        }
      ],
      "payable": false,
      "stateMutability": "view",
      "type": "function"
    },
    {
      "constant": false,
      "inputs": [
        {
          "internalType": "string",
          "name": "ipfsDataAddress",
          "type": "string"
        },
        {
          "internalType": "address",
          "name": "ownerAddress",
          "type": "address"
        }
      ],
      "name": "disputeSolution",
      "outputs": [
        {
          "internalType": "uint256",
          "name": "",
          "type": "uint256"
        }
      ],
      "payable": true,
      "stateMutability": "payable",
      "type": "function"
    },
    {
      "constant": true,
      "inputs": [
        {
          "internalType": "string",
          "name": "ipfsDataAddress",
          "type": "string"
        },
        {
          "internalType": "address",
          "name": "ownerAddress",
          "type": "address"
        }
      ],
      "name": "getDisputeStatus",
      "outputs": [
        {
          "internalType": "int256",
          "name": "",
          "type": "int256"
        }
      ],
      "payable": false,
      "stateMutability": "view",
      "type": "function"
    }
  ],
  "bytecode": "0x608060405234801561001057600080fd5b50614a35806100206000396000f3fe6080604052600436106100fe5760003560e01c806374d1e89211610095578063c08cc02d11610064578063c08cc02d14610b73578063c6311e3f14610b9e578063dcdc04ce14610c52578063f0460a6e14610e4e578063ffa0d2a414610fad576100fe565b806374d1e892146106c0578063912519cb146107bc578063b30fd0df146108ab578063bdcd511714610aab576100fe565b8063295a1b6f116100d1578063295a1b6f146103825780632eef39cc1461045457806331fb67c2146105305780633c112429146105f8576100fe565b80630258bac914610103578063061ee931146101d7578063168781841461029257806316fe1d7b146102bd575b600080fd5b34801561010f57600080fd5b5061015c6004803603604081101561012657600080fd5b81019080803573ffffffffffffffffffffffffffffffffffffffff169060200190929190803590602001909291905050506110ca565b6040518080602001828103825283818151815260200191508051906020019080838360005b8381101561019c578082015181840152602081019050610181565b50505050905090810190601f1680156101c95780820380516001836020036101000a031916815260200191505b509250505060405180910390f35b610290600480360360208110156101ed57600080fd5b810190808035906020019064010000000081111561020a57600080fd5b82018360208201111561021c57600080fd5b8035906020019184600183028401116401000000008311171561023e57600080fd5b91908080601f016020809104026020016040519081016040528093929190818152602001838380828437600081840152601f19601f820116905080830192505050505050509192919290505050611190565b005b34801561029e57600080fd5b506102a76113aa565b6040518082815260200191505060405180910390f35b610380600480360360408110156102d357600080fd5b81019080803590602001906401000000008111156102f057600080fd5b82018360208201111561030257600080fd5b8035906020019184600183028401116401000000008311171561032457600080fd5b91908080601f016020809104026020016040519081016040528093929190818152602001838380828437600081840152601f19601f820116905080830192505050505050509192919290803590602001909291905050506113f4565b005b34801561038e57600080fd5b50610452600480360360408110156103a557600080fd5b81019080803590602001906401000000008111156103c257600080fd5b8201836020820111156103d457600080fd5b803590602001918460018302840111640100000000831117156103f657600080fd5b91908080601f016020809104026020016040519081016040528093929190818152602001838380828437600081840152601f19601f82011690508083019250505050505050919291929080359060200190929190505050611834565b005b34801561046057600080fd5b5061051a6004803603602081101561047757600080fd5b810190808035906020019064010000000081111561049457600080fd5b8201836020820111156104a657600080fd5b803590602001918460018302840111640100000000831117156104c857600080fd5b91908080601f016020809104026020016040519081016040528093929190818152602001838380828437600081840152601f19601f820116905080830192505050505050509192919290505050611a8b565b6040518082815260200191505060405180910390f35b34801561053c57600080fd5b506105f66004803603602081101561055357600080fd5b810190808035906020019064010000000081111561057057600080fd5b82018360208201111561058257600080fd5b803590602001918460018302840111640100000000831117156105a457600080fd5b91908080601f016020809104026020016040519081016040528093929190818152602001838380828437600081840152601f19601f820116905080830192505050505050509192919290505050611b04565b005b34801561060457600080fd5b506106be6004803603602081101561061b57600080fd5b810190808035906020019064010000000081111561063857600080fd5b82018360208201111561064a57600080fd5b8035906020019184600183028401116401000000008311171561066c57600080fd5b91908080601f016020809104026020016040519081016040528093929190818152602001838380828437600081840152601f19601f820116905080830192505050505050509192919290505050611cb2565b005b3480156106cc57600080fd5b506107a6600480360360408110156106e357600080fd5b810190808035906020019064010000000081111561070057600080fd5b82018360208201111561071257600080fd5b8035906020019184600183028401116401000000008311171561073457600080fd5b91908080601f016020809104026020016040519081016040528093929190818152602001838380828437600081840152601f19601f820116905080830192505050505050509192919290803573ffffffffffffffffffffffffffffffffffffffff169060200190929190505050611e67565b6040518082815260200191505060405180910390f35b610895600480360360408110156107d257600080fd5b81019080803590602001906401000000008111156107ef57600080fd5b82018360208201111561080157600080fd5b8035906020019184600183028401116401000000008311171561082357600080fd5b91908080601f016020809104026020016040519081016040528093929190818152602001838380828437600081840152601f19601f820116905080830192505050505050509192919290803573ffffffffffffffffffffffffffffffffffffffff169060200190929190505050612063565b6040518082815260200191505060405180910390f35b3480156108b757600080fd5b50610aa9600480360360808110156108ce57600080fd5b81019080803590602001906401000000008111156108eb57600080fd5b8201836020820111156108fd57600080fd5b8035906020019184600183028401116401000000008311171561091f57600080fd5b91908080601f016020809104026020016040519081016040528093929190818152602001838380828437600081840152601f19601f8201169050808301925050505050505091929192908035906020019064010000000081111561098257600080fd5b82018360208201111561099457600080fd5b803590602001918460018302840111640100000000831117156109b657600080fd5b91908080601f016020809104026020016040519081016040528093929190818152602001838380828437600081840152601f19601f8201169050808301925050505050505091929192908035906020019092919080359060200190640100000000811115610a2357600080fd5b820183602082011115610a3557600080fd5b80359060200191846001830284011164010000000083111715610a5757600080fd5b91908080601f016020809104026020016040519081016040528093929190818152602001838380828437600081840152601f19601f8201169050808301925050505050505091929192905050506125c6565b005b348015610ab757600080fd5b50610b7160048036036020811015610ace57600080fd5b8101908080359060200190640100000000811115610aeb57600080fd5b820183602082011115610afd57600080fd5b80359060200191846001830284011164010000000083111715610b1f57600080fd5b91908080601f016020809104026020016040519081016040528093929190818152602001838380828437600081840152601f19601f820116905080830192505050505050509192919290505050612f50565b005b348015610b7f57600080fd5b50610b886131b2565b6040518082815260200191505060405180910390f35b348015610baa57600080fd5b50610bd760048036036020811015610bc157600080fd5b81019080803590602001909291905050506131be565b6040518080602001828103825283818151815260200191508051906020019080838360005b83811015610c17578082015181840152602081019050610bfc565b50505050905090810190601f168015610c445780820380516001836020036101000a031916815260200191505b509250505060405180910390f35b348015610c5e57600080fd5b50610d2260048036036040811015610c7557600080fd5b8101908080359060200190640100000000811115610c9257600080fd5b820183602082011115610ca457600080fd5b80359060200191846001830284011164010000000083111715610cc657600080fd5b91908080601f016020809104026020016040519081016040528093929190818152602001838380828437600081840152601f19601f82011690508083019250505050505050919291929080359060200190929190505050613277565b60405180806020018681526020018573ffffffffffffffffffffffffffffffffffffffff1673ffffffffffffffffffffffffffffffffffffffff1681526020018060200184151515158152602001838103835288818151815260200191508051906020019080838360005b83811015610da8578082015181840152602081019050610d8d565b50505050905090810190601f168015610dd55780820380516001836020036101000a031916815260200191505b50838103825285818151815260200191508051906020019080838360005b83811015610e0e578082015181840152602081019050610df3565b50505050905090810190601f168015610e3b5780820380516001836020036101000a031916815260200191505b5097505050505050505060405180910390f35b348015610e5a57600080fd5b50610fab60048036036040811015610e7157600080fd5b8101908080359060200190640100000000811115610e8e57600080fd5b820183602082011115610ea057600080fd5b80359060200191846001830284011164010000000083111715610ec257600080fd5b91908080601f016020809104026020016040519081016040528093929190818152602001838380828437600081840152601f19601f82011690508083019250505050505050919291929080359060200190640100000000811115610f2557600080fd5b820183602082011115610f3757600080fd5b80359060200191846001830284011164010000000083111715610f5957600080fd5b91908080601f016020809104026020016040519081016040528093929190818152602001838380828437600081840152601f19601f820116905080830192505050505050509192919290505050613808565b005b348015610fb957600080fd5b5061107360048036036020811015610fd057600080fd5b8101908080359060200190640100000000811115610fed57600080fd5b820183602082011115610fff57600080fd5b8035906020019184600183028401116401000000008311171561102157600080fd5b91908080601f016020809104026020016040519081016040528093929190818152602001838380828437600081840152601f19601f820116905080830192505050505050509192919290505050613a6f565b604051808573ffffffffffffffffffffffffffffffffffffffff1673ffffffffffffffffffffffffffffffffffffffff16815260200184815260200183815260200182815260200194505050505060405180910390f35b600260205281600052604060002081815481106110e357fe5b90600052602060002001600091509150508054600181600116156101000203166002900480601f0160208091040260200160405190810160405280929190818152602001828054600181600116156101000203166002900480156111885780601f1061115d57610100808354040283529160200191611188565b820191906000526020600020905b81548152906001019060200180831161116b57829003601f168201915b505050505081565b60006001826040518082805190602001908083835b602083106111c857805182526020820191506020810190506020830392506111a5565b6001836020036101000a03801982511681845116808217855250505050505090500191505090815260200160405180910390206001015411611255576040517f08c379a00000000000000000000000000000000000000000000000000000000081526004018080602001828103825260328152602001806149ac6032913960400191505060405180910390fd5b346001826040518082805190602001908083835b6020831061128c5780518252602082019150602081019050602083039250611269565b6001836020036101000a0380198251168184511680821785525050505050509050019150509081526020016040518091039020600101600082825401925050819055507f7ccfb8b27ec625d8960369ad7422c6991904dd932865d3cc2bb8d65b9c17000f333483604051808473ffffffffffffffffffffffffffffffffffffffff1673ffffffffffffffffffffffffffffffffffffffff16815260200183815260200180602001828103825283818151815260200191508051906020019080838360005b8381101561136b578082015181840152602081019050611350565b50505050905090810190601f1680156113985780820380516001836020036101000a031916815260200191505b5094505050505060405180910390a150565b6000600260003373ffffffffffffffffffffffffffffffffffffffff1673ffffffffffffffffffffffffffffffffffffffff16815260200190815260200160002080549050905090565b60006001836040518082805190602001908083835b6020831061142c5780518252602082019150602081019050602083039250611409565b6001836020036101000a038019825116818451168082178552505050505050905001915050908152602001604051809103902060010154146114b9576040517f08c379a000000000000000000000000000000000000000000000000000000000815260040180806020018281038252602c815260200180614893602c913960400191505060405180910390fd5b60003411611512576040517f08c379a000000000000000000000000000000000000000000000000000000000815260040180806020018281038252602b81526020018061495a602b913960400191505060405180910390fd5b336001836040518082805190602001908083835b602083106115495780518252602082019150602081019050602083039250611526565b6001836020036101000a038019825116818451168082178552505050505050905001915050908152602001604051809103902060000160006101000a81548173ffffffffffffffffffffffffffffffffffffffff021916908373ffffffffffffffffffffffffffffffffffffffff160217905550346001836040518082805190602001908083835b602083106115f457805182526020820191506020810190506020830392506115d1565b6001836020036101000a038019825116818451168082178552505050505050905001915050908152602001604051809103902060010160008282540192505081905550600180836040518082805190602001908083835b6020831061166e578051825260208201915060208101905060208303925061164b565b6001836020036101000a038019825116818451168082178552505050505050905001915050908152602001604051809103902060020181905550806001836040518082805190602001908083835b602083106116df57805182526020820191506020810190506020830392506116bc565b6001836020036101000a0380198251168184511680821785525050505050509050019150509081526020016040518091039020600301819055506000829080600181540180825580915050906001820390600052602060002001600090919290919091509080519060200190611756929190614766565b50507f9db6e12bf11e1f7aeb4a3bbaf7334db3a3ed38a7dc42e8f16530c97c54ec7124333484604051808473ffffffffffffffffffffffffffffffffffffffff1673ffffffffffffffffffffffffffffffffffffffff16815260200183815260200180602001828103825283818151815260200191508051906020019080838360005b838110156117f45780820151818401526020810190506117d9565b50505050905090810190601f1680156118215780820380516001836020036101000a031916815260200191505b5094505050505060405180910390a15050565b6119816001836040518082805190602001908083835b6020831061186d578051825260208201915060208101905060208303925061184a565b6001836020036101000a038019825116818451168082178552505050505050905001915050908152602001604051809103902060040160003373ffffffffffffffffffffffffffffffffffffffff1673ffffffffffffffffffffffffffffffffffffffff1681526020019081526020016000206005018054600181600116156101000203166002900480601f0160208091040260200160405190810160405280929190818152602001828054600181600116156101000203166002900480156119775780601f1061194c57610100808354040283529160200191611977565b820191906000526020600020905b81548152906001019060200180831161195a57829003601f168201915b5050505050613ad5565b6119d6576040517f08c379a000000000000000000000000000000000000000000000000000000000815260040180806020018281038252602981526020018061490c6029913960400191505060405180910390fd5b806001836040518082805190602001908083835b60208310611a0d57805182526020820191506020810190506020830392506119ea565b6001836020036101000a038019825116818451168082178552505050505050905001915050908152602001604051809103902060040160003373ffffffffffffffffffffffffffffffffffffffff1673ffffffffffffffffffffffffffffffffffffffff168152602001908152602001600020600101819055505050565b60006001826040518082805190602001908083835b60208310611ac35780518252602082019150602081019050602083039250611aa0565b6001836020036101000a0380198251168184511680821785525050505050509050019150509081526020016040518091039020600501805490509050919050565b60006001826040518082805190602001908083835b60208310611b3c5780518252602082019150602081019050602083039250611b19565b6001836020036101000a038019825116818451168082178552505050505050905001915050908152602001604051809103902060040160003373ffffffffffffffffffffffffffffffffffffffff1673ffffffffffffffffffffffffffffffffffffffff16815260200190815260200160002060000154905060006001836040518082805190602001908083835b60208310611bed5780518252602082019150602081019050602083039250611bca565b6001836020036101000a038019825116818451168082178552505050505050905001915050908152602001604051809103902060040160003373ffffffffffffffffffffffffffffffffffffffff1673ffffffffffffffffffffffffffffffffffffffff168152602001908152602001600020600001819055503373ffffffffffffffffffffffffffffffffffffffff166108fc829081150290604051600060405180830381858888f19350505050158015611cad573d6000803e3d6000fd5b505050565b60006001826040518082805190602001908083835b60208310611cea5780518252602082019150602081019050602083039250611cc7565b6001836020036101000a03801982511681845116808217855250505050505090500191505090815260200160405180910390206001015411611d77576040517f08c379a00000000000000000000000000000000000000000000000000000000081526004018080602001828103825260328152602001806149ac6032913960400191505060405180910390fd5b611d8081613afb565b611df2576040517f08c379a00000000000000000000000000000000000000000000000000000000081526004018080602001828103825260188152602001807f50726f706f73616c206973206e6f7420796574206f766572000000000000000081525060200191505060405180910390fd5b60026001826040518082805190602001908083835b60208310611e2a5780518252602082019150602081019050602083039250611e07565b6001836020036101000a03801982511681845116808217855250505050505090500191505090815260200160405180910390206002018190555050565b60006001836040518082805190602001908083835b60208310611e9f5780518252602082019150602081019050602083039250611e7c565b6001836020036101000a038019825116818451168082178552505050505050905001915050908152602001604051809103902060040160008373ffffffffffffffffffffffffffffffffffffffff1673ffffffffffffffffffffffffffffffffffffffff16815260200190815260200160002060030160009054906101000a900460ff16611f4f577fffffffffffffffffffffffffffffffffffffffffffffffffffffffffffffffff905061205d565b3373ffffffffffffffffffffffffffffffffffffffff166001846040518082805190602001908083835b60208310611f9c5780518252602082019150602081019050602083039250611f79565b6001836020036101000a038019825116818451168082178552505050505050905001915050908152602001604051809103902060040160008473ffffffffffffffffffffffffffffffffffffffff1673ffffffffffffffffffffffffffffffffffffffff16815260200190815260200160002060070160009054906101000a900473ffffffffffffffffffffffffffffffffffffffff1673ffffffffffffffffffffffffffffffffffffffff161415612058576001905061205d565b600090505b92915050565b60006121b26001846040518082805190602001908083835b6020831061209e578051825260208201915060208101905060208303925061207b565b6001836020036101000a038019825116818451168082178552505050505050905001915050908152602001604051809103902060040160008473ffffffffffffffffffffffffffffffffffffffff1673ffffffffffffffffffffffffffffffffffffffff1681526020019081526020016000206005018054600181600116156101000203166002900480601f0160208091040260200160405190810160405280929190818152602001828054600181600116156101000203166002900480156121a85780601f1061217d576101008083540402835291602001916121a8565b820191906000526020600020905b81548152906001019060200180831161218b57829003601f168201915b5050505050613ad5565b612207576040517f08c379a000000000000000000000000000000000000000000000000000000000815260040180806020018281038252602981526020018061490c6029913960400191505060405180910390fd5b6001836040518082805190602001908083835b6020831061223d578051825260208201915060208101905060208303925061221a565b6001836020036101000a038019825116818451168082178552505050505050905001915050908152602001604051809103902060040160008373ffffffffffffffffffffffffffffffffffffffff1673ffffffffffffffffffffffffffffffffffffffff16815260200190815260200160002060030160009054906101000a900460ff1615612317576040517f08c379a00000000000000000000000000000000000000000000000000000000081526004018080602001828103825260278152602001806149856027913960400191505060405180910390fd5b60006127109050803411612393576040517f08c379a00000000000000000000000000000000000000000000000000000000081526004018080602001828103825260188152602001807f4d7573742070617920666f72206469737075746520676173000000000000000081525060200191505060405180910390fd5b600060024233604051602001808381526020018273ffffffffffffffffffffffffffffffffffffffff1673ffffffffffffffffffffffffffffffffffffffff1660601b8152601401925050506040516020818303038152906040528051906020012060001c816123ff57fe5b06905060018114156124f757336001866040518082805190602001908083835b60208310612442578051825260208201915060208101905060208303925061241f565b6001836020036101000a038019825116818451168082178552505050505050905001915050908152602001604051809103902060040160008673ffffffffffffffffffffffffffffffffffffffff1673ffffffffffffffffffffffffffffffffffffffff16815260200190815260200160002060070160006101000a81548173ffffffffffffffffffffffffffffffffffffffff021916908373ffffffffffffffffffffffffffffffffffffffff1602179055505b600180866040518082805190602001908083835b6020831061252e578051825260208201915060208101905060208303925061250b565b6001836020036101000a038019825116818451168082178552505050505050905001915050908152602001604051809103902060040160008673ffffffffffffffffffffffffffffffffffffffff1673ffffffffffffffffffffffffffffffffffffffff16815260200190815260200160002060030160006101000a81548160ff021916908315150217905550809250505092915050565b6127136001856040518082805190602001908083835b602083106125ff57805182526020820191506020810190506020830392506125dc565b6001836020036101000a038019825116818451168082178552505050505050905001915050908152602001604051809103902060040160003373ffffffffffffffffffffffffffffffffffffffff1673ffffffffffffffffffffffffffffffffffffffff1681526020019081526020016000206005018054600181600116156101000203166002900480601f0160208091040260200160405190810160405280929190818152602001828054600181600116156101000203166002900480156127095780601f106126de57610100808354040283529160200191612709565b820191906000526020600020905b8154815290600101906020018083116126ec57829003601f168201915b5050505050613ad5565b15612769576040517f08c379a00000000000000000000000000000000000000000000000000000000081526004018080602001828103825260298152602001806148e36029913960400191505060405180910390fd5b60006001856040518082805190602001908083835b602083106127a1578051825260208201915060208101905060208303925061277e565b6001836020036101000a0380198251168184511680821785525050505050509050019150509081526020016040518091039020600101541161282e576040517f08c379a00000000000000000000000000000000000000000000000000000000081526004018080602001828103825260328152602001806149ac6032913960400191505060405180910390fd5b6064821115612888576040517f08c379a00000000000000000000000000000000000000000000000000000000081526004018080602001828103825260248152602001806148bf6024913960400191505060405180910390fd5b61289184613afb565b15612904576040517f08c379a000000000000000000000000000000000000000000000000000000000815260040180806020018281038252601a8152602001807f50726f706f73616c2068617320616c726561647920656e64656400000000000081525060200191505060405180910390fd5b826001856040518082805190602001908083835b6020831061293b5780518252602082019150602081019050602083039250612918565b6001836020036101000a038019825116818451168082178552505050505050905001915050908152602001604051809103902060040160003373ffffffffffffffffffffffffffffffffffffffff1673ffffffffffffffffffffffffffffffffffffffff16815260200190815260200160002060050190805190602001906129c4929190614766565b50806001856040518082805190602001908083835b602083106129fc57805182526020820191506020810190506020830392506129d9565b6001836020036101000a038019825116818451168082178552505050505050905001915050908152602001604051809103902060040160003373ffffffffffffffffffffffffffffffffffffffff1673ffffffffffffffffffffffffffffffffffffffff1681526020019081526020016000206004019080519060200190612a85929190614766565b50336001856040518082805190602001908083835b60208310612abd5780518252602082019150602081019050602083039250612a9a565b6001836020036101000a038019825116818451168082178552505050505050905001915050908152602001604051809103902060040160003373ffffffffffffffffffffffffffffffffffffffff1673ffffffffffffffffffffffffffffffffffffffff16815260200190815260200160002060060160006101000a81548173ffffffffffffffffffffffffffffffffffffffff021916908373ffffffffffffffffffffffffffffffffffffffff160217905550816001856040518082805190602001908083835b60208310612ba85780518252602082019150602081019050602083039250612b85565b6001836020036101000a038019825116818451168082178552505050505050905001915050908152602001604051809103902060040160003373ffffffffffffffffffffffffffffffffffffffff1673ffffffffffffffffffffffffffffffffffffffff168152602001908152602001600020600101819055506001846040518082805190602001908083835b60208310612c585780518252602082019150602081019050602083039250612c35565b6001836020036101000a03801982511681845116808217855250505050505090500191505090815260200160405180910390206005016001856040518082805190602001908083835b60208310612cc45780518252602082019150602081019050602083039250612ca1565b6001836020036101000a038019825116818451168082178552505050505050905001915050908152602001604051809103902060040160003373ffffffffffffffffffffffffffffffffffffffff1673ffffffffffffffffffffffffffffffffffffffff168152602001908152602001600020908060018154018082558091505090600182039060005260206000209060080201600090919290919091506000820154816000015560018201548160010155600282015481600201556003820160009054906101000a900460ff168160030160006101000a81548160ff02191690831515021790555060048201816004019080546001816001161561010002031660029004612dd49291906147e6565b5060058201816005019080546001816001161561010002031660029004612dfc9291906147e6565b506006820160009054906101000a900473ffffffffffffffffffffffffffffffffffffffff168160060160006101000a81548173ffffffffffffffffffffffffffffffffffffffff021916908373ffffffffffffffffffffffffffffffffffffffff1602179055506007820160009054906101000a900473ffffffffffffffffffffffffffffffffffffffff168160070160006101000a81548173ffffffffffffffffffffffffffffffffffffffff021916908373ffffffffffffffffffffffffffffffffffffffff160217905550505050600260003373ffffffffffffffffffffffffffffffffffffffff1673ffffffffffffffffffffffffffffffffffffffff168152602001908152602001600020849080600181540180825580915050906001820390600052602060002001600090919290919091509080519060200190612f48929190614766565b505050505050565b60006001826040518082805190602001908083835b60208310612f885780518252602082019150602081019050602083039250612f65565b6001836020036101000a03801982511681845116808217855250505050505090500191505090815260200160405180910390206001015411613015576040517f08c379a00000000000000000000000000000000000000000000000000000000081526004018080602001828103825260328152602001806149ac6032913960400191505060405180910390fd5b60026001826040518082805190602001908083835b6020831061304d578051825260208201915060208101905060208303925061302a565b6001836020036101000a038019825116818451168082178552505050505050905001915050908152602001604051809103902060020154146130da576040517f08c379a00000000000000000000000000000000000000000000000000000000081526004018080602001828103825260258152602001806149356025913960400191505060405180910390fd5b6175306001826040518082805190602001908083835b6020831061311357805182526020820191506020810190506020830392506130f0565b6001836020036101000a0380198251168184511680821785525050505050509050019150509081526020016040518091039020600301546103e8420203116131a6576040517f08c379a00000000000000000000000000000000000000000000000000000000081526004018080602001828103825260238152602001806149de6023913960400191505060405180910390fd5b6131af81613b77565b50565b60008080549050905090565b600081815481106131cb57fe5b906000526020600020016000915090508054600181600116156101000203166002900480601f01602080910402602001604051908101604052809291908181526020018280546001816001161561010002031660029004801561326f5780601f106132445761010080835404028352916020019161326f565b820191906000526020600020905b81548152906001019060200180831161325257829003601f168201915b505050505081565b606060008060606000806001886040518082805190602001908083835b602083106132b75780518252602082019150602081019050602083039250613294565b6001836020036101000a038019825116818451168082178552505050505050905001915050908152602001604051809103902060050187815481106132f857fe5b906000526020600020906008020160060160009054906101000a900473ffffffffffffffffffffffffffffffffffffffff1690506001886040518082805190602001908083835b60208310613362578051825260208201915060208101905060208303925061333f565b6001836020036101000a038019825116818451168082178552505050505050905001915050908152602001604051809103902060040160008273ffffffffffffffffffffffffffffffffffffffff1673ffffffffffffffffffffffffffffffffffffffff1681526020019081526020016000206005016001896040518082805190602001908083835b6020831061340e57805182526020820191506020810190506020830392506133eb565b6001836020036101000a038019825116818451168082178552505050505050905001915050908152602001604051809103902060040160008373ffffffffffffffffffffffffffffffffffffffff1673ffffffffffffffffffffffffffffffffffffffff1681526020019081526020016000206001015460018a6040518082805190602001908083835b602083106134bb5780518252602082019150602081019050602083039250613498565b6001836020036101000a038019825116818451168082178552505050505050905001915050908152602001604051809103902060040160008473ffffffffffffffffffffffffffffffffffffffff1673ffffffffffffffffffffffffffffffffffffffff16815260200190815260200160002060060160009054906101000a900473ffffffffffffffffffffffffffffffffffffffff1660018b6040518082805190602001908083835b602083106135885780518252602082019150602081019050602083039250613565565b6001836020036101000a038019825116818451168082178552505050505050905001915050908152602001604051809103902060040160008573ffffffffffffffffffffffffffffffffffffffff1673ffffffffffffffffffffffffffffffffffffffff16815260200190815260200160002060040160018c6040518082805190602001908083835b602083106136345780518252602082019150602081019050602083039250613611565b6001836020036101000a038019825116818451168082178552505050505050905001915050908152602001604051809103902060040160008673ffffffffffffffffffffffffffffffffffffffff1673ffffffffffffffffffffffffffffffffffffffff16815260200190815260200160002060030160009054906101000a900460ff16848054600181600116156101000203166002900480601f01602080910402602001604051908101604052809291908181526020018280546001816001161561010002031660029004801561374d5780601f106137225761010080835404028352916020019161374d565b820191906000526020600020905b81548152906001019060200180831161373057829003601f168201915b50505050509450829250818054600181600116156101000203166002900480601f0160208091040260200160405190810160405280929190818152602001828054600181600116156101000203166002900480156137ec5780601f106137c1576101008083540402835291602001916137ec565b820191906000526020600020905b8154815290600101906020018083116137cf57829003601f168201915b5050505050915095509550955095509550509295509295909350565b6139556001836040518082805190602001908083835b60208310613841578051825260208201915060208101905060208303925061381e565b6001836020036101000a038019825116818451168082178552505050505050905001915050908152602001604051809103902060040160003373ffffffffffffffffffffffffffffffffffffffff1673ffffffffffffffffffffffffffffffffffffffff1681526020019081526020016000206005018054600181600116156101000203166002900480601f01602080910402602001604051908101604052809291908181526020018280546001816001161561010002031660029004801561394b5780601f106139205761010080835404028352916020019161394b565b820191906000526020600020905b81548152906001019060200180831161392e57829003601f168201915b5050505050613ad5565b6139aa576040517f08c379a000000000000000000000000000000000000000000000000000000000815260040180806020018281038252602981526020018061490c6029913960400191505060405180910390fd5b806001836040518082805190602001908083835b602083106139e157805182526020820191506020810190506020830392506139be565b6001836020036101000a038019825116818451168082178552505050505050905001915050908152602001604051809103902060040160003373ffffffffffffffffffffffffffffffffffffffff1673ffffffffffffffffffffffffffffffffffffffff1681526020019081526020016000206005019080519060200190613a6a929190614766565b505050565b6001818051602081018201805184825260208301602085012081835280955050505050506000915090508060000160009054906101000a900473ffffffffffffffffffffffffffffffffffffffff16908060010154908060020154908060030154905084565b60006060829050600081511415613af0576000915050613af6565b60019150505b919050565b60006001826040518082805190602001908083835b60208310613b335780518252602082019150602081019050602083039250613b10565b6001836020036101000a0380198251168184511680821785525050505050509050019150509081526020016040518091039020600301546103e84202119050919050565b613b8081613bf5565b60006001826040518082805190602001908083835b60208310613bb85780518252602082019150602081019050602083039250613b95565b6001836020036101000a03801982511681845116808217855250505050505090500191505090815260200160405180910390206002018190555050565b600180826040518082805190602001908083835b60208310613c2c5780518252602082019150602081019050602083039250613c09565b6001836020036101000a03801982511681845116808217855250505050505090500191505090815260200160405180910390206002015414613cd6576040517f08c379a00000000000000000000000000000000000000000000000000000000081526004018080602001828103825260208152602001807f5468652070726f706f73616c20697320616c72656164792066696e697368656481525060200191505060405180910390fd5b6000809050600080905060008090505b6001846040518082805190602001908083835b60208310613d1c5780518252602082019150602081019050602083039250613cf9565b6001836020036101000a038019825116818451168082178552505050505050905001915050908152602001604051809103902060050180549050811015613e8657826001856040518082805190602001908083835b60208310613d945780518252602082019150602081019050602083039250613d71565b6001836020036101000a03801982511681845116808217855250505050505090500191505090815260200160405180910390206005018281548110613dd557fe5b9060005260206000209060080201600101541115613e79576001846040518082805190602001908083835b60208310613e235780518252602082019150602081019050602083039250613e00565b6001836020036101000a03801982511681845116808217855250505050505090500191505090815260200160405180910390206005018181548110613e6457fe5b90600052602060002090600802016001015492505b8080600101915050613ce6565b5060008090505b6001846040518082805190602001908083835b60208310613ec35780518252602082019150602081019050602083039250613ea0565b6001836020036101000a0380198251168184511680821785525050505050509050019150509081526020016040518091039020600501805490508110156140c057826103e86001866040518082805190602001908083835b60208310613f3e5780518252602082019150602081019050602083039250613f1b565b6001836020036101000a03801982511681845116808217855250505050505090500191505090815260200160405180910390206005018381548110613f7f57fe5b9060005260206000209060080201600101540281613f9957fe5b046001856040518082805190602001908083835b60208310613fd05780518252602082019150602081019050602083039250613fad565b6001836020036101000a0380198251168184511680821785525050505050509050019150509081526020016040518091039020600501828154811061401157fe5b9060005260206000209060080201600201819055506001846040518082805190602001908083835b6020831061405c5780518252602082019150602081019050602083039250614039565b6001836020036101000a0380198251168184511680821785525050505050509050019150509081526020016040518091039020600501818154811061409d57fe5b906000526020600020906008020160020154820191508080600101915050613e8d565b5060008090505b6001846040518082805190602001908083835b602083106140fd57805182526020820191506020810190506020830392506140da565b6001836020036101000a038019825116818451168082178552505050505050905001915050908152602001604051809103902060050180549050811015614760576000826001866040518082805190602001908083835b602083106141775780518252602082019150602081019050602083039250614154565b6001836020036101000a0380198251168184511680821785525050505050509050019150509081526020016040518091039020600101546001876040518082805190602001908083835b602083106141e457805182526020820191506020810190506020830392506141c1565b6001836020036101000a0380198251168184511680821785525050505050509050019150509081526020016040518091039020600501848154811061422557fe5b906000526020600020906008020160020154028161423f57fe5b04905060006001866040518082805190602001908083835b6020831061427a5780518252602082019150602081019050602083039250614257565b6001836020036101000a038019825116818451168082178552505050505050905001915050908152602001604051809103902060050183815481106142bb57fe5b906000526020600020906008020160060160009054906101000a900473ffffffffffffffffffffffffffffffffffffffff169050600073ffffffffffffffffffffffffffffffffffffffff166001876040518082805190602001908083835b6020831061433d578051825260208201915060208101905060208303925061431a565b6001836020036101000a038019825116818451168082178552505050505050905001915050908152602001604051809103902060040160008373ffffffffffffffffffffffffffffffffffffffff1673ffffffffffffffffffffffffffffffffffffffff16815260200190815260200160002060070160009054906101000a900473ffffffffffffffffffffffffffffffffffffffff1673ffffffffffffffffffffffffffffffffffffffff161415614508576001866040518082805190602001908083835b602083106144265780518252602082019150602081019050602083039250614403565b6001836020036101000a038019825116818451168082178552505050505050905001915050908152602001604051809103902060040160008273ffffffffffffffffffffffffffffffffffffffff1673ffffffffffffffffffffffffffffffffffffffff16815260200190815260200160002060070160009054906101000a900473ffffffffffffffffffffffffffffffffffffffff1673ffffffffffffffffffffffffffffffffffffffff166108fc839081150290604051600060405180830381858888f19350505050158015614502573d6000803e3d6000fd5b506145f8565b6001866040518082805190602001908083835b6020831061453e578051825260208201915060208101905060208303925061451b565b6001836020036101000a0380198251168184511680821785525050505050509050019150509081526020016040518091039020600501838154811061457f57fe5b906000526020600020906008020160060160009054906101000a900473ffffffffffffffffffffffffffffffffffffffff1673ffffffffffffffffffffffffffffffffffffffff166108fc839081150290604051600060405180830381858888f193505050501580156145f6573d6000803e3d6000fd5b505b816001876040518082805190602001908083835b6020831061462f578051825260208201915060208101905060208303925061460c565b6001836020036101000a038019825116818451168082178552505050505050905001915050908152602001604051809103902060040160006001896040518082805190602001908083835b6020831061469d578051825260208201915060208101905060208303925061467a565b6001836020036101000a038019825116818451168082178552505050505050905001915050908152602001604051809103902060050186815481106146de57fe5b906000526020600020906008020160060160009054906101000a900473ffffffffffffffffffffffffffffffffffffffff1673ffffffffffffffffffffffffffffffffffffffff1673ffffffffffffffffffffffffffffffffffffffff16815260200190815260200160002060000181905550505080806001019150506140c7565b50505050565b828054600181600116156101000203166002900490600052602060002090601f016020900481019282601f106147a757805160ff19168380011785556147d5565b828001600101855582156147d5579182015b828111156147d45782518255916020019190600101906147b9565b5b5090506147e2919061486d565b5090565b828054600181600116156101000203166002900490600052602060002090601f016020900481019282601f1061481f578054855561485c565b8280016001018555821561485c57600052602060002091601f016020900482015b8281111561485b578254825591600101919060010190614840565b5b509050614869919061486d565b5090565b61488f91905b8082111561488b576000816000905550600101614873565b5090565b9056fe546865726520697320616c726561647920612070726f706f73616c20666f72207468617420646174617365745468652073636f72652063616e6e6f742062652067726561746572207468616e203130304120736f6c7574696f6e20616c72656164792065786973747320666f7220746869732073656e6465724120736f6c7574696f6e20646f6573206e6f7420657869737420666f7220746869732073656e64657250726f706f73616c206973206e6f7420696e207468652077616974696e6720706572696f644d757374207374616b6520736f6d6520616d6f756e7420746f2063726561746520612070726f706f73616c546869732070726f706f73616c2068617320616c7265616479206265656e2064697370757465645468657265206973206e6f7420616e206578697374696e672070726f706f73616c20666f722074686174206461746173657450726f706f73616c2077616974696e6720706572696f64206973206e6f74206f766572a265627a7a7231582067193a39723adac58f4c793e44a644b10958ff9b82a9a0080e71f3eaad9086c664736f6c63430005100032",
  "source": "pragma solidity >=0.5.16;\n\ncontract ProposalContract {\n  struct Proposal {\n    address sender;\n    uint balance;\n    uint status; // 2 = review, 1 = active, 0 = completed\n    uint endDateMS; // epoch date for the proposal to be ended automatically\n    mapping (address => Solution) solutions;\n    Solution[] solutionList;\n  }\n\n  struct Solution {\n    uint reward;\n    uint score;\n    uint perf;\n    bool disputed;\n    string preprocessorAddress;\n    string ipfsSolutionAddress;\n    address payable owner;\n    address payable disputer;\n  }\n\n  string[] public proposalList;\n  mapping (string => Proposal) public proposals;\n  mapping (address => string[]) public solutionsForAddr;\n\n  event ProposalCreated(address from, uint amount, string ipfsDataAddress);\n  event ProposalUpdated(address from, uint amount, string ipfsDataAddress);\n  event ProposalEnd(address from, uint amount, string ipfsDataAddress);\n\n  constructor() public {\n  }\n\n  function _proposalEnded(string memory ipfsDataAddress) private view returns (bool) {\n    return block.timestamp * 1000 > proposals[ipfsDataAddress].endDateMS;\n  }\n\n  function proposeCreate(string memory ipfsDataAddress, uint endDateMS) public payable {\n    require(proposals[ipfsDataAddress].balance == 0, \"There is already a proposal for that dataset\");\n    require(msg.value > 0, \"Must stake some amount to create a proposal\");\n\n    proposals[ipfsDataAddress].sender = msg.sender;\n    proposals[ipfsDataAddress].balance += msg.value;\n    proposals[ipfsDataAddress].status = 1;\n    proposals[ipfsDataAddress].endDateMS = endDateMS;\n\n    proposalList.push(ipfsDataAddress);\n\n    // Emits the event defined earlier\n    emit ProposalCreated(msg.sender, msg.value,  ipfsDataAddress);\n  }\n\n  function proposeUpdate(string memory ipfsDataAddress) public payable {\n    require(proposals[ipfsDataAddress].balance > 0, \"There is not an existing proposal for that dataset\");\n\n    proposals[ipfsDataAddress].balance += msg.value;\n    emit ProposalUpdated(msg.sender, msg.value, ipfsDataAddress);\n  }\n\n  function _proposeEnd(string memory ipfsDataAddress) private {\n    _reward(ipfsDataAddress);\n    proposals[ipfsDataAddress].status = 0;\n  }\n\n  function proposeDateEnd(string memory ipfsDataAddress) public {\n    require(proposals[ipfsDataAddress].balance > 0, \"There is not an existing proposal for that dataset\");\n    require(_proposalEnded(ipfsDataAddress), \"Proposal is not yet over\");\n    proposals[ipfsDataAddress].status = 2;\n  }\n\n  function proposePayout(string memory ipfsDataAddress) public {\n    require(proposals[ipfsDataAddress].balance > 0, \"There is not an existing proposal for that dataset\");\n    require(proposals[ipfsDataAddress].status == 2, \"Proposal is not in the waiting period\");\n    require(block.timestamp * 1000 - proposals[ipfsDataAddress].endDateMS > 30000, \"Proposal waiting period is not over\");\n    _proposeEnd(ipfsDataAddress);\n  }\n\n  function solutionCreate(string memory ipfsDataAddress, string memory ipfsSolutionAddress, uint score, string memory preprocessorAddress) public {\n    // TODO: validation on IPFS address\n    // TODO: ensure bad actors cant submit same model from different addresses, or slightly tweaked model to get more rewards\n    require(!_testEmptyString(proposals[ipfsDataAddress].solutions[msg.sender].ipfsSolutionAddress), \"A solution already exists for this sender\");\n    require(proposals[ipfsDataAddress].balance > 0, \"There is not an existing proposal for that dataset\");\n    require(score <= 100, \"The score cannot be greater than 100\");\n    require(!_proposalEnded(ipfsDataAddress), \"Proposal has already ended\");\n\n  proposals[ipfsDataAddress].solutions[msg.sender].ipfsSolutionAddress = ipfsSolutionAddress;\n    proposals[ipfsDataAddress].solutions[msg.sender].preprocessorAddress = preprocessorAddress;\n    proposals[ipfsDataAddress].solutions[msg.sender].owner = msg.sender;\n    proposals[ipfsDataAddress].solutions[msg.sender].score = score;\n    proposals[ipfsDataAddress].solutionList.push(proposals[ipfsDataAddress].solutions[msg.sender]);\n    solutionsForAddr[msg.sender].push(ipfsDataAddress);\n  }\n\n  function solutionUpdate(string memory ipfsDataAddress, string memory ipfsSolutionAddress) public {\n    require(_testEmptyString(proposals[ipfsDataAddress].solutions[msg.sender].ipfsSolutionAddress), \"A solution does not exist for this sender\");\n    proposals[ipfsDataAddress].solutions[msg.sender].ipfsSolutionAddress = ipfsSolutionAddress;\n  }\n\n  function solutionEvaluate(string memory ipfsDataAddress, uint score) public {\n    require(_testEmptyString(proposals[ipfsDataAddress].solutions[msg.sender].ipfsSolutionAddress), \"A solution does not exist for this sender\");\n    proposals[ipfsDataAddress].solutions[msg.sender].score = score;\n  }\n\n  function getSolutionsForAddressLength() public view returns(uint) {\n    return solutionsForAddr[msg.sender].length;\n  }\n\n  function withdraw(string memory ipfsDataAddress) public {\n    uint reward = proposals[ipfsDataAddress].solutions[msg.sender].reward;\n    proposals[ipfsDataAddress].solutions[msg.sender].reward = 0;\n    msg.sender.transfer(reward);\n  }\n\n  function getProposalCount() public view returns(uint) {\n    return proposalList.length;\n  }\n\n  function getProposalSolutionCount(string memory ipfsDataAddress) public view returns(uint) {\n    return proposals[ipfsDataAddress].solutionList.length;\n  }\n\n  function getProposalSolution(string memory ipfsDataAddress, uint index) public view returns(string memory cid, uint score, address owner, string memory preprocessor, bool disputed) {\n    address owner = proposals[ipfsDataAddress].solutionList[index].owner;\n\n    return (\n      proposals[ipfsDataAddress].solutions[owner].ipfsSolutionAddress,\n      proposals[ipfsDataAddress].solutions[owner].score,\n      proposals[ipfsDataAddress].solutions[owner].owner,\n      proposals[ipfsDataAddress].solutions[owner].preprocessorAddress,\n      proposals[ipfsDataAddress].solutions[owner].disputed\n    );\n  }\n\n  function _reward(string memory ipfsDataAddress) internal {\n    require(proposals[ipfsDataAddress].status == 1, \"The proposal is already finished\");\n\n    uint maxScore = 0;\n    uint totalPerf = 0;\n\n    for (uint i = 0; i < proposals[ipfsDataAddress].solutionList.length; i++) {\n      if (proposals[ipfsDataAddress].solutionList[i].score > maxScore) {\n        maxScore = proposals[ipfsDataAddress].solutionList[i].score;\n      }\n    }\n\n    for (uint i = 0; i < proposals[ipfsDataAddress].solutionList.length; i++) {\n      proposals[ipfsDataAddress].solutionList[i].perf = proposals[ipfsDataAddress].solutionList[i].score * 1000 / maxScore;\n      totalPerf += proposals[ipfsDataAddress].solutionList[i].perf;\n    }\n\n    for (uint i = 0; i < proposals[ipfsDataAddress].solutionList.length; i++) {\n      uint reward = (proposals[ipfsDataAddress].solutionList[i].perf * proposals[ipfsDataAddress].balance) / totalPerf;\n      // \"Real\" solution used here, since disputer not available in solutionsList\n      address owner = proposals[ipfsDataAddress].solutionList[i].owner;\n      if (proposals[ipfsDataAddress].solutions[owner].disputer == address(0)) {\n        proposals[ipfsDataAddress].solutions[owner].disputer.transfer(reward);\n      }\n      else {\n        proposals[ipfsDataAddress].solutionList[i].owner.transfer(reward);\n      }\n      proposals[ipfsDataAddress].solutions[proposals[ipfsDataAddress].solutionList[i].owner].reward = reward;\n    }\n  }\n\n  function disputeSolution(string memory ipfsDataAddress, address ownerAddress) public payable returns(uint) {\n    require(_testEmptyString(proposals[ipfsDataAddress].solutions[ownerAddress].ipfsSolutionAddress), \"A solution does not exist for this sender\");\n    require(!proposals[ipfsDataAddress].solutions[ownerAddress].disputed, \"This proposal has already been disputed\");\n    uint gasCost = 10000;\n    require(msg.value > gasCost, \"Must pay for dispute gas\");\n    uint disputeWon = uint(uint256(keccak256(abi.encodePacked(now, msg.sender)))%2);\n\n    if (disputeWon == 1) {\n      proposals[ipfsDataAddress].solutions[ownerAddress].disputer = msg.sender;\n    }\n\n    proposals[ipfsDataAddress].solutions[ownerAddress].disputed = true;\n\n    return disputeWon;\n  }\n\n  function getDisputeStatus(string memory ipfsDataAddress, address ownerAddress) public view returns(int) {\n    if ( !proposals[ipfsDataAddress].solutions[ownerAddress].disputed) {\n      return -1;\n    }\n\n    if (proposals[ipfsDataAddress].solutions[ownerAddress].disputer == msg.sender) {\n      return 1;\n    }\n\n    return 0;\n  }\n\n  function _testEmptyString(string memory anyString) pure internal returns(bool) {\n    bytes memory tempEmptyStringTest = bytes(anyString); // Uses memory\n    if (tempEmptyStringTest.length == 0) {\n      return false;\n    } else {\n      return true;\n    }\n  }\n}\n",
  "sourcePath": "/Users/adamwootton/Code/hackfs/contracts/ProposalContract.sol",
  "compiler": {
    "name": "solc",
    "version": "0.5.16+commit.9c3226ce.Emscripten.clang"
  },
  "schemaVersion": "3.2.3",
  "updatedAt": "2020-08-07T01:08:58.385Z",
  "networkType": "ethereum",
  "devdoc": {
    "methods": {}
  },
  "userdoc": {
    "methods": {}
  }
}