{
  "contractName": "ProposalContract",
  "abi": [
    {
      "inputs": [],
      "payable": false,
      "stateMutability": "nonpayable",
      "type": "constructor"
    },
    {
      "anonymous": false,
      "inputs": [
        {
          "indexed": false,
          "internalType": "address",
          "name": "from",
          "type": "address"
        },
        {
          "indexed": false,
          "internalType": "uint256",
          "name": "amount",
          "type": "uint256"
        },
        {
          "indexed": false,
          "internalType": "string",
          "name": "ipfsDataAddress",
          "type": "string"
        }
      ],
      "name": "ProposalCreated",
      "type": "event"
    },
    {
      "anonymous": false,
      "inputs": [
        {
          "indexed": false,
          "internalType": "address",
          "name": "from",
          "type": "address"
        },
        {
          "indexed": false,
          "internalType": "uint256",
          "name": "amount",
          "type": "uint256"
        },
        {
          "indexed": false,
          "internalType": "string",
          "name": "ipfsDataAddress",
          "type": "string"
        }
      ],
      "name": "ProposalEnd",
      "type": "event"
    },
    {
      "anonymous": false,
      "inputs": [
        {
          "indexed": false,
          "internalType": "address",
          "name": "from",
          "type": "address"
        },
        {
          "indexed": false,
          "internalType": "uint256",
          "name": "amount",
          "type": "uint256"
        },
        {
          "indexed": false,
          "internalType": "string",
          "name": "ipfsDataAddress",
          "type": "string"
        }
      ],
      "name": "ProposalUpdated",
      "type": "event"
    },
    {
      "constant": true,
      "inputs": [
        {
          "internalType": "uint256",
          "name": "",
          "type": "uint256"
        }
      ],
      "name": "proposalList",
      "outputs": [
        {
          "internalType": "string",
          "name": "",
          "type": "string"
        }
      ],
      "payable": false,
      "stateMutability": "view",
      "type": "function"
    },
    {
      "constant": true,
      "inputs": [
        {
          "internalType": "string",
          "name": "",
          "type": "string"
        }
      ],
      "name": "proposals",
      "outputs": [
        {
          "internalType": "address",
          "name": "sender",
          "type": "address"
        },
        {
          "internalType": "uint256",
          "name": "balance",
          "type": "uint256"
        },
        {
          "internalType": "uint256",
          "name": "status",
          "type": "uint256"
        },
        {
          "internalType": "uint256",
          "name": "endDateMS",
          "type": "uint256"
        }
      ],
      "payable": false,
      "stateMutability": "view",
      "type": "function"
    },
    {
      "constant": true,
      "inputs": [],
      "name": "staker",
      "outputs": [
        {
          "internalType": "address",
          "name": "",
          "type": "address"
        }
      ],
      "payable": false,
      "stateMutability": "view",
      "type": "function"
    },
    {
      "constant": false,
      "inputs": [],
      "name": "receive",
      "outputs": [],
      "payable": true,
      "stateMutability": "payable",
      "type": "function"
    },
    {
      "constant": true,
      "inputs": [],
      "name": "getMessage",
      "outputs": [
        {
          "internalType": "string",
          "name": "",
          "type": "string"
        }
      ],
      "payable": false,
      "stateMutability": "view",
      "type": "function"
    },
    {
      "constant": false,
      "inputs": [
        {
          "internalType": "string",
          "name": "ipfsDataAddress",
          "type": "string"
        },
        {
          "internalType": "uint256",
          "name": "endDateMS",
          "type": "uint256"
        }
      ],
      "name": "proposeCreate",
      "outputs": [],
      "payable": true,
      "stateMutability": "payable",
      "type": "function"
    },
    {
      "constant": false,
      "inputs": [
        {
          "internalType": "string",
          "name": "ipfsDataAddress",
          "type": "string"
        }
      ],
      "name": "proposeUpdate",
      "outputs": [],
      "payable": true,
      "stateMutability": "payable",
      "type": "function"
    },
    {
      "constant": false,
      "inputs": [
        {
          "internalType": "string",
          "name": "ipfsDataAddress",
          "type": "string"
        }
      ],
      "name": "proposeEnd",
      "outputs": [],
      "payable": false,
      "stateMutability": "nonpayable",
      "type": "function"
    },
    {
      "constant": false,
      "inputs": [
        {
          "internalType": "string",
          "name": "ipfsDataAddress",
          "type": "string"
        }
      ],
      "name": "proposeDateEnd",
      "outputs": [],
      "payable": false,
      "stateMutability": "nonpayable",
      "type": "function"
    },
    {
      "constant": false,
      "inputs": [
        {
          "internalType": "string",
          "name": "ipfsDataAddress",
          "type": "string"
        },
        {
          "internalType": "string",
          "name": "ipfsSolutionAddress",
          "type": "string"
        },
        {
          "internalType": "uint256",
          "name": "score",
          "type": "uint256"
        }
      ],
      "name": "solutionCreate",
      "outputs": [],
      "payable": false,
      "stateMutability": "nonpayable",
      "type": "function"
    },
    {
      "constant": false,
      "inputs": [
        {
          "internalType": "string",
          "name": "ipfsDataAddress",
          "type": "string"
        },
        {
          "internalType": "string",
          "name": "ipfsSolutionAddress",
          "type": "string"
        }
      ],
      "name": "solutionUpdate",
      "outputs": [],
      "payable": false,
      "stateMutability": "nonpayable",
      "type": "function"
    },
    {
      "constant": false,
      "inputs": [
        {
          "internalType": "string",
          "name": "ipfsDataAddress",
          "type": "string"
        },
        {
          "internalType": "uint256",
          "name": "score",
          "type": "uint256"
        }
      ],
      "name": "solutionEvaluate",
      "outputs": [],
      "payable": false,
      "stateMutability": "nonpayable",
      "type": "function"
    },
    {
      "constant": false,
      "inputs": [
        {
          "internalType": "string",
          "name": "ipfsDataAddress",
          "type": "string"
        }
      ],
      "name": "withdraw",
      "outputs": [],
      "payable": false,
      "stateMutability": "nonpayable",
      "type": "function"
    },
    {
      "constant": true,
      "inputs": [],
      "name": "getProposalCount",
      "outputs": [
        {
          "internalType": "uint256",
          "name": "",
          "type": "uint256"
        }
      ],
      "payable": false,
      "stateMutability": "view",
      "type": "function"
    },
    {
      "constant": true,
      "inputs": [
        {
          "internalType": "string",
          "name": "ipfsDataAddress",
          "type": "string"
        }
      ],
      "name": "getProposalSolutionCount",
      "outputs": [
        {
          "internalType": "uint256",
          "name": "",
          "type": "uint256"
        }
      ],
      "payable": false,
      "stateMutability": "view",
      "type": "function"
    },
    {
      "constant": true,
      "inputs": [
        {
          "internalType": "string",
          "name": "ipfsDataAddress",
          "type": "string"
        },
        {
          "internalType": "uint256",
          "name": "index",
          "type": "uint256"
        }
      ],
      "name": "getProposalSolution",
      "outputs": [
        {
          "internalType": "string",
          "name": "cid",
          "type": "string"
        },
        {
          "internalType": "uint256",
          "name": "score",
          "type": "uint256"
        },
        {
          "internalType": "address",
          "name": "owner",
          "type": "address"
        }
      ],
      "payable": false,
      "stateMutability": "view",
      "type": "function"
    }
  ],
  "bytecode": "0x60806040526040518060400160405280600e81526020017f48656c6c6f20576f726c64212121000000000000000000000000000000000000815250600190805190602001906200005192919062000066565b503480156200005f57600080fd5b5062000115565b828054600181600116156101000203166002900490600052602060002090601f016020900481019282601f10620000a957805160ff1916838001178555620000da565b82800160010185558215620000da579182015b82811115620000d9578251825591602001919060010190620000bc565b5b509050620000e99190620000ed565b5090565b6200011291905b808211156200010e576000816000905550600101620000f4565b5090565b90565b61333680620001256000396000f3fe6080604052600436106100f35760003560e01c8063a3e76c0f1161008a578063dcdc04ce11610059578063dcdc04ce146108ef578063df812cc214610a74578063f0460a6e14610b3c578063ffa0d2a414610c9b576100f3565b8063a3e76c0f14610776578063c08cc02d14610780578063c6311e3f146107ab578063ce6d41de1461085f576100f3565b806331fb67c2116100c657806331fb67c2146104265780633c112429146104ee5780635ebaf1db146105b65780636aad99531461060d576100f3565b8063061ee931146100f857806316fe1d7b146101b3578063295a1b6f146102785780632eef39cc1461034a575b600080fd5b6101b16004803603602081101561010e57600080fd5b810190808035906020019064010000000081111561012b57600080fd5b82018360208201111561013d57600080fd5b8035906020019184600183028401116401000000008311171561015f57600080fd5b91908080601f016020809104026020016040519081016040528093929190818152602001838380828437600081840152601f19601f820116905080830192505050505050509192919290505050610db8565b005b610276600480360360408110156101c957600080fd5b81019080803590602001906401000000008111156101e657600080fd5b8201836020820111156101f857600080fd5b8035906020019184600183028401116401000000008311171561021a57600080fd5b91908080601f016020809104026020016040519081016040528093929190818152602001838380828437600081840152601f19601f82011690508083019250505050505050919291929080359060200190929190505050610fd2565b005b34801561028457600080fd5b506103486004803603604081101561029b57600080fd5b81019080803590602001906401000000008111156102b857600080fd5b8201836020820111156102ca57600080fd5b803590602001918460018302840111640100000000831117156102ec57600080fd5b91908080601f016020809104026020016040519081016040528093929190818152602001838380828437600081840152601f19601f82011690508083019250505050505050919291929080359060200190929190505050611413565b005b34801561035657600080fd5b506104106004803603602081101561036d57600080fd5b810190808035906020019064010000000081111561038a57600080fd5b82018360208201111561039c57600080fd5b803590602001918460018302840111640100000000831117156103be57600080fd5b91908080601f016020809104026020016040519081016040528093929190818152602001838380828437600081840152601f19601f82011690508083019250505050505050919291929050505061166a565b6040518082815260200191505060405180910390f35b34801561043257600080fd5b506104ec6004803603602081101561044957600080fd5b810190808035906020019064010000000081111561046657600080fd5b82018360208201111561047857600080fd5b8035906020019184600183028401116401000000008311171561049a57600080fd5b91908080601f016020809104026020016040519081016040528093929190818152602001838380828437600081840152601f19601f8201169050808301925050505050505091929192905050506116e3565b005b3480156104fa57600080fd5b506105b46004803603602081101561051157600080fd5b810190808035906020019064010000000081111561052e57600080fd5b82018360208201111561054057600080fd5b8035906020019184600183028401116401000000008311171561056257600080fd5b91908080601f016020809104026020016040519081016040528093929190818152602001838380828437600081840152601f19601f820116905080830192505050505050509192919290505050611891565b005b3480156105c257600080fd5b506105cb611a47565b604051808273ffffffffffffffffffffffffffffffffffffffff1673ffffffffffffffffffffffffffffffffffffffff16815260200191505060405180910390f35b34801561061957600080fd5b506107746004803603606081101561063057600080fd5b810190808035906020019064010000000081111561064d57600080fd5b82018360208201111561065f57600080fd5b8035906020019184600183028401116401000000008311171561068157600080fd5b91908080601f016020809104026020016040519081016040528093929190818152602001838380828437600081840152601f19601f820116905080830192505050505050509192919290803590602001906401000000008111156106e457600080fd5b8201836020820111156106f657600080fd5b8035906020019184600183028401116401000000008311171561071857600080fd5b91908080601f016020809104026020016040519081016040528093929190818152602001838380828437600081840152601f19601f82011690508083019250505050505050919291929080359060200190929190505050611a6c565b005b61077e612126565b005b34801561078c57600080fd5b50610795612128565b6040518082815260200191505060405180910390f35b3480156107b757600080fd5b506107e4600480360360208110156107ce57600080fd5b8101908080359060200190929190505050612135565b6040518080602001828103825283818151815260200191508051906020019080838360005b83811015610824578082015181840152602081019050610809565b50505050905090810190601f1680156108515780820380516001836020036101000a031916815260200191505b509250505060405180910390f35b34801561086b57600080fd5b506108746121ee565b6040518080602001828103825283818151815260200191508051906020019080838360005b838110156108b4578082015181840152602081019050610899565b50505050905090810190601f1680156108e15780820380516001836020036101000a031916815260200191505b509250505060405180910390f35b3480156108fb57600080fd5b506109bf6004803603604081101561091257600080fd5b810190808035906020019064010000000081111561092f57600080fd5b82018360208201111561094157600080fd5b8035906020019184600183028401116401000000008311171561096357600080fd5b91908080601f016020809104026020016040519081016040528093929190818152602001838380828437600081840152601f19601f82011690508083019250505050505050919291929080359060200190929190505050612290565b60405180806020018481526020018373ffffffffffffffffffffffffffffffffffffffff1673ffffffffffffffffffffffffffffffffffffffff168152602001828103825285818151815260200191508051906020019080838360005b83811015610a37578082015181840152602081019050610a1c565b50505050905090810190601f168015610a645780820380516001836020036101000a031916815260200191505b5094505050505060405180910390f35b348015610a8057600080fd5b50610b3a60048036036020811015610a9757600080fd5b8101908080359060200190640100000000811115610ab457600080fd5b820183602082011115610ac657600080fd5b80359060200191846001830284011164010000000083111715610ae857600080fd5b91908080601f016020809104026020016040519081016040528093929190818152602001838380828437600081840152601f19601f8201169050808301925050505050505091929192905050506124fb565b005b348015610b4857600080fd5b50610c9960048036036040811015610b5f57600080fd5b8101908080359060200190640100000000811115610b7c57600080fd5b820183602082011115610b8e57600080fd5b80359060200191846001830284011164010000000083111715610bb057600080fd5b91908080601f016020809104026020016040519081016040528093929190818152602001838380828437600081840152601f19601f82011690508083019250505050505050919291929080359060200190640100000000811115610c1357600080fd5b820183602082011115610c2557600080fd5b80359060200191846001830284011164010000000083111715610c4757600080fd5b91908080601f016020809104026020016040519081016040528093929190818152602001838380828437600081840152601f19601f820116905080830192505050505050509192919290505050612617565b005b348015610ca757600080fd5b50610d6160048036036020811015610cbe57600080fd5b8101908080359060200190640100000000811115610cdb57600080fd5b820183602082011115610ced57600080fd5b80359060200191846001830284011164010000000083111715610d0f57600080fd5b91908080601f016020809104026020016040519081016040528093929190818152602001838380828437600081840152601f19601f82011690508083019250505050505050919291929050505061287e565b604051808573ffffffffffffffffffffffffffffffffffffffff1673ffffffffffffffffffffffffffffffffffffffff16815260200184815260200183815260200182815260200194505050505060405180910390f35b60006003826040518082805190602001908083835b60208310610df05780518252602082019150602081019050602083039250610dcd565b6001836020036101000a03801982511681845116808217855250505050505090500191505090815260200160405180910390206001015411610e7d576040517f08c379a00000000000000000000000000000000000000000000000000000000081526004018080602001828103825260328152602001806132d06032913960400191505060405180910390fd5b346003826040518082805190602001908083835b60208310610eb45780518252602082019150602081019050602083039250610e91565b6001836020036101000a0380198251168184511680821785525050505050509050019150509081526020016040518091039020600101600082825401925050819055507f7ccfb8b27ec625d8960369ad7422c6991904dd932865d3cc2bb8d65b9c17000f333483604051808473ffffffffffffffffffffffffffffffffffffffff1673ffffffffffffffffffffffffffffffffffffffff16815260200183815260200180602001828103825283818151815260200191508051906020019080838360005b83811015610f93578082015181840152602081019050610f78565b50505050905090810190601f168015610fc05780820380516001836020036101000a031916815260200191505b5094505050505060405180910390a150565b60006003836040518082805190602001908083835b6020831061100a5780518252602082019150602081019050602083039250610fe7565b6001836020036101000a03801982511681845116808217855250505050505090500191505090815260200160405180910390206001015414611097576040517f08c379a000000000000000000000000000000000000000000000000000000000815260040180806020018281038252602c815260200180613206602c913960400191505060405180910390fd5b600034116110f0576040517f08c379a000000000000000000000000000000000000000000000000000000000815260040180806020018281038252602b815260200180613284602b913960400191505060405180910390fd5b336003836040518082805190602001908083835b602083106111275780518252602082019150602081019050602083039250611104565b6001836020036101000a038019825116818451168082178552505050505050905001915050908152602001604051809103902060000160006101000a81548173ffffffffffffffffffffffffffffffffffffffff021916908373ffffffffffffffffffffffffffffffffffffffff160217905550346003836040518082805190602001908083835b602083106111d257805182526020820191506020810190506020830392506111af565b6001836020036101000a03801982511681845116808217855250505050505090500191505090815260200160405180910390206001016000828254019250508190555060016003836040518082805190602001908083835b6020831061124d578051825260208201915060208101905060208303925061122a565b6001836020036101000a038019825116818451168082178552505050505050905001915050908152602001604051809103902060020181905550806003836040518082805190602001908083835b602083106112be578051825260208201915060208101905060208303925061129b565b6001836020036101000a03801982511681845116808217855250505050505090500191505090815260200160405180910390206003018190555060028290806001815401808255809150509060018203906000526020600020016000909192909190915090805190602001906113359291906130d9565b50507f9db6e12bf11e1f7aeb4a3bbaf7334db3a3ed38a7dc42e8f16530c97c54ec7124333484604051808473ffffffffffffffffffffffffffffffffffffffff1673ffffffffffffffffffffffffffffffffffffffff16815260200183815260200180602001828103825283818151815260200191508051906020019080838360005b838110156113d35780820151818401526020810190506113b8565b50505050905090810190601f1680156114005780820380516001836020036101000a031916815260200191505b5094505050505060405180910390a15050565b6115606003836040518082805190602001908083835b6020831061144c5780518252602082019150602081019050602083039250611429565b6001836020036101000a038019825116818451168082178552505050505050905001915050908152602001604051809103902060040160003373ffffffffffffffffffffffffffffffffffffffff1673ffffffffffffffffffffffffffffffffffffffff1681526020019081526020016000206003018054600181600116156101000203166002900480601f0160208091040260200160405190810160405280929190818152602001828054600181600116156101000203166002900480156115565780601f1061152b57610100808354040283529160200191611556565b820191906000526020600020905b81548152906001019060200180831161153957829003601f168201915b50505050506128e4565b6115b5576040517f08c379a000000000000000000000000000000000000000000000000000000000815260040180806020018281038252602981526020018061325b6029913960400191505060405180910390fd5b806003836040518082805190602001908083835b602083106115ec57805182526020820191506020810190506020830392506115c9565b6001836020036101000a038019825116818451168082178552505050505050905001915050908152602001604051809103902060040160003373ffffffffffffffffffffffffffffffffffffffff1673ffffffffffffffffffffffffffffffffffffffff168152602001908152602001600020600101819055505050565b60006003826040518082805190602001908083835b602083106116a2578051825260208201915060208101905060208303925061167f565b6001836020036101000a0380198251168184511680821785525050505050509050019150509081526020016040518091039020600501805490509050919050565b60006003826040518082805190602001908083835b6020831061171b57805182526020820191506020810190506020830392506116f8565b6001836020036101000a038019825116818451168082178552505050505050905001915050908152602001604051809103902060040160003373ffffffffffffffffffffffffffffffffffffffff1673ffffffffffffffffffffffffffffffffffffffff16815260200190815260200160002060000154905060006003836040518082805190602001908083835b602083106117cc57805182526020820191506020810190506020830392506117a9565b6001836020036101000a038019825116818451168082178552505050505050905001915050908152602001604051809103902060040160003373ffffffffffffffffffffffffffffffffffffffff1673ffffffffffffffffffffffffffffffffffffffff168152602001908152602001600020600001819055503373ffffffffffffffffffffffffffffffffffffffff166108fc829081150290604051600060405180830381858888f1935050505015801561188c573d6000803e3d6000fd5b505050565b60006003826040518082805190602001908083835b602083106118c957805182526020820191506020810190506020830392506118a6565b6001836020036101000a03801982511681845116808217855250505050505090500191505090815260200160405180910390206001015411611956576040517f08c379a00000000000000000000000000000000000000000000000000000000081526004018080602001828103825260328152602001806132d06032913960400191505060405180910390fd5b6003816040518082805190602001908083835b6020831061198c5780518252602082019150602081019050602083039250611969565b6001836020036101000a0380198251168184511680821785525050505050509050019150509081526020016040518091039020600301546103e8420211611a3b576040517f08c379a00000000000000000000000000000000000000000000000000000000081526004018080602001828103825260188152602001807f50726f706f73616c206973206e6f7420796574206f766572000000000000000081525060200191505060405180910390fd5b611a448161290a565b50565b6000809054906101000a900473ffffffffffffffffffffffffffffffffffffffff1681565b611bb96003846040518082805190602001908083835b60208310611aa55780518252602082019150602081019050602083039250611a82565b6001836020036101000a038019825116818451168082178552505050505050905001915050908152602001604051809103902060040160003373ffffffffffffffffffffffffffffffffffffffff1673ffffffffffffffffffffffffffffffffffffffff1681526020019081526020016000206003018054600181600116156101000203166002900480601f016020809104026020016040519081016040528092919081815260200182805460018160011615610100020316600290048015611baf5780601f10611b8457610100808354040283529160200191611baf565b820191906000526020600020905b815481529060010190602001808311611b9257829003601f168201915b50505050506128e4565b15611c0f576040517f08c379a00000000000000000000000000000000000000000000000000000000081526004018080602001828103825260298152602001806132326029913960400191505060405180910390fd5b60006003846040518082805190602001908083835b60208310611c475780518252602082019150602081019050602083039250611c24565b6001836020036101000a03801982511681845116808217855250505050505090500191505090815260200160405180910390206001015411611cd4576040517f08c379a00000000000000000000000000000000000000000000000000000000081526004018080602001828103825260328152602001806132d06032913960400191505060405180910390fd5b816003846040518082805190602001908083835b60208310611d0b5780518252602082019150602081019050602083039250611ce8565b6001836020036101000a038019825116818451168082178552505050505050905001915050908152602001604051809103902060040160003373ffffffffffffffffffffffffffffffffffffffff1673ffffffffffffffffffffffffffffffffffffffff1681526020019081526020016000206003019080519060200190611d949291906130d9565b50336003846040518082805190602001908083835b60208310611dcc5780518252602082019150602081019050602083039250611da9565b6001836020036101000a038019825116818451168082178552505050505050905001915050908152602001604051809103902060040160003373ffffffffffffffffffffffffffffffffffffffff1673ffffffffffffffffffffffffffffffffffffffff16815260200190815260200160002060040160006101000a81548173ffffffffffffffffffffffffffffffffffffffff021916908373ffffffffffffffffffffffffffffffffffffffff160217905550806003846040518082805190602001908083835b60208310611eb75780518252602082019150602081019050602083039250611e94565b6001836020036101000a038019825116818451168082178552505050505050905001915050908152602001604051809103902060040160003373ffffffffffffffffffffffffffffffffffffffff1673ffffffffffffffffffffffffffffffffffffffff168152602001908152602001600020600101819055506003836040518082805190602001908083835b60208310611f675780518252602082019150602081019050602083039250611f44565b6001836020036101000a03801982511681845116808217855250505050505090500191505090815260200160405180910390206005016003846040518082805190602001908083835b60208310611fd35780518252602082019150602081019050602083039250611fb0565b6001836020036101000a038019825116818451168082178552505050505050905001915050908152602001604051809103902060040160003373ffffffffffffffffffffffffffffffffffffffff1673ffffffffffffffffffffffffffffffffffffffff16815260200190815260200160002090806001815401808255809150509060018203906000526020600020906005020160009091929091909150600082015481600001556001820154816001015560028201548160020155600382018160030190805460018160011615610100020316600290046120b6929190613159565b506004820160009054906101000a900473ffffffffffffffffffffffffffffffffffffffff168160040160006101000a81548173ffffffffffffffffffffffffffffffffffffffff021916908373ffffffffffffffffffffffffffffffffffffffff160217905550505050505050565b565b6000600280549050905090565b6002818154811061214257fe5b906000526020600020016000915090508054600181600116156101000203166002900480601f0160208091040260200160405190810160405280929190818152602001828054600181600116156101000203166002900480156121e65780601f106121bb576101008083540402835291602001916121e6565b820191906000526020600020905b8154815290600101906020018083116121c957829003601f168201915b505050505081565b606060018054600181600116156101000203166002900480601f0160208091040260200160405190810160405280929190818152602001828054600181600116156101000203166002900480156122865780601f1061225b57610100808354040283529160200191612286565b820191906000526020600020905b81548152906001019060200180831161226957829003601f168201915b5050505050905090565b60606000806003856040518082805190602001908083835b602083106122cb57805182526020820191506020810190506020830392506122a8565b6001836020036101000a0380198251168184511680821785525050505050509050019150509081526020016040518091039020600501848154811061230c57fe5b90600052602060002090600502016003016003866040518082805190602001908083835b602083106123535780518252602082019150602081019050602083039250612330565b6001836020036101000a0380198251168184511680821785525050505050509050019150509081526020016040518091039020600501858154811061239457fe5b9060005260206000209060050201600101546003876040518082805190602001908083835b602083106123dc57805182526020820191506020810190506020830392506123b9565b6001836020036101000a0380198251168184511680821785525050505050509050019150509081526020016040518091039020600501868154811061241d57fe5b906000526020600020906005020160040160009054906101000a900473ffffffffffffffffffffffffffffffffffffffff16828054600181600116156101000203166002900480601f0160208091040260200160405190810160405280929190818152602001828054600181600116156101000203166002900480156124e45780601f106124b9576101008083540402835291602001916124e4565b820191906000526020600020905b8154815290600101906020018083116124c757829003601f168201915b505050505092508090509250925092509250925092565b6003816040518082805190602001908083835b60208310612531578051825260208201915060208101905060208303925061250e565b6001836020036101000a038019825116818451168082178552505050505050905001915050908152602001604051809103902060000160009054906101000a900473ffffffffffffffffffffffffffffffffffffffff1673ffffffffffffffffffffffffffffffffffffffff163373ffffffffffffffffffffffffffffffffffffffff161461260b576040517f08c379a00000000000000000000000000000000000000000000000000000000081526004018080602001828103825260218152602001806132af6021913960400191505060405180910390fd5b6126148161290a565b50565b6127646003836040518082805190602001908083835b60208310612650578051825260208201915060208101905060208303925061262d565b6001836020036101000a038019825116818451168082178552505050505050905001915050908152602001604051809103902060040160003373ffffffffffffffffffffffffffffffffffffffff1673ffffffffffffffffffffffffffffffffffffffff1681526020019081526020016000206003018054600181600116156101000203166002900480601f01602080910402602001604051908101604052809291908181526020018280546001816001161561010002031660029004801561275a5780601f1061272f5761010080835404028352916020019161275a565b820191906000526020600020905b81548152906001019060200180831161273d57829003601f168201915b50505050506128e4565b6127b9576040517f08c379a000000000000000000000000000000000000000000000000000000000815260040180806020018281038252602981526020018061325b6029913960400191505060405180910390fd5b806003836040518082805190602001908083835b602083106127f057805182526020820191506020810190506020830392506127cd565b6001836020036101000a038019825116818451168082178552505050505050905001915050908152602001604051809103902060040160003373ffffffffffffffffffffffffffffffffffffffff1673ffffffffffffffffffffffffffffffffffffffff16815260200190815260200160002060030190805190602001906128799291906130d9565b505050565b6003818051602081018201805184825260208301602085012081835280955050505050506000915090508060000160009054906101000a900473ffffffffffffffffffffffffffffffffffffffff16908060010154908060020154908060030154905084565b600060608290506000815114156128ff576000915050612905565b60019150505b919050565b60006003826040518082805190602001908083835b60208310612942578051825260208201915060208101905060208303925061291f565b6001836020036101000a03801982511681845116808217855250505050505090500191505090815260200160405180910390206002018190555061298581612988565b50565b60016003826040518082805190602001908083835b602083106129c0578051825260208201915060208101905060208303925061299d565b6001836020036101000a03801982511681845116808217855250505050505090500191505090815260200160405180910390206002015414612a6a576040517f08c379a00000000000000000000000000000000000000000000000000000000081526004018080602001828103825260208152602001807f5468652070726f706f73616c20697320616c72656164792066696e697368656481525060200191505060405180910390fd5b6000809050600080905060008090505b6003846040518082805190602001908083835b60208310612ab05780518252602082019150602081019050602083039250612a8d565b6001836020036101000a038019825116818451168082178552505050505050905001915050908152602001604051809103902060050180549050811015612c1a57826003856040518082805190602001908083835b60208310612b285780518252602082019150602081019050602083039250612b05565b6001836020036101000a03801982511681845116808217855250505050505090500191505090815260200160405180910390206005018281548110612b6957fe5b9060005260206000209060050201600101541115612c0d576003846040518082805190602001908083835b60208310612bb75780518252602082019150602081019050602083039250612b94565b6001836020036101000a03801982511681845116808217855250505050505090500191505090815260200160405180910390206005018181548110612bf857fe5b90600052602060002090600502016001015492505b8080600101915050612a7a565b5060008090505b6003846040518082805190602001908083835b60208310612c575780518252602082019150602081019050602083039250612c34565b6001836020036101000a038019825116818451168082178552505050505050905001915050908152602001604051809103902060050180549050811015612e5457826103e86003866040518082805190602001908083835b60208310612cd25780518252602082019150602081019050602083039250612caf565b6001836020036101000a03801982511681845116808217855250505050505090500191505090815260200160405180910390206005018381548110612d1357fe5b9060005260206000209060050201600101540281612d2d57fe5b046003856040518082805190602001908083835b60208310612d645780518252602082019150602081019050602083039250612d41565b6001836020036101000a03801982511681845116808217855250505050505090500191505090815260200160405180910390206005018281548110612da557fe5b9060005260206000209060050201600201819055506003846040518082805190602001908083835b60208310612df05780518252602082019150602081019050602083039250612dcd565b6001836020036101000a03801982511681845116808217855250505050505090500191505090815260200160405180910390206005018181548110612e3157fe5b906000526020600020906005020160020154820191508080600101915050612c21565b5060008090505b6003846040518082805190602001908083835b60208310612e915780518252602082019150602081019050602083039250612e6e565b6001836020036101000a0380198251168184511680821785525050505050509050019150509081526020016040518091039020600501805490508110156130d35760006003856040518082805190602001908083835b60208310612f0a5780518252602082019150602081019050602083039250612ee7565b6001836020036101000a038019825116818451168082178552505050505050905001915050908152602001604051809103902060010154836003876040518082805190602001908083835b60208310612f785780518252602082019150602081019050602083039250612f55565b6001836020036101000a03801982511681845116808217855250505050505090500191505090815260200160405180910390206005018481548110612fb957fe5b90600052602060002090600502016002015481612fd257fe5b040290506003856040518082805190602001908083835b6020831061300c5780518252602082019150602081019050602083039250612fe9565b6001836020036101000a0380198251168184511680821785525050505050509050019150509081526020016040518091039020600501828154811061304d57fe5b906000526020600020906005020160040160009054906101000a900473ffffffffffffffffffffffffffffffffffffffff1673ffffffffffffffffffffffffffffffffffffffff166108fc829081150290604051600060405180830381858888f193505050501580156130c4573d6000803e3d6000fd5b50508080600101915050612e5b565b50505050565b828054600181600116156101000203166002900490600052602060002090601f016020900481019282601f1061311a57805160ff1916838001178555613148565b82800160010185558215613148579182015b8281111561314757825182559160200191906001019061312c565b5b50905061315591906131e0565b5090565b828054600181600116156101000203166002900490600052602060002090601f016020900481019282601f1061319257805485556131cf565b828001600101855582156131cf57600052602060002091601f016020900482015b828111156131ce5782548255916001019190600101906131b3565b5b5090506131dc91906131e0565b5090565b61320291905b808211156131fe5760008160009055506001016131e6565b5090565b9056fe546865726520697320616c726561647920612070726f706f73616c20666f72207468617420646174617365744120736f6c7574696f6e20616c72656164792065786973747320666f7220746869732073656e6465724120736f6c7574696f6e20646f6573206e6f7420657869737420666f7220746869732073656e6465724d757374207374616b6520736f6d6520616d6f756e7420746f2063726561746520612070726f706f73616c4f6e6c7920746865206f776e65722063616e20656e6420612070726f706f73616c5468657265206973206e6f7420616e206578697374696e672070726f706f73616c20666f7220746861742064617461736574a265627a7a723158208d230e9988f0c622c85ac8dee240722cc27769464bb1c070df230dc1ecbc926064736f6c63430005100032",
  "source": "pragma solidity >=0.5.16;\n\ncontract ProposalContract {\n  address public staker;\n  string private message = \"Hello World!!!\";\n\n  struct Proposal {\n    address sender;\n    uint balance;\n    uint status; // 1 = active, 0 = completed\n    uint endDateMS; // epoch date for the proposal to be ended automatically\n    mapping (address => Solution) solutions;\n    Solution[] solutionList;\n  }\n\n  struct Solution {\n    uint reward;\n    uint score;\n    uint perf;\n    string ipfsSolutionAddress;\n    address payable owner;\n  }\n\n  string[] public proposalList;\n  mapping (string => Proposal) public proposals;\n\n  event ProposalCreated(address from, uint amount, string ipfsDataAddress);\n  event ProposalUpdated(address from, uint amount, string ipfsDataAddress);\n  event ProposalEnd(address from, uint amount, string ipfsDataAddress);\n\n  constructor() public {\n  }\n\n  function receive() external payable {\n  }\n\n  function getMessage() public view returns(string memory){\n    return message;\n  }\n\n  function proposeCreate(string memory ipfsDataAddress, uint endDateMS) public payable {\n\n    require(proposals[ipfsDataAddress].balance == 0, \"There is already a proposal for that dataset\");\n    require(msg.value > 0, \"Must stake some amount to create a proposal\");\n\n    proposals[ipfsDataAddress].sender = msg.sender;\n    proposals[ipfsDataAddress].balance += msg.value;\n    proposals[ipfsDataAddress].status = 1;\n    proposals[ipfsDataAddress].endDateMS = endDateMS;\n\n    proposalList.push(ipfsDataAddress);\n\n    // Emits the event defined earlier\n    emit ProposalCreated(msg.sender, msg.value,  ipfsDataAddress);\n  }\n\n  function proposeUpdate(string memory ipfsDataAddress) public payable {\n    require(proposals[ipfsDataAddress].balance > 0, \"There is not an existing proposal for that dataset\");\n\n    proposals[ipfsDataAddress].balance += msg.value;\n    emit ProposalUpdated(msg.sender, msg.value, ipfsDataAddress);\n  }\n\n  function _proposeEnd(string memory ipfsDataAddress) private {\n    proposals[ipfsDataAddress].status = 0;\n    _reward(ipfsDataAddress);\n  }\n\n  function proposeEnd(string memory ipfsDataAddress) public {\n    require(msg.sender == proposals[ipfsDataAddress].sender, \"Only the owner can end a proposal\");\n    _proposeEnd(ipfsDataAddress);\n  }\n\n  function proposeDateEnd(string memory ipfsDataAddress) public {\n    require(proposals[ipfsDataAddress].balance > 0, \"There is not an existing proposal for that dataset\");\n    require(block.timestamp * 1000 > proposals[ipfsDataAddress].endDateMS, \"Proposal is not yet over\");\n    _proposeEnd(ipfsDataAddress);\n  }\n\n  function solutionCreate(string memory ipfsDataAddress, string memory ipfsSolutionAddress, uint score) public {\n    // TODO: validation on IPFS address\n    // TODO: ensure bad actors cant submit same model from different addresses, or slightly tweaked model to get more rewards\n    require(!_testEmptyString(proposals[ipfsDataAddress].solutions[msg.sender].ipfsSolutionAddress), \"A solution already exists for this sender\");\n    require(proposals[ipfsDataAddress].balance > 0, \"There is not an existing proposal for that dataset\");\n    proposals[ipfsDataAddress].solutions[msg.sender].ipfsSolutionAddress = ipfsSolutionAddress;\n    proposals[ipfsDataAddress].solutions[msg.sender].owner = msg.sender;\n    proposals[ipfsDataAddress].solutions[msg.sender].score = score;\n    proposals[ipfsDataAddress].solutionList.push(proposals[ipfsDataAddress].solutions[msg.sender]);\n  }\n\n  function solutionUpdate(string memory ipfsDataAddress, string memory ipfsSolutionAddress) public {\n    require(_testEmptyString(proposals[ipfsDataAddress].solutions[msg.sender].ipfsSolutionAddress), \"A solution does not exist for this sender\");\n    proposals[ipfsDataAddress].solutions[msg.sender].ipfsSolutionAddress = ipfsSolutionAddress;\n  }\n\n  function solutionEvaluate(string memory ipfsDataAddress, uint score) public {\n    require(_testEmptyString(proposals[ipfsDataAddress].solutions[msg.sender].ipfsSolutionAddress), \"A solution does not exist for this sender\");\n    proposals[ipfsDataAddress].solutions[msg.sender].score = score;\n  }\n\n  function withdraw(string memory ipfsDataAddress) public {\n    uint reward = proposals[ipfsDataAddress].solutions[msg.sender].reward;\n    proposals[ipfsDataAddress].solutions[msg.sender].reward = 0;\n    msg.sender.transfer(reward);\n  }\n\n  function getProposalCount() public view returns(uint) {\n    return proposalList.length;\n  }\n\n  function getProposalSolutionCount(string memory ipfsDataAddress) public view returns(uint) {\n    return proposals[ipfsDataAddress].solutionList.length;\n  }\n\n  function getProposalSolution(string memory ipfsDataAddress, uint index) public view returns(string memory cid, uint score, address owner) {\n    return (\n      proposals[ipfsDataAddress].solutionList[index].ipfsSolutionAddress,\n      proposals[ipfsDataAddress].solutionList[index].score,\n      proposals[ipfsDataAddress].solutionList[index].owner\n    );\n  }\n\n  function _reward(string memory ipfsDataAddress) internal {\n    require(proposals[ipfsDataAddress].status == 1, \"The proposal is already finished\");\n\n    uint maxScore = 0;\n    uint totalPerf = 0;\n\n    for (uint i = 0; i < proposals[ipfsDataAddress].solutionList.length; i++) {\n      if (proposals[ipfsDataAddress].solutionList[i].score > maxScore) {\n        maxScore = proposals[ipfsDataAddress].solutionList[i].score;\n      }\n    }\n\n    for (uint i = 0; i < proposals[ipfsDataAddress].solutionList.length; i++) {\n      proposals[ipfsDataAddress].solutionList[i].perf = proposals[ipfsDataAddress].solutionList[i].score * 1000 / maxScore;\n      totalPerf += proposals[ipfsDataAddress].solutionList[i].perf;\n    }\n\n    for (uint i = 0; i < proposals[ipfsDataAddress].solutionList.length; i++) {\n      uint reward = (proposals[ipfsDataAddress].solutionList[i].perf / totalPerf) * proposals[ipfsDataAddress].balance;\n      proposals[ipfsDataAddress].solutionList[i].owner.transfer(reward);\n    }\n  }\n\n  function _testEmptyString(string memory anyString) pure internal returns(bool) {\n    bytes memory tempEmptyStringTest = bytes(anyString); // Uses memory\n    if (tempEmptyStringTest.length == 0) {\n      return false;\n    } else {\n      return true;\n    }\n  }\n}\n",
  "sourcePath": "/Users/adamwootton/Code/hackfs/contracts/ProposalContract.sol",
  "compiler": {
    "name": "solc",
    "version": "0.5.16+commit.9c3226ce.Emscripten.clang"
  },
  "schemaVersion": "3.2.3",
  "updatedAt": "2020-08-03T23:51:20.292Z",
  "networkType": "ethereum",
  "devdoc": {
    "methods": {}
  },
  "userdoc": {
    "methods": {}
  }
}