{
  "contractName": "ProposalContract",
  "abi": [
    {
      "inputs": [],
      "payable": false,
      "stateMutability": "nonpayable",
      "type": "constructor"
    },
    {
      "anonymous": false,
      "inputs": [
        {
          "indexed": false,
          "internalType": "address",
          "name": "from",
          "type": "address"
        },
        {
          "indexed": false,
          "internalType": "uint256",
          "name": "amount",
          "type": "uint256"
        },
        {
          "indexed": false,
          "internalType": "string",
          "name": "ipfsDataAddress",
          "type": "string"
        }
      ],
      "name": "ProposalCreated",
      "type": "event"
    },
    {
      "anonymous": false,
      "inputs": [
        {
          "indexed": false,
          "internalType": "address",
          "name": "from",
          "type": "address"
        },
        {
          "indexed": false,
          "internalType": "uint256",
          "name": "amount",
          "type": "uint256"
        },
        {
          "indexed": false,
          "internalType": "string",
          "name": "ipfsDataAddress",
          "type": "string"
        }
      ],
      "name": "ProposalEnd",
      "type": "event"
    },
    {
      "anonymous": false,
      "inputs": [
        {
          "indexed": false,
          "internalType": "address",
          "name": "from",
          "type": "address"
        },
        {
          "indexed": false,
          "internalType": "uint256",
          "name": "amount",
          "type": "uint256"
        },
        {
          "indexed": false,
          "internalType": "string",
          "name": "ipfsDataAddress",
          "type": "string"
        }
      ],
      "name": "ProposalUpdated",
      "type": "event"
    },
    {
      "constant": true,
      "inputs": [
        {
          "internalType": "uint256",
          "name": "",
          "type": "uint256"
        }
      ],
      "name": "proposalList",
      "outputs": [
        {
          "internalType": "string",
          "name": "",
          "type": "string"
        }
      ],
      "payable": false,
      "stateMutability": "view",
      "type": "function"
    },
    {
      "constant": true,
      "inputs": [
        {
          "internalType": "string",
          "name": "",
          "type": "string"
        }
      ],
      "name": "proposals",
      "outputs": [
        {
          "internalType": "address",
          "name": "sender",
          "type": "address"
        },
        {
          "internalType": "uint256",
          "name": "balance",
          "type": "uint256"
        }
      ],
      "payable": false,
      "stateMutability": "view",
      "type": "function"
    },
    {
      "constant": true,
      "inputs": [],
      "name": "staker",
      "outputs": [
        {
          "internalType": "address",
          "name": "",
          "type": "address"
        }
      ],
      "payable": false,
      "stateMutability": "view",
      "type": "function"
    },
    {
      "constant": true,
      "inputs": [],
      "name": "getMessage",
      "outputs": [
        {
          "internalType": "string",
          "name": "",
          "type": "string"
        }
      ],
      "payable": false,
      "stateMutability": "view",
      "type": "function"
    },
    {
      "constant": false,
      "inputs": [
        {
          "internalType": "string",
          "name": "ipfsDataAddress",
          "type": "string"
        }
      ],
      "name": "proposeCreate",
      "outputs": [],
      "payable": true,
      "stateMutability": "payable",
      "type": "function"
    },
    {
      "constant": false,
      "inputs": [
        {
          "internalType": "string",
          "name": "ipfsDataAddress",
          "type": "string"
        }
      ],
      "name": "proposeUpdate",
      "outputs": [],
      "payable": true,
      "stateMutability": "payable",
      "type": "function"
    },
    {
      "constant": false,
      "inputs": [
        {
          "internalType": "string",
          "name": "ipfsDataAddress",
          "type": "string"
        }
      ],
      "name": "proposeEnd",
      "outputs": [],
      "payable": false,
      "stateMutability": "nonpayable",
      "type": "function"
    },
    {
      "constant": false,
      "inputs": [
        {
          "internalType": "string",
          "name": "ipfsDataAddress",
          "type": "string"
        },
        {
          "internalType": "string",
          "name": "ipfsSolutionAddress",
          "type": "string"
        }
      ],
      "name": "solutionCreate",
      "outputs": [],
      "payable": false,
      "stateMutability": "nonpayable",
      "type": "function"
    },
    {
      "constant": false,
      "inputs": [
        {
          "internalType": "string",
          "name": "ipfsDataAddress",
          "type": "string"
        },
        {
          "internalType": "string",
          "name": "ipfsSolutionAddress",
          "type": "string"
        }
      ],
      "name": "solutionUpdate",
      "outputs": [],
      "payable": false,
      "stateMutability": "nonpayable",
      "type": "function"
    },
    {
      "constant": false,
      "inputs": [
        {
          "internalType": "string",
          "name": "ipfsDataAddress",
          "type": "string"
        }
      ],
      "name": "withdraw",
      "outputs": [],
      "payable": false,
      "stateMutability": "nonpayable",
      "type": "function"
    },
    {
      "constant": true,
      "inputs": [],
      "name": "getProposalCount",
      "outputs": [
        {
          "internalType": "uint256",
          "name": "",
          "type": "uint256"
        }
      ],
      "payable": false,
      "stateMutability": "view",
      "type": "function"
    },
    {
      "constant": true,
      "inputs": [
        {
          "internalType": "string",
          "name": "ipfsDataAddress",
          "type": "string"
        }
      ],
      "name": "getProposalSolutionCount",
      "outputs": [
        {
          "internalType": "uint256",
          "name": "",
          "type": "uint256"
        }
      ],
      "payable": false,
      "stateMutability": "view",
      "type": "function"
    },
    {
      "constant": true,
      "inputs": [
        {
          "internalType": "string",
          "name": "ipfsDataAddress",
          "type": "string"
        },
        {
          "internalType": "uint256",
          "name": "index",
          "type": "uint256"
        }
      ],
      "name": "getProposalSolution",
      "outputs": [
        {
          "internalType": "string",
          "name": "",
          "type": "string"
        }
      ],
      "payable": false,
      "stateMutability": "view",
      "type": "function"
    }
  ],
  "bytecode": "0x60806040526040518060400160405280600e81526020017f48656c6c6f20576f726c64212121000000000000000000000000000000000000815250600190805190602001906200005192919062000066565b503480156200005f57600080fd5b5062000115565b828054600181600116156101000203166002900490600052602060002090601f016020900481019282601f10620000a957805160ff1916838001178555620000da565b82800160010185558215620000da579182015b82811115620000d9578251825591602001919060010190620000bc565b5b509050620000e99190620000ed565b5090565b6200011291905b808211156200010e576000816000905550600101620000f4565b5090565b90565b61201d80620001256000396000f3fe6080604052600436106100c25760003560e01c8063c6311e3f1161007f578063df39cc6611610059578063df39cc66146106f2578063df812cc214610851578063f0460a6e14610919578063ffa0d2a414610a78576100c2565b8063c6311e3f14610463578063ce6d41de14610517578063dcdc04ce146105a7576100c2565b8063061ee931146100c75780632eef39cc1461018257806331fb67c21461025e57806356ac3a65146103265780635ebaf1db146103e1578063c08cc02d14610438575b600080fd5b610180600480360360208110156100dd57600080fd5b81019080803590602001906401000000008111156100fa57600080fd5b82018360208201111561010c57600080fd5b8035906020019184600183028401116401000000008311171561012e57600080fd5b91908080601f016020809104026020016040519081016040528093929190818152602001838380828437600081840152601f19601f820116905080830192505050505050509192919290505050610b87565b005b34801561018e57600080fd5b50610248600480360360208110156101a557600080fd5b81019080803590602001906401000000008111156101c257600080fd5b8201836020820111156101d457600080fd5b803590602001918460018302840111640100000000831117156101f657600080fd5b91908080601f016020809104026020016040519081016040528093929190818152602001838380828437600081840152601f19601f820116905080830192505050505050509192919290505050610da1565b6040518082815260200191505060405180910390f35b34801561026a57600080fd5b506103246004803603602081101561028157600080fd5b810190808035906020019064010000000081111561029e57600080fd5b8201836020820111156102b057600080fd5b803590602001918460018302840111640100000000831117156102d257600080fd5b91908080601f016020809104026020016040519081016040528093929190818152602001838380828437600081840152601f19601f820116905080830192505050505050509192919290505050610e1a565b005b6103df6004803603602081101561033c57600080fd5b810190808035906020019064010000000081111561035957600080fd5b82018360208201111561036b57600080fd5b8035906020019184600183028401116401000000008311171561038d57600080fd5b91908080601f016020809104026020016040519081016040528093929190818152602001838380828437600081840152601f19601f820116905080830192505050505050509192919290505050610fc8565b005b3480156103ed57600080fd5b506103f6611325565b604051808273ffffffffffffffffffffffffffffffffffffffff1673ffffffffffffffffffffffffffffffffffffffff16815260200191505060405180910390f35b34801561044457600080fd5b5061044d61134a565b6040518082815260200191505060405180910390f35b34801561046f57600080fd5b5061049c6004803603602081101561048657600080fd5b8101908080359060200190929190505050611357565b6040518080602001828103825283818151815260200191508051906020019080838360005b838110156104dc5780820151818401526020810190506104c1565b50505050905090810190601f1680156105095780820380516001836020036101000a031916815260200191505b509250505060405180910390f35b34801561052357600080fd5b5061052c611410565b6040518080602001828103825283818151815260200191508051906020019080838360005b8381101561056c578082015181840152602081019050610551565b50505050905090810190601f1680156105995780820380516001836020036101000a031916815260200191505b509250505060405180910390f35b3480156105b357600080fd5b50610677600480360360408110156105ca57600080fd5b81019080803590602001906401000000008111156105e757600080fd5b8201836020820111156105f957600080fd5b8035906020019184600183028401116401000000008311171561061b57600080fd5b91908080601f016020809104026020016040519081016040528093929190818152602001838380828437600081840152601f19601f820116905080830192505050505050509192919290803590602001909291905050506114b2565b6040518080602001828103825283818151815260200191508051906020019080838360005b838110156106b757808201518184015260208101905061069c565b50505050905090810190601f1680156106e45780820380516001836020036101000a031916815260200191505b509250505060405180910390f35b3480156106fe57600080fd5b5061084f6004803603604081101561071557600080fd5b810190808035906020019064010000000081111561073257600080fd5b82018360208201111561074457600080fd5b8035906020019184600183028401116401000000008311171561076657600080fd5b91908080601f016020809104026020016040519081016040528093929190818152602001838380828437600081840152601f19601f820116905080830192505050505050509192919290803590602001906401000000008111156107c957600080fd5b8201836020820111156107db57600080fd5b803590602001918460018302840111640100000000831117156107fd57600080fd5b91908080601f016020809104026020016040519081016040528093929190818152602001838380828437600081840152601f19601f8201169050808301925050505050505091929192905050506115dd565b005b34801561085d57600080fd5b506109176004803603602081101561087457600080fd5b810190808035906020019064010000000081111561089157600080fd5b8201836020820111156108a357600080fd5b803590602001918460018302840111640100000000831117156108c557600080fd5b91908080601f016020809104026020016040519081016040528093929190818152602001838380828437600081840152601f19601f8201169050808301925050505050505091929192905050506119ba565b005b34801561092557600080fd5b50610a766004803603604081101561093c57600080fd5b810190808035906020019064010000000081111561095957600080fd5b82018360208201111561096b57600080fd5b8035906020019184600183028401116401000000008311171561098d57600080fd5b91908080601f016020809104026020016040519081016040528093929190818152602001838380828437600081840152601f19601f820116905080830192505050505050509192919290803590602001906401000000008111156109f057600080fd5b820183602082011115610a0257600080fd5b80359060200191846001830284011164010000000083111715610a2457600080fd5b91908080601f016020809104026020016040519081016040528093929190818152602001838380828437600081840152601f19601f820116905080830192505050505050509192919290505050611ad6565b005b348015610a8457600080fd5b50610b3e60048036036020811015610a9b57600080fd5b8101908080359060200190640100000000811115610ab857600080fd5b820183602082011115610aca57600080fd5b80359060200191846001830284011164010000000083111715610aec57600080fd5b91908080601f016020809104026020016040519081016040528093929190818152602001838380828437600081840152601f19601f820116905080830192505050505050509192919290505050611d3d565b604051808373ffffffffffffffffffffffffffffffffffffffff1673ffffffffffffffffffffffffffffffffffffffff1681526020018281526020019250505060405180910390f35b60006003826040518082805190602001908083835b60208310610bbf5780518252602082019150602081019050602083039250610b9c565b6001836020036101000a03801982511681845116808217855250505050505090500191505090815260200160405180910390206001015411610c4c576040517f08c379a0000000000000000000000000000000000000000000000000000000008152600401808060200182810382526032815260200180611fb76032913960400191505060405180910390fd5b346003826040518082805190602001908083835b60208310610c835780518252602082019150602081019050602083039250610c60565b6001836020036101000a0380198251168184511680821785525050505050509050019150509081526020016040518091039020600101600082825401925050819055507f7ccfb8b27ec625d8960369ad7422c6991904dd932865d3cc2bb8d65b9c17000f333483604051808473ffffffffffffffffffffffffffffffffffffffff1673ffffffffffffffffffffffffffffffffffffffff16815260200183815260200180602001828103825283818151815260200191508051906020019080838360005b83811015610d62578082015181840152602081019050610d47565b50505050905090810190601f168015610d8f5780820380516001836020036101000a031916815260200191505b5094505050505060405180910390a150565b60006003826040518082805190602001908083835b60208310610dd95780518252602082019150602081019050602083039250610db6565b6001836020036101000a0380198251168184511680821785525050505050509050019150509081526020016040518091039020600301805490509050919050565b60006003826040518082805190602001908083835b60208310610e525780518252602082019150602081019050602083039250610e2f565b6001836020036101000a038019825116818451168082178552505050505050905001915050908152602001604051809103902060020160003373ffffffffffffffffffffffffffffffffffffffff1673ffffffffffffffffffffffffffffffffffffffff16815260200190815260200160002060000154905060006003836040518082805190602001908083835b60208310610f035780518252602082019150602081019050602083039250610ee0565b6001836020036101000a038019825116818451168082178552505050505050905001915050908152602001604051809103902060020160003373ffffffffffffffffffffffffffffffffffffffff1673ffffffffffffffffffffffffffffffffffffffff168152602001908152602001600020600001819055503373ffffffffffffffffffffffffffffffffffffffff166108fc829081150290604051600060405180830381858888f19350505050158015610fc3573d6000803e3d6000fd5b505050565b60006003826040518082805190602001908083835b602083106110005780518252602082019150602081019050602083039250610fdd565b6001836020036101000a0380198251168184511680821785525050505050509050019150509081526020016040518091039020600101541461108d576040517f08c379a000000000000000000000000000000000000000000000000000000000815260040180806020018281038252602c815260200180611eed602c913960400191505060405180910390fd5b600034116110e6576040517f08c379a000000000000000000000000000000000000000000000000000000000815260040180806020018281038252602b815260200180611f6b602b913960400191505060405180910390fd5b336003826040518082805190602001908083835b6020831061111d57805182526020820191506020810190506020830392506110fa565b6001836020036101000a038019825116818451168082178552505050505050905001915050908152602001604051809103902060000160006101000a81548173ffffffffffffffffffffffffffffffffffffffff021916908373ffffffffffffffffffffffffffffffffffffffff160217905550346003826040518082805190602001908083835b602083106111c857805182526020820191506020810190506020830392506111a5565b6001836020036101000a0380198251168184511680821785525050505050509050019150509081526020016040518091039020600101600082825401925050819055506002819080600181540180825580915050906001820390600052602060002001600090919290919091509080519060200190611248929190611dc0565b50507f9db6e12bf11e1f7aeb4a3bbaf7334db3a3ed38a7dc42e8f16530c97c54ec7124333483604051808473ffffffffffffffffffffffffffffffffffffffff1673ffffffffffffffffffffffffffffffffffffffff16815260200183815260200180602001828103825283818151815260200191508051906020019080838360005b838110156112e65780820151818401526020810190506112cb565b50505050905090810190601f1680156113135780820380516001836020036101000a031916815260200191505b5094505050505060405180910390a150565b6000809054906101000a900473ffffffffffffffffffffffffffffffffffffffff1681565b6000600280549050905090565b6002818154811061136457fe5b906000526020600020016000915090508054600181600116156101000203166002900480601f0160208091040260200160405190810160405280929190818152602001828054600181600116156101000203166002900480156114085780601f106113dd57610100808354040283529160200191611408565b820191906000526020600020905b8154815290600101906020018083116113eb57829003601f168201915b505050505081565b606060018054600181600116156101000203166002900480601f0160208091040260200160405190810160405280929190818152602001828054600181600116156101000203166002900480156114a85780601f1061147d576101008083540402835291602001916114a8565b820191906000526020600020905b81548152906001019060200180831161148b57829003601f168201915b5050505050905090565b60606003836040518082805190602001908083835b602083106114ea57805182526020820191506020810190506020830392506114c7565b6001836020036101000a0380198251168184511680821785525050505050509050019150509081526020016040518091039020600301828154811061152b57fe5b90600052602060002090600202016001018054600181600116156101000203166002900480601f0160208091040260200160405190810160405280929190818152602001828054600181600116156101000203166002900480156115d05780601f106115a5576101008083540402835291602001916115d0565b820191906000526020600020905b8154815290600101906020018083116115b357829003601f168201915b5050505050905092915050565b61172a6003836040518082805190602001908083835b6020831061161657805182526020820191506020810190506020830392506115f3565b6001836020036101000a038019825116818451168082178552505050505050905001915050908152602001604051809103902060020160003373ffffffffffffffffffffffffffffffffffffffff1673ffffffffffffffffffffffffffffffffffffffff1681526020019081526020016000206001018054600181600116156101000203166002900480601f0160208091040260200160405190810160405280929190818152602001828054600181600116156101000203166002900480156117205780601f106116f557610100808354040283529160200191611720565b820191906000526020600020905b81548152906001019060200180831161170357829003601f168201915b5050505050611d97565b15611780576040517f08c379a0000000000000000000000000000000000000000000000000000000008152600401808060200182810382526029815260200180611f196029913960400191505060405180910390fd5b806003836040518082805190602001908083835b602083106117b75780518252602082019150602081019050602083039250611794565b6001836020036101000a038019825116818451168082178552505050505050905001915050908152602001604051809103902060020160003373ffffffffffffffffffffffffffffffffffffffff1673ffffffffffffffffffffffffffffffffffffffff1681526020019081526020016000206001019080519060200190611840929190611dc0565b506003826040518082805190602001908083835b602083106118775780518252602082019150602081019050602083039250611854565b6001836020036101000a03801982511681845116808217855250505050505090500191505090815260200160405180910390206003016003836040518082805190602001908083835b602083106118e357805182526020820191506020810190506020830392506118c0565b6001836020036101000a038019825116818451168082178552505050505050905001915050908152602001604051809103902060020160003373ffffffffffffffffffffffffffffffffffffffff1673ffffffffffffffffffffffffffffffffffffffff1681526020019081526020016000209080600181540180825580915050906001820390600052602060002090600202016000909192909190915060008201548160000155600182018160010190805460018160011615610100020316600290046119b2929190611e40565b505050505050565b6003816040518082805190602001908083835b602083106119f057805182526020820191506020810190506020830392506119cd565b6001836020036101000a038019825116818451168082178552505050505050905001915050908152602001604051809103902060000160009054906101000a900473ffffffffffffffffffffffffffffffffffffffff1673ffffffffffffffffffffffffffffffffffffffff163373ffffffffffffffffffffffffffffffffffffffff1614611aca576040517f08c379a0000000000000000000000000000000000000000000000000000000008152600401808060200182810382526021815260200180611f966021913960400191505060405180910390fd5b611ad381611dbd565b50565b611c236003836040518082805190602001908083835b60208310611b0f5780518252602082019150602081019050602083039250611aec565b6001836020036101000a038019825116818451168082178552505050505050905001915050908152602001604051809103902060020160003373ffffffffffffffffffffffffffffffffffffffff1673ffffffffffffffffffffffffffffffffffffffff1681526020019081526020016000206001018054600181600116156101000203166002900480601f016020809104026020016040519081016040528092919081815260200182805460018160011615610100020316600290048015611c195780601f10611bee57610100808354040283529160200191611c19565b820191906000526020600020905b815481529060010190602001808311611bfc57829003601f168201915b5050505050611d97565b611c78576040517f08c379a0000000000000000000000000000000000000000000000000000000008152600401808060200182810382526029815260200180611f426029913960400191505060405180910390fd5b806003836040518082805190602001908083835b60208310611caf5780518252602082019150602081019050602083039250611c8c565b6001836020036101000a038019825116818451168082178552505050505050905001915050908152602001604051809103902060020160003373ffffffffffffffffffffffffffffffffffffffff1673ffffffffffffffffffffffffffffffffffffffff1681526020019081526020016000206001019080519060200190611d38929190611dc0565b505050565b6003818051602081018201805184825260208301602085012081835280955050505050506000915090508060000160009054906101000a900473ffffffffffffffffffffffffffffffffffffffff16908060010154905082565b60006060829050600081511415611db2576000915050611db8565b60019150505b919050565b50565b828054600181600116156101000203166002900490600052602060002090601f016020900481019282601f10611e0157805160ff1916838001178555611e2f565b82800160010185558215611e2f579182015b82811115611e2e578251825591602001919060010190611e13565b5b509050611e3c9190611ec7565b5090565b828054600181600116156101000203166002900490600052602060002090601f016020900481019282601f10611e795780548555611eb6565b82800160010185558215611eb657600052602060002091601f016020900482015b82811115611eb5578254825591600101919060010190611e9a565b5b509050611ec39190611ec7565b5090565b611ee991905b80821115611ee5576000816000905550600101611ecd565b5090565b9056fe546865726520697320616c726561647920612070726f706f73616c20666f72207468617420646174617365744120736f6c7574696f6e20616c72656164792065786973747320666f7220746869732073656e6465724120736f6c7574696f6e20646f6573206e6f7420657869737420666f7220746869732073656e6465724d757374207374616b6520736f6d6520616d6f756e7420746f2063726561746520612070726f706f73616c4f6e6c7920746865206f776e65722063616e20656e6420612070726f706f73616c5468657265206973206e6f7420616e206578697374696e672070726f706f73616c20666f7220746861742064617461736574a265627a7a723158201158331d9649762ca849504e70717aaff7b326ad06f7937af3e4a1eff2c5240764736f6c63430005100032",
  "source": "pragma solidity >=0.5.16;\n\ncontract ProposalContract {\n  address public staker;\n  string private message = \"Hello World!!!\";\n  struct Proposal {\n    address sender;\n    uint balance;\n    mapping (address => Solution) solutions;\n    Solution[] solutionList;\n  }\n\n  struct Solution {\n    uint reward;\n    string ipfsSolutionAddress;\n  }\n\n  string[] public proposalList;\n  mapping (string => Proposal) public proposals;\n\n  event ProposalCreated(address from, uint amount, string ipfsDataAddress);\n  event ProposalUpdated(address from, uint amount, string ipfsDataAddress);\n  event ProposalEnd(address from, uint amount, string ipfsDataAddress);\n\n  constructor() public {\n  }\n\n  function getMessage() public view returns(string memory){\n    return message;\n  }\n  function proposeCreate(string memory ipfsDataAddress) public payable {\n\n    require(proposals[ipfsDataAddress].balance == 0, \"There is already a proposal for that dataset\");\n    require(msg.value > 0, \"Must stake some amount to create a proposal\");\n    // TODO: validation on IPFS address\n\n    proposals[ipfsDataAddress].sender = msg.sender;\n    proposals[ipfsDataAddress].balance += msg.value;\n    proposalList.push(ipfsDataAddress);\n\n    // Emits the event defined earlier\n    emit ProposalCreated(msg.sender, msg.value,  ipfsDataAddress);\n  }\n\n  function proposeUpdate(string memory ipfsDataAddress) public payable {\n    require(proposals[ipfsDataAddress].balance > 0, \"There is not an existing proposal for that dataset\");\n\n    proposals[ipfsDataAddress].balance += msg.value;\n    emit ProposalUpdated(msg.sender, msg.value, ipfsDataAddress);\n  }\n\n  function proposeEnd(string memory ipfsDataAddress) public {\n    require(msg.sender == proposals[ipfsDataAddress].sender, \"Only the owner can end a proposal\");\n    _reward(ipfsDataAddress);\n  }\n\n  function solutionCreate(string memory ipfsDataAddress, string memory ipfsSolutionAddress) public {\n    // TODO: validation on IPFS address\n    // TODO: ensure bad actors cant submit same model from different addresses, or slightly tweaked model to get more rewards\n    require(!_testEmptyString(proposals[ipfsDataAddress].solutions[msg.sender].ipfsSolutionAddress), \"A solution already exists for this sender\");\n    proposals[ipfsDataAddress].solutions[msg.sender].ipfsSolutionAddress = ipfsSolutionAddress;\n    proposals[ipfsDataAddress].solutionList.push(proposals[ipfsDataAddress].solutions[msg.sender]);\n  }\n\n  function solutionUpdate(string memory ipfsDataAddress, string memory ipfsSolutionAddress) public {\n    require(_testEmptyString(proposals[ipfsDataAddress].solutions[msg.sender].ipfsSolutionAddress), \"A solution does not exist for this sender\");\n    proposals[ipfsDataAddress].solutions[msg.sender].ipfsSolutionAddress = ipfsSolutionAddress;\n  }\n\n  function withdraw(string memory ipfsDataAddress) public {\n    uint reward = proposals[ipfsDataAddress].solutions[msg.sender].reward;\n    proposals[ipfsDataAddress].solutions[msg.sender].reward = 0;\n    msg.sender.transfer(reward);\n  }\n\n  function getProposalCount() public view returns(uint) {\n    return proposalList.length;\n  }\n\n  function getProposalSolutionCount(string memory ipfsDataAddress) public view returns(uint) {\n    return proposals[ipfsDataAddress].solutionList.length;\n  }\n\n  function getProposalSolution(string memory ipfsDataAddress, uint index) public view returns(string memory) {\n    return proposals[ipfsDataAddress].solutionList[index].ipfsSolutionAddress;\n  }\n\n  function _reward(string memory ipfsDataAddress) internal {\n      // TODO: figure out entire reward system\n  }\n\n  function _testEmptyString(string memory anyString) pure internal returns(bool) {\n    bytes memory tempEmptyStringTest = bytes(anyString); // Uses memory\n    if (tempEmptyStringTest.length == 0) {\n      return false;\n    } else {\n      return true;\n    }\n  }\n}\n",
  "sourcePath": "/Users/adamwootton/Code/hackfs/contracts/ProposalContract.sol",
  "compiler": {
    "name": "solc",
    "version": "0.5.16+commit.9c3226ce.Emscripten.clang"
  },
  "schemaVersion": "3.2.3",
  "updatedAt": "2020-08-02T17:55:30.717Z",
  "networkType": "ethereum",
  "devdoc": {
    "methods": {}
  },
  "userdoc": {
    "methods": {}
  }
}