{
  "contractName": "ProposalContract",
  "abi": [
    {
      "inputs": [],
      "payable": false,
      "stateMutability": "nonpayable",
      "type": "constructor"
    },
    {
      "anonymous": false,
      "inputs": [
        {
          "indexed": false,
          "internalType": "address",
          "name": "from",
          "type": "address"
        },
        {
          "indexed": false,
          "internalType": "uint256",
          "name": "amount",
          "type": "uint256"
        },
        {
          "indexed": false,
          "internalType": "string",
          "name": "ipfsDataAddress",
          "type": "string"
        }
      ],
      "name": "ProposalCreated",
      "type": "event"
    },
    {
      "anonymous": false,
      "inputs": [
        {
          "indexed": false,
          "internalType": "address",
          "name": "from",
          "type": "address"
        },
        {
          "indexed": false,
          "internalType": "uint256",
          "name": "amount",
          "type": "uint256"
        },
        {
          "indexed": false,
          "internalType": "string",
          "name": "ipfsDataAddress",
          "type": "string"
        }
      ],
      "name": "ProposalEnd",
      "type": "event"
    },
    {
      "anonymous": false,
      "inputs": [
        {
          "indexed": false,
          "internalType": "address",
          "name": "from",
          "type": "address"
        },
        {
          "indexed": false,
          "internalType": "uint256",
          "name": "amount",
          "type": "uint256"
        },
        {
          "indexed": false,
          "internalType": "string",
          "name": "ipfsDataAddress",
          "type": "string"
        }
      ],
      "name": "ProposalUpdated",
      "type": "event"
    },
    {
      "constant": true,
      "inputs": [
        {
          "internalType": "uint256",
          "name": "",
          "type": "uint256"
        }
      ],
      "name": "proposalList",
      "outputs": [
        {
          "internalType": "string",
          "name": "",
          "type": "string"
        }
      ],
      "payable": false,
      "stateMutability": "view",
      "type": "function"
    },
    {
      "constant": true,
      "inputs": [
        {
          "internalType": "string",
          "name": "",
          "type": "string"
        }
      ],
      "name": "proposals",
      "outputs": [
        {
          "internalType": "address",
          "name": "sender",
          "type": "address"
        },
        {
          "internalType": "uint256",
          "name": "balance",
          "type": "uint256"
        },
        {
          "internalType": "uint256",
          "name": "status",
          "type": "uint256"
        },
        {
          "internalType": "uint256",
          "name": "endDateMS",
          "type": "uint256"
        }
      ],
      "payable": false,
      "stateMutability": "view",
      "type": "function"
    },
    {
      "constant": true,
      "inputs": [],
      "name": "staker",
      "outputs": [
        {
          "internalType": "address",
          "name": "",
          "type": "address"
        }
      ],
      "payable": false,
      "stateMutability": "view",
      "type": "function"
    },
    {
      "constant": true,
      "inputs": [],
      "name": "getMessage",
      "outputs": [
        {
          "internalType": "string",
          "name": "",
          "type": "string"
        }
      ],
      "payable": false,
      "stateMutability": "view",
      "type": "function"
    },
    {
      "constant": false,
      "inputs": [
        {
          "internalType": "string",
          "name": "ipfsDataAddress",
          "type": "string"
        },
        {
          "internalType": "uint256",
          "name": "endDateMS",
          "type": "uint256"
        }
      ],
      "name": "proposeCreate",
      "outputs": [],
      "payable": true,
      "stateMutability": "payable",
      "type": "function"
    },
    {
      "constant": false,
      "inputs": [
        {
          "internalType": "string",
          "name": "ipfsDataAddress",
          "type": "string"
        }
      ],
      "name": "proposeUpdate",
      "outputs": [],
      "payable": true,
      "stateMutability": "payable",
      "type": "function"
    },
    {
      "constant": false,
      "inputs": [
        {
          "internalType": "string",
          "name": "ipfsDataAddress",
          "type": "string"
        }
      ],
      "name": "proposeEnd",
      "outputs": [],
      "payable": false,
      "stateMutability": "nonpayable",
      "type": "function"
    },
    {
      "constant": false,
      "inputs": [
        {
          "internalType": "string",
          "name": "ipfsDataAddress",
          "type": "string"
        }
      ],
      "name": "proposeDateEnd",
      "outputs": [],
      "payable": false,
      "stateMutability": "nonpayable",
      "type": "function"
    },
    {
      "constant": false,
      "inputs": [
        {
          "internalType": "string",
          "name": "ipfsDataAddress",
          "type": "string"
        },
        {
          "internalType": "string",
          "name": "ipfsSolutionAddress",
          "type": "string"
        }
      ],
      "name": "solutionCreate",
      "outputs": [],
      "payable": false,
      "stateMutability": "nonpayable",
      "type": "function"
    },
    {
      "constant": false,
      "inputs": [
        {
          "internalType": "string",
          "name": "ipfsDataAddress",
          "type": "string"
        },
        {
          "internalType": "string",
          "name": "ipfsSolutionAddress",
          "type": "string"
        }
      ],
      "name": "solutionUpdate",
      "outputs": [],
      "payable": false,
      "stateMutability": "nonpayable",
      "type": "function"
    },
    {
      "constant": false,
      "inputs": [
        {
          "internalType": "string",
          "name": "ipfsDataAddress",
          "type": "string"
        },
        {
          "internalType": "uint256",
          "name": "score",
          "type": "uint256"
        }
      ],
      "name": "solutionEvaluate",
      "outputs": [],
      "payable": false,
      "stateMutability": "nonpayable",
      "type": "function"
    },
    {
      "constant": false,
      "inputs": [
        {
          "internalType": "string",
          "name": "ipfsDataAddress",
          "type": "string"
        }
      ],
      "name": "withdraw",
      "outputs": [],
      "payable": false,
      "stateMutability": "nonpayable",
      "type": "function"
    },
    {
      "constant": true,
      "inputs": [],
      "name": "getProposalCount",
      "outputs": [
        {
          "internalType": "uint256",
          "name": "",
          "type": "uint256"
        }
      ],
      "payable": false,
      "stateMutability": "view",
      "type": "function"
    },
    {
      "constant": true,
      "inputs": [
        {
          "internalType": "string",
          "name": "ipfsDataAddress",
          "type": "string"
        }
      ],
      "name": "getProposalSolutionCount",
      "outputs": [
        {
          "internalType": "uint256",
          "name": "",
          "type": "uint256"
        }
      ],
      "payable": false,
      "stateMutability": "view",
      "type": "function"
    },
    {
      "constant": true,
      "inputs": [
        {
          "internalType": "string",
          "name": "ipfsDataAddress",
          "type": "string"
        },
        {
          "internalType": "uint256",
          "name": "index",
          "type": "uint256"
        }
      ],
      "name": "getProposalSolution",
      "outputs": [
        {
          "internalType": "string",
          "name": "cid",
          "type": "string"
        },
        {
          "internalType": "uint256",
          "name": "score",
          "type": "uint256"
        }
      ],
      "payable": false,
      "stateMutability": "view",
      "type": "function"
    }
  ],
  "bytecode": "0x60806040526040518060400160405280600e81526020017f48656c6c6f20576f726c64212121000000000000000000000000000000000000815250600190805190602001906200005192919062000066565b503480156200005f57600080fd5b5062000115565b828054600181600116156101000203166002900490600052602060002090601f016020900481019282601f10620000a957805160ff1916838001178555620000da565b82800160010185558215620000da579182015b82811115620000d9578251825591602001919060010190620000bc565b5b509050620000e99190620000ed565b5090565b6200011291905b808211156200010e576000816000905550600101620000f4565b5090565b90565b6128d780620001256000396000f3fe6080604052600436106100e85760003560e01c8063c08cc02d1161008a578063df39cc6611610059578063df39cc66146108c3578063df812cc214610a22578063f0460a6e14610aea578063ffa0d2a414610c49576100e8565b8063c08cc02d14610602578063c6311e3f1461062d578063ce6d41de146106e1578063dcdc04ce14610771576100e8565b80632eef39cc116100c65780632eef39cc1461033f57806331fb67c21461041b5780633c112429146104e35780635ebaf1db146105ab576100e8565b8063061ee931146100ed57806316fe1d7b146101a8578063295a1b6f1461026d575b600080fd5b6101a66004803603602081101561010357600080fd5b810190808035906020019064010000000081111561012057600080fd5b82018360208201111561013257600080fd5b8035906020019184600183028401116401000000008311171561015457600080fd5b91908080601f016020809104026020016040519081016040528093929190818152602001838380828437600081840152601f19601f820116905080830192505050505050509192919290505050610d66565b005b61026b600480360360408110156101be57600080fd5b81019080803590602001906401000000008111156101db57600080fd5b8201836020820111156101ed57600080fd5b8035906020019184600183028401116401000000008311171561020f57600080fd5b91908080601f016020809104026020016040519081016040528093929190818152602001838380828437600081840152601f19601f82011690508083019250505050505050919291929080359060200190929190505050610f80565b005b34801561027957600080fd5b5061033d6004803603604081101561029057600080fd5b81019080803590602001906401000000008111156102ad57600080fd5b8201836020820111156102bf57600080fd5b803590602001918460018302840111640100000000831117156102e157600080fd5b91908080601f016020809104026020016040519081016040528093929190818152602001838380828437600081840152601f19601f820116905080830192505050505050509192919290803590602001909291905050506113c1565b005b34801561034b57600080fd5b506104056004803603602081101561036257600080fd5b810190808035906020019064010000000081111561037f57600080fd5b82018360208201111561039157600080fd5b803590602001918460018302840111640100000000831117156103b357600080fd5b91908080601f016020809104026020016040519081016040528093929190818152602001838380828437600081840152601f19601f820116905080830192505050505050509192919290505050611618565b6040518082815260200191505060405180910390f35b34801561042757600080fd5b506104e16004803603602081101561043e57600080fd5b810190808035906020019064010000000081111561045b57600080fd5b82018360208201111561046d57600080fd5b8035906020019184600183028401116401000000008311171561048f57600080fd5b91908080601f016020809104026020016040519081016040528093929190818152602001838380828437600081840152601f19601f820116905080830192505050505050509192919290505050611691565b005b3480156104ef57600080fd5b506105a96004803603602081101561050657600080fd5b810190808035906020019064010000000081111561052357600080fd5b82018360208201111561053557600080fd5b8035906020019184600183028401116401000000008311171561055757600080fd5b91908080601f016020809104026020016040519081016040528093929190818152602001838380828437600081840152601f19601f82011690508083019250505050505050919291929050505061183f565b005b3480156105b757600080fd5b506105c06119f5565b604051808273ffffffffffffffffffffffffffffffffffffffff1673ffffffffffffffffffffffffffffffffffffffff16815260200191505060405180910390f35b34801561060e57600080fd5b50610617611a1a565b6040518082815260200191505060405180910390f35b34801561063957600080fd5b506106666004803603602081101561065057600080fd5b8101908080359060200190929190505050611a27565b6040518080602001828103825283818151815260200191508051906020019080838360005b838110156106a657808201518184015260208101905061068b565b50505050905090810190601f1680156106d35780820380516001836020036101000a031916815260200191505b509250505060405180910390f35b3480156106ed57600080fd5b506106f6611ae0565b6040518080602001828103825283818151815260200191508051906020019080838360005b8381101561073657808201518184015260208101905061071b565b50505050905090810190601f1680156107635780820380516001836020036101000a031916815260200191505b509250505060405180910390f35b34801561077d57600080fd5b506108416004803603604081101561079457600080fd5b81019080803590602001906401000000008111156107b157600080fd5b8201836020820111156107c357600080fd5b803590602001918460018302840111640100000000831117156107e557600080fd5b91908080601f016020809104026020016040519081016040528093929190818152602001838380828437600081840152601f19601f82011690508083019250505050505050919291929080359060200190929190505050611b82565b6040518080602001838152602001828103825284818151815260200191508051906020019080838360005b8381101561088757808201518184015260208101905061086c565b50505050905090810190601f1680156108b45780820380516001836020036101000a031916815260200191505b50935050505060405180910390f35b3480156108cf57600080fd5b50610a20600480360360408110156108e657600080fd5b810190808035906020019064010000000081111561090357600080fd5b82018360208201111561091557600080fd5b8035906020019184600183028401116401000000008311171561093757600080fd5b91908080601f016020809104026020016040519081016040528093929190818152602001838380828437600081840152601f19601f8201169050808301925050505050505091929192908035906020019064010000000081111561099a57600080fd5b8201836020820111156109ac57600080fd5b803590602001918460018302840111640100000000831117156109ce57600080fd5b91908080601f016020809104026020016040519081016040528093929190818152602001838380828437600081840152601f19601f820116905080830192505050505050509192919290505050611d3e565b005b348015610a2e57600080fd5b50610ae860048036036020811015610a4557600080fd5b8101908080359060200190640100000000811115610a6257600080fd5b820183602082011115610a7457600080fd5b80359060200191846001830284011164010000000083111715610a9657600080fd5b91908080601f016020809104026020016040519081016040528093929190818152602001838380828437600081840152601f19601f8201169050808301925050505050505091929192905050506121ea565b005b348015610af657600080fd5b50610c4760048036036040811015610b0d57600080fd5b8101908080359060200190640100000000811115610b2a57600080fd5b820183602082011115610b3c57600080fd5b80359060200191846001830284011164010000000083111715610b5e57600080fd5b91908080601f016020809104026020016040519081016040528093929190818152602001838380828437600081840152601f19601f82011690508083019250505050505050919291929080359060200190640100000000811115610bc157600080fd5b820183602082011115610bd357600080fd5b80359060200191846001830284011164010000000083111715610bf557600080fd5b91908080601f016020809104026020016040519081016040528093929190818152602001838380828437600081840152601f19601f820116905080830192505050505050509192919290505050612306565b005b348015610c5557600080fd5b50610d0f60048036036020811015610c6c57600080fd5b8101908080359060200190640100000000811115610c8957600080fd5b820183602082011115610c9b57600080fd5b80359060200191846001830284011164010000000083111715610cbd57600080fd5b91908080601f016020809104026020016040519081016040528093929190818152602001838380828437600081840152601f19601f82011690508083019250505050505050919291929050505061256d565b604051808573ffffffffffffffffffffffffffffffffffffffff1673ffffffffffffffffffffffffffffffffffffffff16815260200184815260200183815260200182815260200194505050505060405180910390f35b60006003826040518082805190602001908083835b60208310610d9e5780518252602082019150602081019050602083039250610d7b565b6001836020036101000a03801982511681845116808217855250505050505090500191505090815260200160405180910390206001015411610e2b576040517f08c379a00000000000000000000000000000000000000000000000000000000081526004018080602001828103825260328152602001806128716032913960400191505060405180910390fd5b346003826040518082805190602001908083835b60208310610e625780518252602082019150602081019050602083039250610e3f565b6001836020036101000a0380198251168184511680821785525050505050509050019150509081526020016040518091039020600101600082825401925050819055507f7ccfb8b27ec625d8960369ad7422c6991904dd932865d3cc2bb8d65b9c17000f333483604051808473ffffffffffffffffffffffffffffffffffffffff1673ffffffffffffffffffffffffffffffffffffffff16815260200183815260200180602001828103825283818151815260200191508051906020019080838360005b83811015610f41578082015181840152602081019050610f26565b50505050905090810190601f168015610f6e5780820380516001836020036101000a031916815260200191505b5094505050505060405180910390a150565b60006003836040518082805190602001908083835b60208310610fb85780518252602082019150602081019050602083039250610f95565b6001836020036101000a03801982511681845116808217855250505050505090500191505090815260200160405180910390206001015414611045576040517f08c379a000000000000000000000000000000000000000000000000000000000815260040180806020018281038252602c8152602001806127a7602c913960400191505060405180910390fd5b6000341161109e576040517f08c379a000000000000000000000000000000000000000000000000000000000815260040180806020018281038252602b815260200180612825602b913960400191505060405180910390fd5b336003836040518082805190602001908083835b602083106110d557805182526020820191506020810190506020830392506110b2565b6001836020036101000a038019825116818451168082178552505050505050905001915050908152602001604051809103902060000160006101000a81548173ffffffffffffffffffffffffffffffffffffffff021916908373ffffffffffffffffffffffffffffffffffffffff160217905550346003836040518082805190602001908083835b60208310611180578051825260208201915060208101905060208303925061115d565b6001836020036101000a03801982511681845116808217855250505050505090500191505090815260200160405180910390206001016000828254019250508190555060016003836040518082805190602001908083835b602083106111fb57805182526020820191506020810190506020830392506111d8565b6001836020036101000a038019825116818451168082178552505050505050905001915050908152602001604051809103902060020181905550806003836040518082805190602001908083835b6020831061126c5780518252602082019150602081019050602083039250611249565b6001836020036101000a03801982511681845116808217855250505050505090500191505090815260200160405180910390206003018190555060028290806001815401808255809150509060018203906000526020600020016000909192909190915090805190602001906112e392919061267a565b50507f9db6e12bf11e1f7aeb4a3bbaf7334db3a3ed38a7dc42e8f16530c97c54ec7124333484604051808473ffffffffffffffffffffffffffffffffffffffff1673ffffffffffffffffffffffffffffffffffffffff16815260200183815260200180602001828103825283818151815260200191508051906020019080838360005b83811015611381578082015181840152602081019050611366565b50505050905090810190601f1680156113ae5780820380516001836020036101000a031916815260200191505b5094505050505060405180910390a15050565b61150e6003836040518082805190602001908083835b602083106113fa57805182526020820191506020810190506020830392506113d7565b6001836020036101000a038019825116818451168082178552505050505050905001915050908152602001604051809103902060040160003373ffffffffffffffffffffffffffffffffffffffff1673ffffffffffffffffffffffffffffffffffffffff1681526020019081526020016000206002018054600181600116156101000203166002900480601f0160208091040260200160405190810160405280929190818152602001828054600181600116156101000203166002900480156115045780601f106114d957610100808354040283529160200191611504565b820191906000526020600020905b8154815290600101906020018083116114e757829003601f168201915b50505050506125d3565b611563576040517f08c379a00000000000000000000000000000000000000000000000000000000081526004018080602001828103825260298152602001806127fc6029913960400191505060405180910390fd5b806003836040518082805190602001908083835b6020831061159a5780518252602082019150602081019050602083039250611577565b6001836020036101000a038019825116818451168082178552505050505050905001915050908152602001604051809103902060040160003373ffffffffffffffffffffffffffffffffffffffff1673ffffffffffffffffffffffffffffffffffffffff168152602001908152602001600020600101819055505050565b60006003826040518082805190602001908083835b60208310611650578051825260208201915060208101905060208303925061162d565b6001836020036101000a0380198251168184511680821785525050505050509050019150509081526020016040518091039020600501805490509050919050565b60006003826040518082805190602001908083835b602083106116c957805182526020820191506020810190506020830392506116a6565b6001836020036101000a038019825116818451168082178552505050505050905001915050908152602001604051809103902060040160003373ffffffffffffffffffffffffffffffffffffffff1673ffffffffffffffffffffffffffffffffffffffff16815260200190815260200160002060000154905060006003836040518082805190602001908083835b6020831061177a5780518252602082019150602081019050602083039250611757565b6001836020036101000a038019825116818451168082178552505050505050905001915050908152602001604051809103902060040160003373ffffffffffffffffffffffffffffffffffffffff1673ffffffffffffffffffffffffffffffffffffffff168152602001908152602001600020600001819055503373ffffffffffffffffffffffffffffffffffffffff166108fc829081150290604051600060405180830381858888f1935050505015801561183a573d6000803e3d6000fd5b505050565b60006003826040518082805190602001908083835b602083106118775780518252602082019150602081019050602083039250611854565b6001836020036101000a03801982511681845116808217855250505050505090500191505090815260200160405180910390206001015411611904576040517f08c379a00000000000000000000000000000000000000000000000000000000081526004018080602001828103825260328152602001806128716032913960400191505060405180910390fd5b6003816040518082805190602001908083835b6020831061193a5780518252602082019150602081019050602083039250611917565b6001836020036101000a0380198251168184511680821785525050505050509050019150509081526020016040518091039020600301546103e84202116119e9576040517f08c379a00000000000000000000000000000000000000000000000000000000081526004018080602001828103825260188152602001807f50726f706f73616c206973206e6f7420796574206f766572000000000000000081525060200191505060405180910390fd5b6119f2816125f9565b50565b6000809054906101000a900473ffffffffffffffffffffffffffffffffffffffff1681565b6000600280549050905090565b60028181548110611a3457fe5b906000526020600020016000915090508054600181600116156101000203166002900480601f016020809104026020016040519081016040528092919081815260200182805460018160011615610100020316600290048015611ad85780601f10611aad57610100808354040283529160200191611ad8565b820191906000526020600020905b815481529060010190602001808311611abb57829003601f168201915b505050505081565b606060018054600181600116156101000203166002900480601f016020809104026020016040519081016040528092919081815260200182805460018160011615610100020316600290048015611b785780601f10611b4d57610100808354040283529160200191611b78565b820191906000526020600020905b815481529060010190602001808311611b5b57829003601f168201915b5050505050905090565b606060006003846040518082805190602001908083835b60208310611bbc5780518252602082019150602081019050602083039250611b99565b6001836020036101000a03801982511681845116808217855250505050505090500191505090815260200160405180910390206005018381548110611bfd57fe5b90600052602060002090600302016002016003856040518082805190602001908083835b60208310611c445780518252602082019150602081019050602083039250611c21565b6001836020036101000a03801982511681845116808217855250505050505090500191505090815260200160405180910390206005018481548110611c8557fe5b906000526020600020906003020160010154818054600181600116156101000203166002900480601f016020809104026020016040519081016040528092919081815260200182805460018160011615610100020316600290048015611d2c5780601f10611d0157610100808354040283529160200191611d2c565b820191906000526020600020905b815481529060010190602001808311611d0f57829003601f168201915b50505050509150915091509250929050565b611e8b6003836040518082805190602001908083835b60208310611d775780518252602082019150602081019050602083039250611d54565b6001836020036101000a038019825116818451168082178552505050505050905001915050908152602001604051809103902060040160003373ffffffffffffffffffffffffffffffffffffffff1673ffffffffffffffffffffffffffffffffffffffff1681526020019081526020016000206002018054600181600116156101000203166002900480601f016020809104026020016040519081016040528092919081815260200182805460018160011615610100020316600290048015611e815780601f10611e5657610100808354040283529160200191611e81565b820191906000526020600020905b815481529060010190602001808311611e6457829003601f168201915b50505050506125d3565b15611ee1576040517f08c379a00000000000000000000000000000000000000000000000000000000081526004018080602001828103825260298152602001806127d36029913960400191505060405180910390fd5b60006003836040518082805190602001908083835b60208310611f195780518252602082019150602081019050602083039250611ef6565b6001836020036101000a03801982511681845116808217855250505050505090500191505090815260200160405180910390206001015411611fa6576040517f08c379a00000000000000000000000000000000000000000000000000000000081526004018080602001828103825260328152602001806128716032913960400191505060405180910390fd5b806003836040518082805190602001908083835b60208310611fdd5780518252602082019150602081019050602083039250611fba565b6001836020036101000a038019825116818451168082178552505050505050905001915050908152602001604051809103902060040160003373ffffffffffffffffffffffffffffffffffffffff1673ffffffffffffffffffffffffffffffffffffffff168152602001908152602001600020600201908051906020019061206692919061267a565b506003826040518082805190602001908083835b6020831061209d578051825260208201915060208101905060208303925061207a565b6001836020036101000a03801982511681845116808217855250505050505090500191505090815260200160405180910390206005016003836040518082805190602001908083835b6020831061210957805182526020820191506020810190506020830392506120e6565b6001836020036101000a038019825116818451168082178552505050505050905001915050908152602001604051809103902060040160003373ffffffffffffffffffffffffffffffffffffffff1673ffffffffffffffffffffffffffffffffffffffff168152602001908152602001600020908060018154018082558091505090600182039060005260206000209060030201600090919290919091506000820154816000015560018201548160010155600282018160020190805460018160011615610100020316600290046121e29291906126fa565b505050505050565b6003816040518082805190602001908083835b6020831061222057805182526020820191506020810190506020830392506121fd565b6001836020036101000a038019825116818451168082178552505050505050905001915050908152602001604051809103902060000160009054906101000a900473ffffffffffffffffffffffffffffffffffffffff1673ffffffffffffffffffffffffffffffffffffffff163373ffffffffffffffffffffffffffffffffffffffff16146122fa576040517f08c379a00000000000000000000000000000000000000000000000000000000081526004018080602001828103825260218152602001806128506021913960400191505060405180910390fd5b612303816125f9565b50565b6124536003836040518082805190602001908083835b6020831061233f578051825260208201915060208101905060208303925061231c565b6001836020036101000a038019825116818451168082178552505050505050905001915050908152602001604051809103902060040160003373ffffffffffffffffffffffffffffffffffffffff1673ffffffffffffffffffffffffffffffffffffffff1681526020019081526020016000206002018054600181600116156101000203166002900480601f0160208091040260200160405190810160405280929190818152602001828054600181600116156101000203166002900480156124495780601f1061241e57610100808354040283529160200191612449565b820191906000526020600020905b81548152906001019060200180831161242c57829003601f168201915b50505050506125d3565b6124a8576040517f08c379a00000000000000000000000000000000000000000000000000000000081526004018080602001828103825260298152602001806127fc6029913960400191505060405180910390fd5b806003836040518082805190602001908083835b602083106124df57805182526020820191506020810190506020830392506124bc565b6001836020036101000a038019825116818451168082178552505050505050905001915050908152602001604051809103902060040160003373ffffffffffffffffffffffffffffffffffffffff1673ffffffffffffffffffffffffffffffffffffffff168152602001908152602001600020600201908051906020019061256892919061267a565b505050565b6003818051602081018201805184825260208301602085012081835280955050505050506000915090508060000160009054906101000a900473ffffffffffffffffffffffffffffffffffffffff16908060010154908060020154908060030154905084565b600060608290506000815114156125ee5760009150506125f4565b60019150505b919050565b60006003826040518082805190602001908083835b60208310612631578051825260208201915060208101905060208303925061260e565b6001836020036101000a03801982511681845116808217855250505050505090500191505090815260200160405180910390206002018190555061267481612677565b50565b50565b828054600181600116156101000203166002900490600052602060002090601f016020900481019282601f106126bb57805160ff19168380011785556126e9565b828001600101855582156126e9579182015b828111156126e85782518255916020019190600101906126cd565b5b5090506126f69190612781565b5090565b828054600181600116156101000203166002900490600052602060002090601f016020900481019282601f106127335780548555612770565b8280016001018555821561277057600052602060002091601f016020900482015b8281111561276f578254825591600101919060010190612754565b5b50905061277d9190612781565b5090565b6127a391905b8082111561279f576000816000905550600101612787565b5090565b9056fe546865726520697320616c726561647920612070726f706f73616c20666f72207468617420646174617365744120736f6c7574696f6e20616c72656164792065786973747320666f7220746869732073656e6465724120736f6c7574696f6e20646f6573206e6f7420657869737420666f7220746869732073656e6465724d757374207374616b6520736f6d6520616d6f756e7420746f2063726561746520612070726f706f73616c4f6e6c7920746865206f776e65722063616e20656e6420612070726f706f73616c5468657265206973206e6f7420616e206578697374696e672070726f706f73616c20666f7220746861742064617461736574a265627a7a72315820f6203432e0ae9c54196b57b40f26dddae5292aba417f35c26b9442f46aab141f64736f6c63430005100032",
  "source": "pragma solidity >=0.5.16;\n\ncontract ProposalContract {\n  address public staker;\n  string private message = \"Hello World!!!\";\n\n  struct Proposal {\n    address sender;\n    uint balance;\n    uint status; // 1 = active, 0 = completed\n    uint endDateMS; // epoch date for the proposal to be ended automatically\n    mapping (address => Solution) solutions;\n    Solution[] solutionList;\n  }\n\n  struct Solution {\n    uint reward;\n    uint score;\n    string ipfsSolutionAddress;\n  }\n\n  string[] public proposalList;\n  mapping (string => Proposal) public proposals;\n\n  event ProposalCreated(address from, uint amount, string ipfsDataAddress);\n  event ProposalUpdated(address from, uint amount, string ipfsDataAddress);\n  event ProposalEnd(address from, uint amount, string ipfsDataAddress);\n\n  constructor() public {\n  }\n\n  function getMessage() public view returns(string memory){\n    return message;\n  }\n\n  function proposeCreate(string memory ipfsDataAddress, uint endDateMS) public payable {\n\n    require(proposals[ipfsDataAddress].balance == 0, \"There is already a proposal for that dataset\");\n    require(msg.value > 0, \"Must stake some amount to create a proposal\");\n    // TODO: validation on IPFS address\n\n    proposals[ipfsDataAddress].sender = msg.sender;\n    proposals[ipfsDataAddress].balance += msg.value;\n    proposals[ipfsDataAddress].status = 1;\n    proposals[ipfsDataAddress].endDateMS = endDateMS;\n\n    proposalList.push(ipfsDataAddress);\n\n    // Emits the event defined earlier\n    emit ProposalCreated(msg.sender, msg.value,  ipfsDataAddress);\n  }\n\n  function proposeUpdate(string memory ipfsDataAddress) public payable {\n    require(proposals[ipfsDataAddress].balance > 0, \"There is not an existing proposal for that dataset\");\n\n    proposals[ipfsDataAddress].balance += msg.value;\n    emit ProposalUpdated(msg.sender, msg.value, ipfsDataAddress);\n  }\n\n  function _proposeEnd(string memory ipfsDataAddress) private {\n    proposals[ipfsDataAddress].status = 0;\n    _reward(ipfsDataAddress);\n  }\n\n  function proposeEnd(string memory ipfsDataAddress) public {\n    require(msg.sender == proposals[ipfsDataAddress].sender, \"Only the owner can end a proposal\");\n    _proposeEnd(ipfsDataAddress);\n  }\n\n  function proposeDateEnd(string memory ipfsDataAddress) public {\n    require(proposals[ipfsDataAddress].balance > 0, \"There is not an existing proposal for that dataset\");\n    require(block.timestamp * 1000 > proposals[ipfsDataAddress].endDateMS, \"Proposal is not yet over\");\n    _proposeEnd(ipfsDataAddress);\n  }\n\n  function solutionCreate(string memory ipfsDataAddress, string memory ipfsSolutionAddress) public {\n    // TODO: validation on IPFS address\n    // TODO: ensure bad actors cant submit same model from different addresses, or slightly tweaked model to get more rewards\n    require(!_testEmptyString(proposals[ipfsDataAddress].solutions[msg.sender].ipfsSolutionAddress), \"A solution already exists for this sender\");\n    require(proposals[ipfsDataAddress].balance > 0, \"There is not an existing proposal for that dataset\");\n    proposals[ipfsDataAddress].solutions[msg.sender].ipfsSolutionAddress = ipfsSolutionAddress;\n    proposals[ipfsDataAddress].solutionList.push(proposals[ipfsDataAddress].solutions[msg.sender]);\n  }\n\n  function solutionUpdate(string memory ipfsDataAddress, string memory ipfsSolutionAddress) public {\n    require(_testEmptyString(proposals[ipfsDataAddress].solutions[msg.sender].ipfsSolutionAddress), \"A solution does not exist for this sender\");\n    proposals[ipfsDataAddress].solutions[msg.sender].ipfsSolutionAddress = ipfsSolutionAddress;\n  }\n\n  function solutionEvaluate(string memory ipfsDataAddress, uint score) public {\n    require(_testEmptyString(proposals[ipfsDataAddress].solutions[msg.sender].ipfsSolutionAddress), \"A solution does not exist for this sender\");\n    proposals[ipfsDataAddress].solutions[msg.sender].score = score;\n  }\n\n  function withdraw(string memory ipfsDataAddress) public {\n    uint reward = proposals[ipfsDataAddress].solutions[msg.sender].reward;\n    proposals[ipfsDataAddress].solutions[msg.sender].reward = 0;\n    msg.sender.transfer(reward);\n  }\n\n  function getProposalCount() public view returns(uint) {\n    return proposalList.length;\n  }\n\n  function getProposalSolutionCount(string memory ipfsDataAddress) public view returns(uint) {\n    return proposals[ipfsDataAddress].solutionList.length;\n  }\n\n  function getProposalSolution(string memory ipfsDataAddress, uint index) public view returns(string memory cid, uint score) {\n    return (\n      proposals[ipfsDataAddress].solutionList[index].ipfsSolutionAddress,\n      proposals[ipfsDataAddress].solutionList[index].score\n    );\n  }\n\n  function _reward(string memory ipfsDataAddress) internal {\n      // TODO: figure out entire reward system\n  }\n\n  function _testEmptyString(string memory anyString) pure internal returns(bool) {\n    bytes memory tempEmptyStringTest = bytes(anyString); // Uses memory\n    if (tempEmptyStringTest.length == 0) {\n      return false;\n    } else {\n      return true;\n    }\n  }\n}\n",
  "sourcePath": "/Users/adamwootton/Code/hackfs/contracts/ProposalContract.sol",
  "compiler": {
    "name": "solc",
    "version": "0.5.16+commit.9c3226ce.Emscripten.clang"
  },
  "schemaVersion": "3.2.3",
  "updatedAt": "2020-08-03T16:09:01.157Z",
  "networkType": "ethereum",
  "devdoc": {
    "methods": {}
  },
  "userdoc": {
    "methods": {}
  }
}