{
  "contractName": "ProposalContract",
  "abi": [
    {
      "inputs": [],
      "payable": false,
      "stateMutability": "nonpayable",
      "type": "constructor"
    },
    {
      "anonymous": false,
      "inputs": [
        {
          "indexed": false,
          "internalType": "address",
          "name": "from",
          "type": "address"
        },
        {
          "indexed": false,
          "internalType": "uint256",
          "name": "amount",
          "type": "uint256"
        },
        {
          "indexed": false,
          "internalType": "string",
          "name": "ipfsDataAddress",
          "type": "string"
        }
      ],
      "name": "ProposalCreated",
      "type": "event"
    },
    {
      "anonymous": false,
      "inputs": [
        {
          "indexed": false,
          "internalType": "address",
          "name": "from",
          "type": "address"
        },
        {
          "indexed": false,
          "internalType": "uint256",
          "name": "amount",
          "type": "uint256"
        },
        {
          "indexed": false,
          "internalType": "string",
          "name": "ipfsDataAddress",
          "type": "string"
        }
      ],
      "name": "ProposalEnd",
      "type": "event"
    },
    {
      "anonymous": false,
      "inputs": [
        {
          "indexed": false,
          "internalType": "address",
          "name": "from",
          "type": "address"
        },
        {
          "indexed": false,
          "internalType": "uint256",
          "name": "amount",
          "type": "uint256"
        },
        {
          "indexed": false,
          "internalType": "string",
          "name": "ipfsDataAddress",
          "type": "string"
        }
      ],
      "name": "ProposalUpdated",
      "type": "event"
    },
    {
      "constant": true,
      "inputs": [
        {
          "internalType": "uint256",
          "name": "",
          "type": "uint256"
        }
      ],
      "name": "proposalList",
      "outputs": [
        {
          "internalType": "string",
          "name": "",
          "type": "string"
        }
      ],
      "payable": false,
      "stateMutability": "view",
      "type": "function"
    },
    {
      "constant": true,
      "inputs": [
        {
          "internalType": "string",
          "name": "",
          "type": "string"
        }
      ],
      "name": "proposals",
      "outputs": [
        {
          "internalType": "address",
          "name": "sender",
          "type": "address"
        },
        {
          "internalType": "uint256",
          "name": "balance",
          "type": "uint256"
        },
        {
          "internalType": "uint256",
          "name": "status",
          "type": "uint256"
        },
        {
          "internalType": "uint256",
          "name": "endDateMS",
          "type": "uint256"
        }
      ],
      "payable": false,
      "stateMutability": "view",
      "type": "function"
    },
    {
      "constant": true,
      "inputs": [
        {
          "internalType": "address",
          "name": "",
          "type": "address"
        },
        {
          "internalType": "uint256",
          "name": "",
          "type": "uint256"
        }
      ],
      "name": "solutionsForAddr",
      "outputs": [
        {
          "internalType": "string",
          "name": "",
          "type": "string"
        }
      ],
      "payable": false,
      "stateMutability": "view",
      "type": "function"
    },
    {
      "constant": false,
      "inputs": [
        {
          "internalType": "string",
          "name": "ipfsDataAddress",
          "type": "string"
        },
        {
          "internalType": "uint256",
          "name": "endDateMS",
          "type": "uint256"
        }
      ],
      "name": "proposeCreate",
      "outputs": [],
      "payable": true,
      "stateMutability": "payable",
      "type": "function"
    },
    {
      "constant": false,
      "inputs": [
        {
          "internalType": "string",
          "name": "ipfsDataAddress",
          "type": "string"
        }
      ],
      "name": "proposeUpdate",
      "outputs": [],
      "payable": true,
      "stateMutability": "payable",
      "type": "function"
    },
    {
      "constant": false,
      "inputs": [
        {
          "internalType": "string",
          "name": "ipfsDataAddress",
          "type": "string"
        }
      ],
      "name": "proposeEnd",
      "outputs": [],
      "payable": false,
      "stateMutability": "nonpayable",
      "type": "function"
    },
    {
      "constant": false,
      "inputs": [
        {
          "internalType": "string",
          "name": "ipfsDataAddress",
          "type": "string"
        }
      ],
      "name": "proposeDateEnd",
      "outputs": [],
      "payable": false,
      "stateMutability": "nonpayable",
      "type": "function"
    },
    {
      "constant": false,
      "inputs": [
        {
          "internalType": "string",
          "name": "ipfsDataAddress",
          "type": "string"
        },
        {
          "internalType": "string",
          "name": "ipfsSolutionAddress",
          "type": "string"
        },
        {
          "internalType": "uint256",
          "name": "score",
          "type": "uint256"
        }
      ],
      "name": "solutionCreate",
      "outputs": [],
      "payable": false,
      "stateMutability": "nonpayable",
      "type": "function"
    },
    {
      "constant": false,
      "inputs": [
        {
          "internalType": "string",
          "name": "ipfsDataAddress",
          "type": "string"
        },
        {
          "internalType": "string",
          "name": "ipfsSolutionAddress",
          "type": "string"
        }
      ],
      "name": "solutionUpdate",
      "outputs": [],
      "payable": false,
      "stateMutability": "nonpayable",
      "type": "function"
    },
    {
      "constant": false,
      "inputs": [
        {
          "internalType": "string",
          "name": "ipfsDataAddress",
          "type": "string"
        },
        {
          "internalType": "uint256",
          "name": "score",
          "type": "uint256"
        }
      ],
      "name": "solutionEvaluate",
      "outputs": [],
      "payable": false,
      "stateMutability": "nonpayable",
      "type": "function"
    },
    {
      "constant": true,
      "inputs": [],
      "name": "getSolutionsForAddressLength",
      "outputs": [
        {
          "internalType": "uint256",
          "name": "",
          "type": "uint256"
        }
      ],
      "payable": false,
      "stateMutability": "view",
      "type": "function"
    },
    {
      "constant": false,
      "inputs": [
        {
          "internalType": "string",
          "name": "ipfsDataAddress",
          "type": "string"
        }
      ],
      "name": "withdraw",
      "outputs": [],
      "payable": false,
      "stateMutability": "nonpayable",
      "type": "function"
    },
    {
      "constant": true,
      "inputs": [],
      "name": "getProposalCount",
      "outputs": [
        {
          "internalType": "uint256",
          "name": "",
          "type": "uint256"
        }
      ],
      "payable": false,
      "stateMutability": "view",
      "type": "function"
    },
    {
      "constant": true,
      "inputs": [
        {
          "internalType": "string",
          "name": "ipfsDataAddress",
          "type": "string"
        }
      ],
      "name": "getProposalSolutionCount",
      "outputs": [
        {
          "internalType": "uint256",
          "name": "",
          "type": "uint256"
        }
      ],
      "payable": false,
      "stateMutability": "view",
      "type": "function"
    },
    {
      "constant": true,
      "inputs": [
        {
          "internalType": "string",
          "name": "ipfsDataAddress",
          "type": "string"
        },
        {
          "internalType": "uint256",
          "name": "index",
          "type": "uint256"
        }
      ],
      "name": "getProposalSolution",
      "outputs": [
        {
          "internalType": "string",
          "name": "cid",
          "type": "string"
        },
        {
          "internalType": "uint256",
          "name": "score",
          "type": "uint256"
        },
        {
          "internalType": "address",
          "name": "owner",
          "type": "address"
        }
      ],
      "payable": false,
      "stateMutability": "view",
      "type": "function"
    }
  ],
  "bytecode": "0x608060405234801561001057600080fd5b50612d1e806100206000396000f3fe6080604052600436106100e85760003560e01c80633c1124291161008a578063dcdc04ce11610059578063dcdc04ce146108f2578063df812cc214610a77578063f0460a6e14610b3f578063ffa0d2a414610c9e576100e8565b80633c112429146105e25780636aad9953146106aa578063c08cc02d14610813578063c6311e3f1461083e576100e8565b806316fe1d7b116100c657806316fe1d7b146102a7578063295a1b6f1461036c5780632eef39cc1461043e57806331fb67c21461051a576100e8565b80630258bac9146100ed578063061ee931146101c1578063168781841461027c575b600080fd5b3480156100f957600080fd5b506101466004803603604081101561011057600080fd5b81019080803573ffffffffffffffffffffffffffffffffffffffff16906020019092919080359060200190929190505050610dbb565b6040518080602001828103825283818151815260200191508051906020019080838360005b8381101561018657808201518184015260208101905061016b565b50505050905090810190601f1680156101b35780820380516001836020036101000a031916815260200191505b509250505060405180910390f35b61027a600480360360208110156101d757600080fd5b81019080803590602001906401000000008111156101f457600080fd5b82018360208201111561020657600080fd5b8035906020019184600183028401116401000000008311171561022857600080fd5b91908080601f016020809104026020016040519081016040528093929190818152602001838380828437600081840152601f19601f820116905080830192505050505050509192919290505050610e81565b005b34801561028857600080fd5b5061029161109b565b6040518082815260200191505060405180910390f35b61036a600480360360408110156102bd57600080fd5b81019080803590602001906401000000008111156102da57600080fd5b8201836020820111156102ec57600080fd5b8035906020019184600183028401116401000000008311171561030e57600080fd5b91908080601f016020809104026020016040519081016040528093929190818152602001838380828437600081840152601f19601f820116905080830192505050505050509192919290803590602001909291905050506110e5565b005b34801561037857600080fd5b5061043c6004803603604081101561038f57600080fd5b81019080803590602001906401000000008111156103ac57600080fd5b8201836020820111156103be57600080fd5b803590602001918460018302840111640100000000831117156103e057600080fd5b91908080601f016020809104026020016040519081016040528093929190818152602001838380828437600081840152601f19601f82011690508083019250505050505050919291929080359060200190929190505050611525565b005b34801561044a57600080fd5b506105046004803603602081101561046157600080fd5b810190808035906020019064010000000081111561047e57600080fd5b82018360208201111561049057600080fd5b803590602001918460018302840111640100000000831117156104b257600080fd5b91908080601f016020809104026020016040519081016040528093929190818152602001838380828437600081840152601f19601f82011690508083019250505050505050919291929050505061177c565b6040518082815260200191505060405180910390f35b34801561052657600080fd5b506105e06004803603602081101561053d57600080fd5b810190808035906020019064010000000081111561055a57600080fd5b82018360208201111561056c57600080fd5b8035906020019184600183028401116401000000008311171561058e57600080fd5b91908080601f016020809104026020016040519081016040528093929190818152602001838380828437600081840152601f19601f8201169050808301925050505050505091929192905050506117f5565b005b3480156105ee57600080fd5b506106a86004803603602081101561060557600080fd5b810190808035906020019064010000000081111561062257600080fd5b82018360208201111561063457600080fd5b8035906020019184600183028401116401000000008311171561065657600080fd5b91908080601f016020809104026020016040519081016040528093929190818152602001838380828437600081840152601f19601f8201169050808301925050505050505091929192905050506119a3565b005b3480156106b657600080fd5b50610811600480360360608110156106cd57600080fd5b81019080803590602001906401000000008111156106ea57600080fd5b8201836020820111156106fc57600080fd5b8035906020019184600183028401116401000000008311171561071e57600080fd5b91908080601f016020809104026020016040519081016040528093929190818152602001838380828437600081840152601f19601f8201169050808301925050505050505091929192908035906020019064010000000081111561078157600080fd5b82018360208201111561079357600080fd5b803590602001918460018302840111640100000000831117156107b557600080fd5b91908080601f016020809104026020016040519081016040528093929190818152602001838380828437600081840152601f19601f82011690508083019250505050505050919291929080359060200190929190505050611b59565b005b34801561081f57600080fd5b506108286122e9565b6040518082815260200191505060405180910390f35b34801561084a57600080fd5b506108776004803603602081101561086157600080fd5b81019080803590602001909291905050506122f5565b6040518080602001828103825283818151815260200191508051906020019080838360005b838110156108b757808201518184015260208101905061089c565b50505050905090810190601f1680156108e45780820380516001836020036101000a031916815260200191505b509250505060405180910390f35b3480156108fe57600080fd5b506109c26004803603604081101561091557600080fd5b810190808035906020019064010000000081111561093257600080fd5b82018360208201111561094457600080fd5b8035906020019184600183028401116401000000008311171561096657600080fd5b91908080601f016020809104026020016040519081016040528093929190818152602001838380828437600081840152601f19601f820116905080830192505050505050509192919290803590602001909291905050506123ae565b60405180806020018481526020018373ffffffffffffffffffffffffffffffffffffffff1673ffffffffffffffffffffffffffffffffffffffff168152602001828103825285818151815260200191508051906020019080838360005b83811015610a3a578082015181840152602081019050610a1f565b50505050905090810190601f168015610a675780820380516001836020036101000a031916815260200191505b5094505050505060405180910390f35b348015610a8357600080fd5b50610b3d60048036036020811015610a9a57600080fd5b8101908080359060200190640100000000811115610ab757600080fd5b820183602082011115610ac957600080fd5b80359060200191846001830284011164010000000083111715610aeb57600080fd5b91908080601f016020809104026020016040519081016040528093929190818152602001838380828437600081840152601f19601f820116905080830192505050505050509192919290505050612619565b005b348015610b4b57600080fd5b50610c9c60048036036040811015610b6257600080fd5b8101908080359060200190640100000000811115610b7f57600080fd5b820183602082011115610b9157600080fd5b80359060200191846001830284011164010000000083111715610bb357600080fd5b91908080601f016020809104026020016040519081016040528093929190818152602001838380828437600081840152601f19601f82011690508083019250505050505050919291929080359060200190640100000000811115610c1657600080fd5b820183602082011115610c2857600080fd5b80359060200191846001830284011164010000000083111715610c4a57600080fd5b91908080601f016020809104026020016040519081016040528093929190818152602001838380828437600081840152601f19601f820116905080830192505050505050509192919290505050612735565b005b348015610caa57600080fd5b50610d6460048036036020811015610cc157600080fd5b8101908080359060200190640100000000811115610cde57600080fd5b820183602082011115610cf057600080fd5b80359060200191846001830284011164010000000083111715610d1257600080fd5b91908080601f016020809104026020016040519081016040528093929190818152602001838380828437600081840152601f19601f82011690508083019250505050505050919291929050505061299c565b604051808573ffffffffffffffffffffffffffffffffffffffff1673ffffffffffffffffffffffffffffffffffffffff16815260200184815260200183815260200182815260200194505050505060405180910390f35b60026020528160005260406000208181548110610dd457fe5b90600052602060002001600091509150508054600181600116156101000203166002900480601f016020809104026020016040519081016040528092919081815260200182805460018160011615610100020316600290048015610e795780601f10610e4e57610100808354040283529160200191610e79565b820191906000526020600020905b815481529060010190602001808311610e5c57829003601f168201915b505050505081565b60006001826040518082805190602001908083835b60208310610eb95780518252602082019150602081019050602083039250610e96565b6001836020036101000a03801982511681845116808217855250505050505090500191505090815260200160405180910390206001015411610f46576040517f08c379a0000000000000000000000000000000000000000000000000000000008152600401808060200182810382526032815260200180612cb86032913960400191505060405180910390fd5b346001826040518082805190602001908083835b60208310610f7d5780518252602082019150602081019050602083039250610f5a565b6001836020036101000a0380198251168184511680821785525050505050509050019150509081526020016040518091039020600101600082825401925050819055507f7ccfb8b27ec625d8960369ad7422c6991904dd932865d3cc2bb8d65b9c17000f333483604051808473ffffffffffffffffffffffffffffffffffffffff1673ffffffffffffffffffffffffffffffffffffffff16815260200183815260200180602001828103825283818151815260200191508051906020019080838360005b8381101561105c578082015181840152602081019050611041565b50505050905090810190601f1680156110895780820380516001836020036101000a031916815260200191505b5094505050505060405180910390a150565b6000600260003373ffffffffffffffffffffffffffffffffffffffff1673ffffffffffffffffffffffffffffffffffffffff16815260200190815260200160002080549050905090565b60006001836040518082805190602001908083835b6020831061111d57805182526020820191506020810190506020830392506110fa565b6001836020036101000a038019825116818451168082178552505050505050905001915050908152602001604051809103902060010154146111aa576040517f08c379a000000000000000000000000000000000000000000000000000000000815260040180806020018281038252602c815260200180612bca602c913960400191505060405180910390fd5b60003411611203576040517f08c379a000000000000000000000000000000000000000000000000000000000815260040180806020018281038252602b815260200180612c6c602b913960400191505060405180910390fd5b336001836040518082805190602001908083835b6020831061123a5780518252602082019150602081019050602083039250611217565b6001836020036101000a038019825116818451168082178552505050505050905001915050908152602001604051809103902060000160006101000a81548173ffffffffffffffffffffffffffffffffffffffff021916908373ffffffffffffffffffffffffffffffffffffffff160217905550346001836040518082805190602001908083835b602083106112e557805182526020820191506020810190506020830392506112c2565b6001836020036101000a038019825116818451168082178552505050505050905001915050908152602001604051809103902060010160008282540192505081905550600180836040518082805190602001908083835b6020831061135f578051825260208201915060208101905060208303925061133c565b6001836020036101000a038019825116818451168082178552505050505050905001915050908152602001604051809103902060020181905550806001836040518082805190602001908083835b602083106113d057805182526020820191506020810190506020830392506113ad565b6001836020036101000a0380198251168184511680821785525050505050509050019150509081526020016040518091039020600301819055506000829080600181540180825580915050906001820390600052602060002001600090919290919091509080519060200190611447929190612a9d565b50507f9db6e12bf11e1f7aeb4a3bbaf7334db3a3ed38a7dc42e8f16530c97c54ec7124333484604051808473ffffffffffffffffffffffffffffffffffffffff1673ffffffffffffffffffffffffffffffffffffffff16815260200183815260200180602001828103825283818151815260200191508051906020019080838360005b838110156114e55780820151818401526020810190506114ca565b50505050905090810190601f1680156115125780820380516001836020036101000a031916815260200191505b5094505050505060405180910390a15050565b6116726001836040518082805190602001908083835b6020831061155e578051825260208201915060208101905060208303925061153b565b6001836020036101000a038019825116818451168082178552505050505050905001915050908152602001604051809103902060040160003373ffffffffffffffffffffffffffffffffffffffff1673ffffffffffffffffffffffffffffffffffffffff1681526020019081526020016000206003018054600181600116156101000203166002900480601f0160208091040260200160405190810160405280929190818152602001828054600181600116156101000203166002900480156116685780601f1061163d57610100808354040283529160200191611668565b820191906000526020600020905b81548152906001019060200180831161164b57829003601f168201915b5050505050612a02565b6116c7576040517f08c379a0000000000000000000000000000000000000000000000000000000008152600401808060200182810382526029815260200180612c436029913960400191505060405180910390fd5b806001836040518082805190602001908083835b602083106116fe57805182526020820191506020810190506020830392506116db565b6001836020036101000a038019825116818451168082178552505050505050905001915050908152602001604051809103902060040160003373ffffffffffffffffffffffffffffffffffffffff1673ffffffffffffffffffffffffffffffffffffffff168152602001908152602001600020600101819055505050565b60006001826040518082805190602001908083835b602083106117b45780518252602082019150602081019050602083039250611791565b6001836020036101000a0380198251168184511680821785525050505050509050019150509081526020016040518091039020600501805490509050919050565b60006001826040518082805190602001908083835b6020831061182d578051825260208201915060208101905060208303925061180a565b6001836020036101000a038019825116818451168082178552505050505050905001915050908152602001604051809103902060040160003373ffffffffffffffffffffffffffffffffffffffff1673ffffffffffffffffffffffffffffffffffffffff16815260200190815260200160002060000154905060006001836040518082805190602001908083835b602083106118de57805182526020820191506020810190506020830392506118bb565b6001836020036101000a038019825116818451168082178552505050505050905001915050908152602001604051809103902060040160003373ffffffffffffffffffffffffffffffffffffffff1673ffffffffffffffffffffffffffffffffffffffff168152602001908152602001600020600001819055503373ffffffffffffffffffffffffffffffffffffffff166108fc829081150290604051600060405180830381858888f1935050505015801561199e573d6000803e3d6000fd5b505050565b60006001826040518082805190602001908083835b602083106119db57805182526020820191506020810190506020830392506119b8565b6001836020036101000a03801982511681845116808217855250505050505090500191505090815260200160405180910390206001015411611a68576040517f08c379a0000000000000000000000000000000000000000000000000000000008152600401808060200182810382526032815260200180612cb86032913960400191505060405180910390fd5b6001816040518082805190602001908083835b60208310611a9e5780518252602082019150602081019050602083039250611a7b565b6001836020036101000a0380198251168184511680821785525050505050509050019150509081526020016040518091039020600301546103e8420211611b4d576040517f08c379a00000000000000000000000000000000000000000000000000000000081526004018080602001828103825260188152602001807f50726f706f73616c206973206e6f7420796574206f766572000000000000000081525060200191505060405180910390fd5b611b5681612a28565b50565b611ca66001846040518082805190602001908083835b60208310611b925780518252602082019150602081019050602083039250611b6f565b6001836020036101000a038019825116818451168082178552505050505050905001915050908152602001604051809103902060040160003373ffffffffffffffffffffffffffffffffffffffff1673ffffffffffffffffffffffffffffffffffffffff1681526020019081526020016000206003018054600181600116156101000203166002900480601f016020809104026020016040519081016040528092919081815260200182805460018160011615610100020316600290048015611c9c5780601f10611c7157610100808354040283529160200191611c9c565b820191906000526020600020905b815481529060010190602001808311611c7f57829003601f168201915b5050505050612a02565b15611cfc576040517f08c379a0000000000000000000000000000000000000000000000000000000008152600401808060200182810382526029815260200180612c1a6029913960400191505060405180910390fd5b60006001846040518082805190602001908083835b60208310611d345780518252602082019150602081019050602083039250611d11565b6001836020036101000a03801982511681845116808217855250505050505090500191505090815260200160405180910390206001015411611dc1576040517f08c379a0000000000000000000000000000000000000000000000000000000008152600401808060200182810382526032815260200180612cb86032913960400191505060405180910390fd5b6064811115611e1b576040517f08c379a0000000000000000000000000000000000000000000000000000000008152600401808060200182810382526024815260200180612bf66024913960400191505060405180910390fd5b816001846040518082805190602001908083835b60208310611e525780518252602082019150602081019050602083039250611e2f565b6001836020036101000a038019825116818451168082178552505050505050905001915050908152602001604051809103902060040160003373ffffffffffffffffffffffffffffffffffffffff1673ffffffffffffffffffffffffffffffffffffffff1681526020019081526020016000206003019080519060200190611edb929190612a9d565b50336001846040518082805190602001908083835b60208310611f135780518252602082019150602081019050602083039250611ef0565b6001836020036101000a038019825116818451168082178552505050505050905001915050908152602001604051809103902060040160003373ffffffffffffffffffffffffffffffffffffffff1673ffffffffffffffffffffffffffffffffffffffff16815260200190815260200160002060040160006101000a81548173ffffffffffffffffffffffffffffffffffffffff021916908373ffffffffffffffffffffffffffffffffffffffff160217905550806001846040518082805190602001908083835b60208310611ffe5780518252602082019150602081019050602083039250611fdb565b6001836020036101000a038019825116818451168082178552505050505050905001915050908152602001604051809103902060040160003373ffffffffffffffffffffffffffffffffffffffff1673ffffffffffffffffffffffffffffffffffffffff168152602001908152602001600020600101819055506001836040518082805190602001908083835b602083106120ae578051825260208201915060208101905060208303925061208b565b6001836020036101000a03801982511681845116808217855250505050505090500191505090815260200160405180910390206005016001846040518082805190602001908083835b6020831061211a57805182526020820191506020810190506020830392506120f7565b6001836020036101000a038019825116818451168082178552505050505050905001915050908152602001604051809103902060040160003373ffffffffffffffffffffffffffffffffffffffff1673ffffffffffffffffffffffffffffffffffffffff16815260200190815260200160002090806001815401808255809150509060018203906000526020600020906005020160009091929091909150600082015481600001556001820154816001015560028201548160020155600382018160030190805460018160011615610100020316600290046121fd929190612b1d565b506004820160009054906101000a900473ffffffffffffffffffffffffffffffffffffffff168160040160006101000a81548173ffffffffffffffffffffffffffffffffffffffff021916908373ffffffffffffffffffffffffffffffffffffffff160217905550505050600260003373ffffffffffffffffffffffffffffffffffffffff1673ffffffffffffffffffffffffffffffffffffffff1681526020019081526020016000208390806001815401808255809150509060018203906000526020600020016000909192909190915090805190602001906122e2929190612a9d565b5050505050565b60008080549050905090565b6000818154811061230257fe5b906000526020600020016000915090508054600181600116156101000203166002900480601f0160208091040260200160405190810160405280929190818152602001828054600181600116156101000203166002900480156123a65780601f1061237b576101008083540402835291602001916123a6565b820191906000526020600020905b81548152906001019060200180831161238957829003601f168201915b505050505081565b60606000806001856040518082805190602001908083835b602083106123e957805182526020820191506020810190506020830392506123c6565b6001836020036101000a0380198251168184511680821785525050505050509050019150509081526020016040518091039020600501848154811061242a57fe5b90600052602060002090600502016003016001866040518082805190602001908083835b60208310612471578051825260208201915060208101905060208303925061244e565b6001836020036101000a038019825116818451168082178552505050505050905001915050908152602001604051809103902060050185815481106124b257fe5b9060005260206000209060050201600101546001876040518082805190602001908083835b602083106124fa57805182526020820191506020810190506020830392506124d7565b6001836020036101000a0380198251168184511680821785525050505050509050019150509081526020016040518091039020600501868154811061253b57fe5b906000526020600020906005020160040160009054906101000a900473ffffffffffffffffffffffffffffffffffffffff16828054600181600116156101000203166002900480601f0160208091040260200160405190810160405280929190818152602001828054600181600116156101000203166002900480156126025780601f106125d757610100808354040283529160200191612602565b820191906000526020600020905b8154815290600101906020018083116125e557829003601f168201915b505050505092508090509250925092509250925092565b6001816040518082805190602001908083835b6020831061264f578051825260208201915060208101905060208303925061262c565b6001836020036101000a038019825116818451168082178552505050505050905001915050908152602001604051809103902060000160009054906101000a900473ffffffffffffffffffffffffffffffffffffffff1673ffffffffffffffffffffffffffffffffffffffff163373ffffffffffffffffffffffffffffffffffffffff1614612729576040517f08c379a0000000000000000000000000000000000000000000000000000000008152600401808060200182810382526021815260200180612c976021913960400191505060405180910390fd5b61273281612a28565b50565b6128826001836040518082805190602001908083835b6020831061276e578051825260208201915060208101905060208303925061274b565b6001836020036101000a038019825116818451168082178552505050505050905001915050908152602001604051809103902060040160003373ffffffffffffffffffffffffffffffffffffffff1673ffffffffffffffffffffffffffffffffffffffff1681526020019081526020016000206003018054600181600116156101000203166002900480601f0160208091040260200160405190810160405280929190818152602001828054600181600116156101000203166002900480156128785780601f1061284d57610100808354040283529160200191612878565b820191906000526020600020905b81548152906001019060200180831161285b57829003601f168201915b5050505050612a02565b6128d7576040517f08c379a0000000000000000000000000000000000000000000000000000000008152600401808060200182810382526029815260200180612c436029913960400191505060405180910390fd5b806001836040518082805190602001908083835b6020831061290e57805182526020820191506020810190506020830392506128eb565b6001836020036101000a038019825116818451168082178552505050505050905001915050908152602001604051809103902060040160003373ffffffffffffffffffffffffffffffffffffffff1673ffffffffffffffffffffffffffffffffffffffff1681526020019081526020016000206003019080519060200190612997929190612a9d565b505050565b6001818051602081018201805184825260208301602085012081835280955050505050506000915090508060000160009054906101000a900473ffffffffffffffffffffffffffffffffffffffff16908060010154908060020154908060030154905084565b60006060829050600081511415612a1d576000915050612a23565b60019150505b919050565b60006001826040518082805190602001908083835b60208310612a605780518252602082019150602081019050602083039250612a3d565b6001836020036101000a03801982511681845116808217855250505050505090500191505090815260200160405180910390206002018190555050565b828054600181600116156101000203166002900490600052602060002090601f016020900481019282601f10612ade57805160ff1916838001178555612b0c565b82800160010185558215612b0c579182015b82811115612b0b578251825591602001919060010190612af0565b5b509050612b199190612ba4565b5090565b828054600181600116156101000203166002900490600052602060002090601f016020900481019282601f10612b565780548555612b93565b82800160010185558215612b9357600052602060002091601f016020900482015b82811115612b92578254825591600101919060010190612b77565b5b509050612ba09190612ba4565b5090565b612bc691905b80821115612bc2576000816000905550600101612baa565b5090565b9056fe546865726520697320616c726561647920612070726f706f73616c20666f72207468617420646174617365745468652073636f72652063616e6e6f742062652067726561746572207468616e203130304120736f6c7574696f6e20616c72656164792065786973747320666f7220746869732073656e6465724120736f6c7574696f6e20646f6573206e6f7420657869737420666f7220746869732073656e6465724d757374207374616b6520736f6d6520616d6f756e7420746f2063726561746520612070726f706f73616c4f6e6c7920746865206f776e65722063616e20656e6420612070726f706f73616c5468657265206973206e6f7420616e206578697374696e672070726f706f73616c20666f7220746861742064617461736574a265627a7a7231582078308d33659c066d075c48a7885a6f0aed737e55c1490b2f28ee8533329e225d64736f6c63430005100032",
  "source": "pragma solidity >=0.5.16;\n\ncontract ProposalContract {\n  struct Proposal {\n    address sender;\n    uint balance;\n    uint status; // 1 = active, 0 = completed\n    uint endDateMS; // epoch date for the proposal to be ended automatically\n    mapping (address => Solution) solutions;\n    Solution[] solutionList;\n  }\n\n  struct Solution {\n    uint reward;\n    uint score;\n    uint perf;\n    string ipfsSolutionAddress;\n    address payable owner;\n  }\n\n  string[] public proposalList;\n  mapping (string => Proposal) public proposals;\n  mapping (address => string[]) public solutionsForAddr;\n\n  event ProposalCreated(address from, uint amount, string ipfsDataAddress);\n  event ProposalUpdated(address from, uint amount, string ipfsDataAddress);\n  event ProposalEnd(address from, uint amount, string ipfsDataAddress);\n\n  constructor() public {\n  }\n\n  function proposeCreate(string memory ipfsDataAddress, uint endDateMS) public payable {\n\n    require(proposals[ipfsDataAddress].balance == 0, \"There is already a proposal for that dataset\");\n    require(msg.value > 0, \"Must stake some amount to create a proposal\");\n\n    proposals[ipfsDataAddress].sender = msg.sender;\n    proposals[ipfsDataAddress].balance += msg.value;\n    proposals[ipfsDataAddress].status = 1;\n    proposals[ipfsDataAddress].endDateMS = endDateMS;\n\n    proposalList.push(ipfsDataAddress);\n\n    // Emits the event defined earlier\n    emit ProposalCreated(msg.sender, msg.value,  ipfsDataAddress);\n  }\n\n  function proposeUpdate(string memory ipfsDataAddress) public payable {\n    require(proposals[ipfsDataAddress].balance > 0, \"There is not an existing proposal for that dataset\");\n\n    proposals[ipfsDataAddress].balance += msg.value;\n    emit ProposalUpdated(msg.sender, msg.value, ipfsDataAddress);\n  }\n\n  function _proposeEnd(string memory ipfsDataAddress) private {\n    proposals[ipfsDataAddress].status = 0;\n//    _reward(ipfsDataAddress);\n  }\n\n  function proposeEnd(string memory ipfsDataAddress) public {\n    require(msg.sender == proposals[ipfsDataAddress].sender, \"Only the owner can end a proposal\");\n    _proposeEnd(ipfsDataAddress);\n  }\n\n  function proposeDateEnd(string memory ipfsDataAddress) public {\n    require(proposals[ipfsDataAddress].balance > 0, \"There is not an existing proposal for that dataset\");\n    require(block.timestamp * 1000 > proposals[ipfsDataAddress].endDateMS, \"Proposal is not yet over\");\n    _proposeEnd(ipfsDataAddress);\n  }\n\n  function solutionCreate(string memory ipfsDataAddress, string memory ipfsSolutionAddress, uint score) public {\n    // TODO: validation on IPFS address\n    // TODO: ensure bad actors cant submit same model from different addresses, or slightly tweaked model to get more rewards\n    require(!_testEmptyString(proposals[ipfsDataAddress].solutions[msg.sender].ipfsSolutionAddress), \"A solution already exists for this sender\");\n    require(proposals[ipfsDataAddress].balance > 0, \"There is not an existing proposal for that dataset\");\n    require(score <= 100, \"The score cannot be greater than 100\");\n\n    proposals[ipfsDataAddress].solutions[msg.sender].ipfsSolutionAddress = ipfsSolutionAddress;\n    proposals[ipfsDataAddress].solutions[msg.sender].owner = msg.sender;\n    proposals[ipfsDataAddress].solutions[msg.sender].score = score;\n    proposals[ipfsDataAddress].solutionList.push(proposals[ipfsDataAddress].solutions[msg.sender]);\n    solutionsForAddr[msg.sender].push(ipfsDataAddress);\n  }\n\n  function solutionUpdate(string memory ipfsDataAddress, string memory ipfsSolutionAddress) public {\n    require(_testEmptyString(proposals[ipfsDataAddress].solutions[msg.sender].ipfsSolutionAddress), \"A solution does not exist for this sender\");\n    proposals[ipfsDataAddress].solutions[msg.sender].ipfsSolutionAddress = ipfsSolutionAddress;\n  }\n\n  function solutionEvaluate(string memory ipfsDataAddress, uint score) public {\n    require(_testEmptyString(proposals[ipfsDataAddress].solutions[msg.sender].ipfsSolutionAddress), \"A solution does not exist for this sender\");\n    proposals[ipfsDataAddress].solutions[msg.sender].score = score;\n  }\n\n  function getSolutionsForAddressLength() public view returns(uint) {\n    return solutionsForAddr[msg.sender].length;\n  }\n\n  function withdraw(string memory ipfsDataAddress) public {\n    uint reward = proposals[ipfsDataAddress].solutions[msg.sender].reward;\n    proposals[ipfsDataAddress].solutions[msg.sender].reward = 0;\n    msg.sender.transfer(reward);\n  }\n\n  function getProposalCount() public view returns(uint) {\n    return proposalList.length;\n  }\n\n  function getProposalSolutionCount(string memory ipfsDataAddress) public view returns(uint) {\n    return proposals[ipfsDataAddress].solutionList.length;\n  }\n\n  function getProposalSolution(string memory ipfsDataAddress, uint index) public view returns(string memory cid, uint score, address owner) {\n    return (\n      proposals[ipfsDataAddress].solutionList[index].ipfsSolutionAddress,\n      proposals[ipfsDataAddress].solutionList[index].score,\n      proposals[ipfsDataAddress].solutionList[index].owner\n    );\n  }\n\n  function _reward(string memory ipfsDataAddress) internal {\n    require(proposals[ipfsDataAddress].status == 1, \"The proposal is already finished\");\n\n    uint maxScore = 0;\n    uint totalPerf = 0;\n\n    for (uint i = 0; i < proposals[ipfsDataAddress].solutionList.length; i++) {\n      if (proposals[ipfsDataAddress].solutionList[i].score > maxScore) {\n        maxScore = proposals[ipfsDataAddress].solutionList[i].score;\n      }\n    }\n\n    for (uint i = 0; i < proposals[ipfsDataAddress].solutionList.length; i++) {\n      proposals[ipfsDataAddress].solutionList[i].perf = proposals[ipfsDataAddress].solutionList[i].score * 1000 / maxScore;\n      totalPerf += proposals[ipfsDataAddress].solutionList[i].perf;\n    }\n\n    for (uint i = 0; i < proposals[ipfsDataAddress].solutionList.length; i++) {\n      uint reward = (proposals[ipfsDataAddress].solutionList[i].perf / totalPerf) * proposals[ipfsDataAddress].balance;\n      proposals[ipfsDataAddress].solutionList[i].owner.transfer(reward);\n      proposals[ipfsDataAddress].solutions[proposals[ipfsDataAddress].solutionList[i].owner].reward = reward;\n    }\n  }\n\n  function _testEmptyString(string memory anyString) pure internal returns(bool) {\n    bytes memory tempEmptyStringTest = bytes(anyString); // Uses memory\n    if (tempEmptyStringTest.length == 0) {\n      return false;\n    } else {\n      return true;\n    }\n  }\n}\n",
  "sourcePath": "/Users/adamwootton/Code/hackfs/contracts/ProposalContract.sol",
  "compiler": {
    "name": "solc",
    "version": "0.5.16+commit.9c3226ce.Emscripten.clang"
  },
  "schemaVersion": "3.2.3",
  "updatedAt": "2020-08-05T00:47:36.292Z",
  "networkType": "ethereum",
  "devdoc": {
    "methods": {}
  },
  "userdoc": {
    "methods": {}
  }
}