{
  "contractName": "ProposalContract",
  "abi": [
    {
      "inputs": [],
      "payable": false,
      "stateMutability": "nonpayable",
      "type": "constructor"
    },
    {
      "anonymous": false,
      "inputs": [
        {
          "indexed": false,
          "internalType": "address",
          "name": "from",
          "type": "address"
        },
        {
          "indexed": false,
          "internalType": "uint256",
          "name": "amount",
          "type": "uint256"
        },
        {
          "indexed": false,
          "internalType": "string",
          "name": "ipfsDataAddress",
          "type": "string"
        }
      ],
      "name": "ProposalCreated",
      "type": "event"
    },
    {
      "anonymous": false,
      "inputs": [
        {
          "indexed": false,
          "internalType": "address",
          "name": "from",
          "type": "address"
        },
        {
          "indexed": false,
          "internalType": "uint256",
          "name": "amount",
          "type": "uint256"
        },
        {
          "indexed": false,
          "internalType": "string",
          "name": "ipfsDataAddress",
          "type": "string"
        }
      ],
      "name": "ProposalEnd",
      "type": "event"
    },
    {
      "anonymous": false,
      "inputs": [
        {
          "indexed": false,
          "internalType": "address",
          "name": "from",
          "type": "address"
        },
        {
          "indexed": false,
          "internalType": "uint256",
          "name": "amount",
          "type": "uint256"
        },
        {
          "indexed": false,
          "internalType": "string",
          "name": "ipfsDataAddress",
          "type": "string"
        }
      ],
      "name": "ProposalUpdated",
      "type": "event"
    },
    {
      "constant": true,
      "inputs": [
        {
          "internalType": "uint256",
          "name": "",
          "type": "uint256"
        }
      ],
      "name": "proposalList",
      "outputs": [
        {
          "internalType": "string",
          "name": "",
          "type": "string"
        }
      ],
      "payable": false,
      "stateMutability": "view",
      "type": "function"
    },
    {
      "constant": true,
      "inputs": [
        {
          "internalType": "string",
          "name": "",
          "type": "string"
        }
      ],
      "name": "proposals",
      "outputs": [
        {
          "internalType": "address",
          "name": "sender",
          "type": "address"
        },
        {
          "internalType": "uint256",
          "name": "balance",
          "type": "uint256"
        },
        {
          "internalType": "uint256",
          "name": "status",
          "type": "uint256"
        },
        {
          "internalType": "uint256",
          "name": "endDateMS",
          "type": "uint256"
        }
      ],
      "payable": false,
      "stateMutability": "view",
      "type": "function"
    },
    {
      "constant": true,
      "inputs": [
        {
          "internalType": "address",
          "name": "",
          "type": "address"
        },
        {
          "internalType": "uint256",
          "name": "",
          "type": "uint256"
        }
      ],
      "name": "solutionsForAddr",
      "outputs": [
        {
          "internalType": "uint256",
          "name": "reward",
          "type": "uint256"
        },
        {
          "internalType": "uint256",
          "name": "score",
          "type": "uint256"
        },
        {
          "internalType": "uint256",
          "name": "perf",
          "type": "uint256"
        },
        {
          "internalType": "string",
          "name": "ipfsSolutionAddress",
          "type": "string"
        },
        {
          "internalType": "address payable",
          "name": "owner",
          "type": "address"
        }
      ],
      "payable": false,
      "stateMutability": "view",
      "type": "function"
    },
    {
      "constant": false,
      "inputs": [
        {
          "internalType": "string",
          "name": "ipfsDataAddress",
          "type": "string"
        },
        {
          "internalType": "uint256",
          "name": "endDateMS",
          "type": "uint256"
        }
      ],
      "name": "proposeCreate",
      "outputs": [],
      "payable": true,
      "stateMutability": "payable",
      "type": "function"
    },
    {
      "constant": false,
      "inputs": [
        {
          "internalType": "string",
          "name": "ipfsDataAddress",
          "type": "string"
        }
      ],
      "name": "proposeUpdate",
      "outputs": [],
      "payable": true,
      "stateMutability": "payable",
      "type": "function"
    },
    {
      "constant": false,
      "inputs": [
        {
          "internalType": "string",
          "name": "ipfsDataAddress",
          "type": "string"
        }
      ],
      "name": "proposeEnd",
      "outputs": [],
      "payable": false,
      "stateMutability": "nonpayable",
      "type": "function"
    },
    {
      "constant": false,
      "inputs": [
        {
          "internalType": "string",
          "name": "ipfsDataAddress",
          "type": "string"
        }
      ],
      "name": "proposeDateEnd",
      "outputs": [],
      "payable": false,
      "stateMutability": "nonpayable",
      "type": "function"
    },
    {
      "constant": false,
      "inputs": [
        {
          "internalType": "string",
          "name": "ipfsDataAddress",
          "type": "string"
        },
        {
          "internalType": "string",
          "name": "ipfsSolutionAddress",
          "type": "string"
        },
        {
          "internalType": "uint256",
          "name": "score",
          "type": "uint256"
        }
      ],
      "name": "solutionCreate",
      "outputs": [],
      "payable": false,
      "stateMutability": "nonpayable",
      "type": "function"
    },
    {
      "constant": false,
      "inputs": [
        {
          "internalType": "string",
          "name": "ipfsDataAddress",
          "type": "string"
        },
        {
          "internalType": "string",
          "name": "ipfsSolutionAddress",
          "type": "string"
        }
      ],
      "name": "solutionUpdate",
      "outputs": [],
      "payable": false,
      "stateMutability": "nonpayable",
      "type": "function"
    },
    {
      "constant": false,
      "inputs": [
        {
          "internalType": "string",
          "name": "ipfsDataAddress",
          "type": "string"
        },
        {
          "internalType": "uint256",
          "name": "score",
          "type": "uint256"
        }
      ],
      "name": "solutionEvaluate",
      "outputs": [],
      "payable": false,
      "stateMutability": "nonpayable",
      "type": "function"
    },
    {
      "constant": true,
      "inputs": [],
      "name": "getSolutionsForAddressLength",
      "outputs": [
        {
          "internalType": "uint256",
          "name": "",
          "type": "uint256"
        }
      ],
      "payable": false,
      "stateMutability": "view",
      "type": "function"
    },
    {
      "constant": false,
      "inputs": [
        {
          "internalType": "string",
          "name": "ipfsDataAddress",
          "type": "string"
        }
      ],
      "name": "withdraw",
      "outputs": [],
      "payable": false,
      "stateMutability": "nonpayable",
      "type": "function"
    },
    {
      "constant": true,
      "inputs": [],
      "name": "getProposalCount",
      "outputs": [
        {
          "internalType": "uint256",
          "name": "",
          "type": "uint256"
        }
      ],
      "payable": false,
      "stateMutability": "view",
      "type": "function"
    },
    {
      "constant": true,
      "inputs": [
        {
          "internalType": "string",
          "name": "ipfsDataAddress",
          "type": "string"
        }
      ],
      "name": "getProposalSolutionCount",
      "outputs": [
        {
          "internalType": "uint256",
          "name": "",
          "type": "uint256"
        }
      ],
      "payable": false,
      "stateMutability": "view",
      "type": "function"
    },
    {
      "constant": true,
      "inputs": [
        {
          "internalType": "string",
          "name": "ipfsDataAddress",
          "type": "string"
        },
        {
          "internalType": "uint256",
          "name": "index",
          "type": "uint256"
        }
      ],
      "name": "getProposalSolution",
      "outputs": [
        {
          "internalType": "string",
          "name": "cid",
          "type": "string"
        },
        {
          "internalType": "uint256",
          "name": "score",
          "type": "uint256"
        },
        {
          "internalType": "address",
          "name": "owner",
          "type": "address"
        }
      ],
      "payable": false,
      "stateMutability": "view",
      "type": "function"
    }
  ],
  "bytecode": "0x608060405234801561001057600080fd5b50612eef806100206000396000f3fe6080604052600436106100e85760003560e01c80633c1124291161008a578063dcdc04ce11610059578063dcdc04ce1461093a578063df812cc214610abf578063f0460a6e14610b87578063ffa0d2a414610ce6576100e8565b80633c1124291461062a5780636aad9953146106f2578063c08cc02d1461085b578063c6311e3f14610886576100e8565b806316fe1d7b116100c657806316fe1d7b146102ef578063295a1b6f146103b45780632eef39cc1461048657806331fb67c214610562576100e8565b80630258bac9146100ed578063061ee9311461020957806316878184146102c4575b600080fd5b3480156100f957600080fd5b506101466004803603604081101561011057600080fd5b81019080803573ffffffffffffffffffffffffffffffffffffffff16906020019092919080359060200190929190505050610e03565b60405180868152602001858152602001848152602001806020018373ffffffffffffffffffffffffffffffffffffffff1673ffffffffffffffffffffffffffffffffffffffff168152602001828103825284818151815260200191508051906020019080838360005b838110156101ca5780820151818401526020810190506101af565b50505050905090810190601f1680156101f75780820380516001836020036101000a031916815260200191505b50965050505050505060405180910390f35b6102c26004803603602081101561021f57600080fd5b810190808035906020019064010000000081111561023c57600080fd5b82018360208201111561024e57600080fd5b8035906020019184600183028401116401000000008311171561027057600080fd5b91908080601f016020809104026020016040519081016040528093929190818152602001838380828437600081840152601f19601f820116905080830192505050505050509192919290505050610f0b565b005b3480156102d057600080fd5b506102d9611125565b6040518082815260200191505060405180910390f35b6103b26004803603604081101561030557600080fd5b810190808035906020019064010000000081111561032257600080fd5b82018360208201111561033457600080fd5b8035906020019184600183028401116401000000008311171561035657600080fd5b91908080601f016020809104026020016040519081016040528093929190818152602001838380828437600081840152601f19601f8201169050808301925050505050505091929192908035906020019092919050505061116f565b005b3480156103c057600080fd5b50610484600480360360408110156103d757600080fd5b81019080803590602001906401000000008111156103f457600080fd5b82018360208201111561040657600080fd5b8035906020019184600183028401116401000000008311171561042857600080fd5b91908080601f016020809104026020016040519081016040528093929190818152602001838380828437600081840152601f19601f820116905080830192505050505050509192919290803590602001909291905050506115af565b005b34801561049257600080fd5b5061054c600480360360208110156104a957600080fd5b81019080803590602001906401000000008111156104c657600080fd5b8201836020820111156104d857600080fd5b803590602001918460018302840111640100000000831117156104fa57600080fd5b91908080601f016020809104026020016040519081016040528093929190818152602001838380828437600081840152601f19601f820116905080830192505050505050509192919290505050611806565b6040518082815260200191505060405180910390f35b34801561056e57600080fd5b506106286004803603602081101561058557600080fd5b81019080803590602001906401000000008111156105a257600080fd5b8201836020820111156105b457600080fd5b803590602001918460018302840111640100000000831117156105d657600080fd5b91908080601f016020809104026020016040519081016040528093929190818152602001838380828437600081840152601f19601f82011690508083019250505050505050919291929050505061187f565b005b34801561063657600080fd5b506106f06004803603602081101561064d57600080fd5b810190808035906020019064010000000081111561066a57600080fd5b82018360208201111561067c57600080fd5b8035906020019184600183028401116401000000008311171561069e57600080fd5b91908080601f016020809104026020016040519081016040528093929190818152602001838380828437600081840152601f19601f820116905080830192505050505050509192919290505050611a2d565b005b3480156106fe57600080fd5b506108596004803603606081101561071557600080fd5b810190808035906020019064010000000081111561073257600080fd5b82018360208201111561074457600080fd5b8035906020019184600183028401116401000000008311171561076657600080fd5b91908080601f016020809104026020016040519081016040528093929190818152602001838380828437600081840152601f19601f820116905080830192505050505050509192919290803590602001906401000000008111156107c957600080fd5b8201836020820111156107db57600080fd5b803590602001918460018302840111640100000000831117156107fd57600080fd5b91908080601f016020809104026020016040519081016040528093929190818152602001838380828437600081840152601f19601f82011690508083019250505050505050919291929080359060200190929190505050611be3565b005b34801561086757600080fd5b506108706124ba565b6040518082815260200191505060405180910390f35b34801561089257600080fd5b506108bf600480360360208110156108a957600080fd5b81019080803590602001909291905050506124c6565b6040518080602001828103825283818151815260200191508051906020019080838360005b838110156108ff5780820151818401526020810190506108e4565b50505050905090810190601f16801561092c5780820380516001836020036101000a031916815260200191505b509250505060405180910390f35b34801561094657600080fd5b50610a0a6004803603604081101561095d57600080fd5b810190808035906020019064010000000081111561097a57600080fd5b82018360208201111561098c57600080fd5b803590602001918460018302840111640100000000831117156109ae57600080fd5b91908080601f016020809104026020016040519081016040528093929190818152602001838380828437600081840152601f19601f8201169050808301925050505050505091929192908035906020019092919050505061257f565b60405180806020018481526020018373ffffffffffffffffffffffffffffffffffffffff1673ffffffffffffffffffffffffffffffffffffffff168152602001828103825285818151815260200191508051906020019080838360005b83811015610a82578082015181840152602081019050610a67565b50505050905090810190601f168015610aaf5780820380516001836020036101000a031916815260200191505b5094505050505060405180910390f35b348015610acb57600080fd5b50610b8560048036036020811015610ae257600080fd5b8101908080359060200190640100000000811115610aff57600080fd5b820183602082011115610b1157600080fd5b80359060200191846001830284011164010000000083111715610b3357600080fd5b91908080601f016020809104026020016040519081016040528093929190818152602001838380828437600081840152601f19601f8201169050808301925050505050505091929192905050506127ea565b005b348015610b9357600080fd5b50610ce460048036036040811015610baa57600080fd5b8101908080359060200190640100000000811115610bc757600080fd5b820183602082011115610bd957600080fd5b80359060200191846001830284011164010000000083111715610bfb57600080fd5b91908080601f016020809104026020016040519081016040528093929190818152602001838380828437600081840152601f19601f82011690508083019250505050505050919291929080359060200190640100000000811115610c5e57600080fd5b820183602082011115610c7057600080fd5b80359060200191846001830284011164010000000083111715610c9257600080fd5b91908080601f016020809104026020016040519081016040528093929190818152602001838380828437600081840152601f19601f820116905080830192505050505050509192919290505050612906565b005b348015610cf257600080fd5b50610dac60048036036020811015610d0957600080fd5b8101908080359060200190640100000000811115610d2657600080fd5b820183602082011115610d3857600080fd5b80359060200191846001830284011164010000000083111715610d5a57600080fd5b91908080601f016020809104026020016040519081016040528093929190818152602001838380828437600081840152601f19601f820116905080830192505050505050509192919290505050612b6d565b604051808573ffffffffffffffffffffffffffffffffffffffff1673ffffffffffffffffffffffffffffffffffffffff16815260200184815260200183815260200182815260200194505050505060405180910390f35b60026020528160005260406000208181548110610e1c57fe5b906000526020600020906005020160009150915050806000015490806001015490806002015490806003018054600181600116156101000203166002900480601f016020809104026020016040519081016040528092919081815260200182805460018160011615610100020316600290048015610edb5780601f10610eb057610100808354040283529160200191610edb565b820191906000526020600020905b815481529060010190602001808311610ebe57829003601f168201915b5050505050908060040160009054906101000a900473ffffffffffffffffffffffffffffffffffffffff16905085565b60006001826040518082805190602001908083835b60208310610f435780518252602082019150602081019050602083039250610f20565b6001836020036101000a03801982511681845116808217855250505050505090500191505090815260200160405180910390206001015411610fd0576040517f08c379a0000000000000000000000000000000000000000000000000000000008152600401808060200182810382526032815260200180612e896032913960400191505060405180910390fd5b346001826040518082805190602001908083835b602083106110075780518252602082019150602081019050602083039250610fe4565b6001836020036101000a0380198251168184511680821785525050505050509050019150509081526020016040518091039020600101600082825401925050819055507f7ccfb8b27ec625d8960369ad7422c6991904dd932865d3cc2bb8d65b9c17000f333483604051808473ffffffffffffffffffffffffffffffffffffffff1673ffffffffffffffffffffffffffffffffffffffff16815260200183815260200180602001828103825283818151815260200191508051906020019080838360005b838110156110e65780820151818401526020810190506110cb565b50505050905090810190601f1680156111135780820380516001836020036101000a031916815260200191505b5094505050505060405180910390a150565b6000600260003373ffffffffffffffffffffffffffffffffffffffff1673ffffffffffffffffffffffffffffffffffffffff16815260200190815260200160002080549050905090565b60006001836040518082805190602001908083835b602083106111a75780518252602082019150602081019050602083039250611184565b6001836020036101000a03801982511681845116808217855250505050505090500191505090815260200160405180910390206001015414611234576040517f08c379a000000000000000000000000000000000000000000000000000000000815260040180806020018281038252602c815260200180612d9b602c913960400191505060405180910390fd5b6000341161128d576040517f08c379a000000000000000000000000000000000000000000000000000000000815260040180806020018281038252602b815260200180612e3d602b913960400191505060405180910390fd5b336001836040518082805190602001908083835b602083106112c457805182526020820191506020810190506020830392506112a1565b6001836020036101000a038019825116818451168082178552505050505050905001915050908152602001604051809103902060000160006101000a81548173ffffffffffffffffffffffffffffffffffffffff021916908373ffffffffffffffffffffffffffffffffffffffff160217905550346001836040518082805190602001908083835b6020831061136f578051825260208201915060208101905060208303925061134c565b6001836020036101000a038019825116818451168082178552505050505050905001915050908152602001604051809103902060010160008282540192505081905550600180836040518082805190602001908083835b602083106113e957805182526020820191506020810190506020830392506113c6565b6001836020036101000a038019825116818451168082178552505050505050905001915050908152602001604051809103902060020181905550806001836040518082805190602001908083835b6020831061145a5780518252602082019150602081019050602083039250611437565b6001836020036101000a03801982511681845116808217855250505050505090500191505090815260200160405180910390206003018190555060008290806001815401808255809150509060018203906000526020600020016000909192909190915090805190602001906114d1929190612c6e565b50507f9db6e12bf11e1f7aeb4a3bbaf7334db3a3ed38a7dc42e8f16530c97c54ec7124333484604051808473ffffffffffffffffffffffffffffffffffffffff1673ffffffffffffffffffffffffffffffffffffffff16815260200183815260200180602001828103825283818151815260200191508051906020019080838360005b8381101561156f578082015181840152602081019050611554565b50505050905090810190601f16801561159c5780820380516001836020036101000a031916815260200191505b5094505050505060405180910390a15050565b6116fc6001836040518082805190602001908083835b602083106115e857805182526020820191506020810190506020830392506115c5565b6001836020036101000a038019825116818451168082178552505050505050905001915050908152602001604051809103902060040160003373ffffffffffffffffffffffffffffffffffffffff1673ffffffffffffffffffffffffffffffffffffffff1681526020019081526020016000206003018054600181600116156101000203166002900480601f0160208091040260200160405190810160405280929190818152602001828054600181600116156101000203166002900480156116f25780601f106116c7576101008083540402835291602001916116f2565b820191906000526020600020905b8154815290600101906020018083116116d557829003601f168201915b5050505050612bd3565b611751576040517f08c379a0000000000000000000000000000000000000000000000000000000008152600401808060200182810382526029815260200180612e146029913960400191505060405180910390fd5b806001836040518082805190602001908083835b602083106117885780518252602082019150602081019050602083039250611765565b6001836020036101000a038019825116818451168082178552505050505050905001915050908152602001604051809103902060040160003373ffffffffffffffffffffffffffffffffffffffff1673ffffffffffffffffffffffffffffffffffffffff168152602001908152602001600020600101819055505050565b60006001826040518082805190602001908083835b6020831061183e578051825260208201915060208101905060208303925061181b565b6001836020036101000a0380198251168184511680821785525050505050509050019150509081526020016040518091039020600501805490509050919050565b60006001826040518082805190602001908083835b602083106118b75780518252602082019150602081019050602083039250611894565b6001836020036101000a038019825116818451168082178552505050505050905001915050908152602001604051809103902060040160003373ffffffffffffffffffffffffffffffffffffffff1673ffffffffffffffffffffffffffffffffffffffff16815260200190815260200160002060000154905060006001836040518082805190602001908083835b602083106119685780518252602082019150602081019050602083039250611945565b6001836020036101000a038019825116818451168082178552505050505050905001915050908152602001604051809103902060040160003373ffffffffffffffffffffffffffffffffffffffff1673ffffffffffffffffffffffffffffffffffffffff168152602001908152602001600020600001819055503373ffffffffffffffffffffffffffffffffffffffff166108fc829081150290604051600060405180830381858888f19350505050158015611a28573d6000803e3d6000fd5b505050565b60006001826040518082805190602001908083835b60208310611a655780518252602082019150602081019050602083039250611a42565b6001836020036101000a03801982511681845116808217855250505050505090500191505090815260200160405180910390206001015411611af2576040517f08c379a0000000000000000000000000000000000000000000000000000000008152600401808060200182810382526032815260200180612e896032913960400191505060405180910390fd5b6001816040518082805190602001908083835b60208310611b285780518252602082019150602081019050602083039250611b05565b6001836020036101000a0380198251168184511680821785525050505050509050019150509081526020016040518091039020600301546103e8420211611bd7576040517f08c379a00000000000000000000000000000000000000000000000000000000081526004018080602001828103825260188152602001807f50726f706f73616c206973206e6f7420796574206f766572000000000000000081525060200191505060405180910390fd5b611be081612bf9565b50565b611d306001846040518082805190602001908083835b60208310611c1c5780518252602082019150602081019050602083039250611bf9565b6001836020036101000a038019825116818451168082178552505050505050905001915050908152602001604051809103902060040160003373ffffffffffffffffffffffffffffffffffffffff1673ffffffffffffffffffffffffffffffffffffffff1681526020019081526020016000206003018054600181600116156101000203166002900480601f016020809104026020016040519081016040528092919081815260200182805460018160011615610100020316600290048015611d265780601f10611cfb57610100808354040283529160200191611d26565b820191906000526020600020905b815481529060010190602001808311611d0957829003601f168201915b5050505050612bd3565b15611d86576040517f08c379a0000000000000000000000000000000000000000000000000000000008152600401808060200182810382526029815260200180612deb6029913960400191505060405180910390fd5b60006001846040518082805190602001908083835b60208310611dbe5780518252602082019150602081019050602083039250611d9b565b6001836020036101000a03801982511681845116808217855250505050505090500191505090815260200160405180910390206001015411611e4b576040517f08c379a0000000000000000000000000000000000000000000000000000000008152600401808060200182810382526032815260200180612e896032913960400191505060405180910390fd5b6064811115611ea5576040517f08c379a0000000000000000000000000000000000000000000000000000000008152600401808060200182810382526024815260200180612dc76024913960400191505060405180910390fd5b816001846040518082805190602001908083835b60208310611edc5780518252602082019150602081019050602083039250611eb9565b6001836020036101000a038019825116818451168082178552505050505050905001915050908152602001604051809103902060040160003373ffffffffffffffffffffffffffffffffffffffff1673ffffffffffffffffffffffffffffffffffffffff1681526020019081526020016000206003019080519060200190611f65929190612c6e565b50336001846040518082805190602001908083835b60208310611f9d5780518252602082019150602081019050602083039250611f7a565b6001836020036101000a038019825116818451168082178552505050505050905001915050908152602001604051809103902060040160003373ffffffffffffffffffffffffffffffffffffffff1673ffffffffffffffffffffffffffffffffffffffff16815260200190815260200160002060040160006101000a81548173ffffffffffffffffffffffffffffffffffffffff021916908373ffffffffffffffffffffffffffffffffffffffff160217905550806001846040518082805190602001908083835b602083106120885780518252602082019150602081019050602083039250612065565b6001836020036101000a038019825116818451168082178552505050505050905001915050908152602001604051809103902060040160003373ffffffffffffffffffffffffffffffffffffffff1673ffffffffffffffffffffffffffffffffffffffff168152602001908152602001600020600101819055506001836040518082805190602001908083835b602083106121385780518252602082019150602081019050602083039250612115565b6001836020036101000a03801982511681845116808217855250505050505090500191505090815260200160405180910390206005016001846040518082805190602001908083835b602083106121a45780518252602082019150602081019050602083039250612181565b6001836020036101000a038019825116818451168082178552505050505050905001915050908152602001604051809103902060040160003373ffffffffffffffffffffffffffffffffffffffff1673ffffffffffffffffffffffffffffffffffffffff1681526020019081526020016000209080600181540180825580915050906001820390600052602060002090600502016000909192909190915060008201548160000155600182015481600101556002820154816002015560038201816003019080546001816001161561010002031660029004612287929190612cee565b506004820160009054906101000a900473ffffffffffffffffffffffffffffffffffffffff168160040160006101000a81548173ffffffffffffffffffffffffffffffffffffffff021916908373ffffffffffffffffffffffffffffffffffffffff160217905550505050600260003373ffffffffffffffffffffffffffffffffffffffff1673ffffffffffffffffffffffffffffffffffffffff1681526020019081526020016000206001846040518082805190602001908083835b602083106123675780518252602082019150602081019050602083039250612344565b6001836020036101000a038019825116818451168082178552505050505050905001915050908152602001604051809103902060040160003373ffffffffffffffffffffffffffffffffffffffff1673ffffffffffffffffffffffffffffffffffffffff168152602001908152602001600020908060018154018082558091505090600182039060005260206000209060050201600090919290919091506000820154816000015560018201548160010155600282015481600201556003820181600301908054600181600116156101000203166002900461244a929190612cee565b506004820160009054906101000a900473ffffffffffffffffffffffffffffffffffffffff168160040160006101000a81548173ffffffffffffffffffffffffffffffffffffffff021916908373ffffffffffffffffffffffffffffffffffffffff160217905550505050505050565b60008080549050905090565b600081815481106124d357fe5b906000526020600020016000915090508054600181600116156101000203166002900480601f0160208091040260200160405190810160405280929190818152602001828054600181600116156101000203166002900480156125775780601f1061254c57610100808354040283529160200191612577565b820191906000526020600020905b81548152906001019060200180831161255a57829003601f168201915b505050505081565b60606000806001856040518082805190602001908083835b602083106125ba5780518252602082019150602081019050602083039250612597565b6001836020036101000a038019825116818451168082178552505050505050905001915050908152602001604051809103902060050184815481106125fb57fe5b90600052602060002090600502016003016001866040518082805190602001908083835b60208310612642578051825260208201915060208101905060208303925061261f565b6001836020036101000a0380198251168184511680821785525050505050509050019150509081526020016040518091039020600501858154811061268357fe5b9060005260206000209060050201600101546001876040518082805190602001908083835b602083106126cb57805182526020820191506020810190506020830392506126a8565b6001836020036101000a0380198251168184511680821785525050505050509050019150509081526020016040518091039020600501868154811061270c57fe5b906000526020600020906005020160040160009054906101000a900473ffffffffffffffffffffffffffffffffffffffff16828054600181600116156101000203166002900480601f0160208091040260200160405190810160405280929190818152602001828054600181600116156101000203166002900480156127d35780601f106127a8576101008083540402835291602001916127d3565b820191906000526020600020905b8154815290600101906020018083116127b657829003601f168201915b505050505092508090509250925092509250925092565b6001816040518082805190602001908083835b6020831061282057805182526020820191506020810190506020830392506127fd565b6001836020036101000a038019825116818451168082178552505050505050905001915050908152602001604051809103902060000160009054906101000a900473ffffffffffffffffffffffffffffffffffffffff1673ffffffffffffffffffffffffffffffffffffffff163373ffffffffffffffffffffffffffffffffffffffff16146128fa576040517f08c379a0000000000000000000000000000000000000000000000000000000008152600401808060200182810382526021815260200180612e686021913960400191505060405180910390fd5b61290381612bf9565b50565b612a536001836040518082805190602001908083835b6020831061293f578051825260208201915060208101905060208303925061291c565b6001836020036101000a038019825116818451168082178552505050505050905001915050908152602001604051809103902060040160003373ffffffffffffffffffffffffffffffffffffffff1673ffffffffffffffffffffffffffffffffffffffff1681526020019081526020016000206003018054600181600116156101000203166002900480601f016020809104026020016040519081016040528092919081815260200182805460018160011615610100020316600290048015612a495780601f10612a1e57610100808354040283529160200191612a49565b820191906000526020600020905b815481529060010190602001808311612a2c57829003601f168201915b5050505050612bd3565b612aa8576040517f08c379a0000000000000000000000000000000000000000000000000000000008152600401808060200182810382526029815260200180612e146029913960400191505060405180910390fd5b806001836040518082805190602001908083835b60208310612adf5780518252602082019150602081019050602083039250612abc565b6001836020036101000a038019825116818451168082178552505050505050905001915050908152602001604051809103902060040160003373ffffffffffffffffffffffffffffffffffffffff1673ffffffffffffffffffffffffffffffffffffffff1681526020019081526020016000206003019080519060200190612b68929190612c6e565b505050565b6001818051602081018201805184825260208301602085012081835280955050505050506000915090508060000160009054906101000a900473ffffffffffffffffffffffffffffffffffffffff16908060010154908060020154908060030154905084565b60006060829050600081511415612bee576000915050612bf4565b60019150505b919050565b60006001826040518082805190602001908083835b60208310612c315780518252602082019150602081019050602083039250612c0e565b6001836020036101000a03801982511681845116808217855250505050505090500191505090815260200160405180910390206002018190555050565b828054600181600116156101000203166002900490600052602060002090601f016020900481019282601f10612caf57805160ff1916838001178555612cdd565b82800160010185558215612cdd579182015b82811115612cdc578251825591602001919060010190612cc1565b5b509050612cea9190612d75565b5090565b828054600181600116156101000203166002900490600052602060002090601f016020900481019282601f10612d275780548555612d64565b82800160010185558215612d6457600052602060002091601f016020900482015b82811115612d63578254825591600101919060010190612d48565b5b509050612d719190612d75565b5090565b612d9791905b80821115612d93576000816000905550600101612d7b565b5090565b9056fe546865726520697320616c726561647920612070726f706f73616c20666f72207468617420646174617365745468652073636f72652063616e6e6f742062652067726561746572207468616e203130304120736f6c7574696f6e20616c72656164792065786973747320666f7220746869732073656e6465724120736f6c7574696f6e20646f6573206e6f7420657869737420666f7220746869732073656e6465724d757374207374616b6520736f6d6520616d6f756e7420746f2063726561746520612070726f706f73616c4f6e6c7920746865206f776e65722063616e20656e6420612070726f706f73616c5468657265206973206e6f7420616e206578697374696e672070726f706f73616c20666f7220746861742064617461736574a265627a7a723158201a9d8b5d3df9b23d9305f608330bedcf1f8f98f354ccbc832c4a3f08000b098964736f6c63430005100032",
  "source": "pragma solidity >=0.5.16;\n\ncontract ProposalContract {\n  struct Proposal {\n    address sender;\n    uint balance;\n    uint status; // 1 = active, 0 = completed\n    uint endDateMS; // epoch date for the proposal to be ended automatically\n    mapping (address => Solution) solutions;\n    Solution[] solutionList;\n  }\n\n  struct Solution {\n    uint reward;\n    uint score;\n    uint perf;\n    string ipfsSolutionAddress;\n    address payable owner;\n  }\n\n  string[] public proposalList;\n  mapping (string => Proposal) public proposals;\n  mapping (address => Solution[]) public solutionsForAddr;\n\n  event ProposalCreated(address from, uint amount, string ipfsDataAddress);\n  event ProposalUpdated(address from, uint amount, string ipfsDataAddress);\n  event ProposalEnd(address from, uint amount, string ipfsDataAddress);\n\n  constructor() public {\n  }\n\n  function proposeCreate(string memory ipfsDataAddress, uint endDateMS) public payable {\n\n    require(proposals[ipfsDataAddress].balance == 0, \"There is already a proposal for that dataset\");\n    require(msg.value > 0, \"Must stake some amount to create a proposal\");\n\n    proposals[ipfsDataAddress].sender = msg.sender;\n    proposals[ipfsDataAddress].balance += msg.value;\n    proposals[ipfsDataAddress].status = 1;\n    proposals[ipfsDataAddress].endDateMS = endDateMS;\n\n    proposalList.push(ipfsDataAddress);\n\n    // Emits the event defined earlier\n    emit ProposalCreated(msg.sender, msg.value,  ipfsDataAddress);\n  }\n\n  function proposeUpdate(string memory ipfsDataAddress) public payable {\n    require(proposals[ipfsDataAddress].balance > 0, \"There is not an existing proposal for that dataset\");\n\n    proposals[ipfsDataAddress].balance += msg.value;\n    emit ProposalUpdated(msg.sender, msg.value, ipfsDataAddress);\n  }\n\n  function _proposeEnd(string memory ipfsDataAddress) private {\n    proposals[ipfsDataAddress].status = 0;\n//    _reward(ipfsDataAddress);\n  }\n\n  function proposeEnd(string memory ipfsDataAddress) public {\n    require(msg.sender == proposals[ipfsDataAddress].sender, \"Only the owner can end a proposal\");\n    _proposeEnd(ipfsDataAddress);\n  }\n\n  function proposeDateEnd(string memory ipfsDataAddress) public {\n    require(proposals[ipfsDataAddress].balance > 0, \"There is not an existing proposal for that dataset\");\n    require(block.timestamp * 1000 > proposals[ipfsDataAddress].endDateMS, \"Proposal is not yet over\");\n    _proposeEnd(ipfsDataAddress);\n  }\n\n  function solutionCreate(string memory ipfsDataAddress, string memory ipfsSolutionAddress, uint score) public {\n    // TODO: validation on IPFS address\n    // TODO: ensure bad actors cant submit same model from different addresses, or slightly tweaked model to get more rewards\n    require(!_testEmptyString(proposals[ipfsDataAddress].solutions[msg.sender].ipfsSolutionAddress), \"A solution already exists for this sender\");\n    require(proposals[ipfsDataAddress].balance > 0, \"There is not an existing proposal for that dataset\");\n    require(score <= 100, \"The score cannot be greater than 100\");\n\n    proposals[ipfsDataAddress].solutions[msg.sender].ipfsSolutionAddress = ipfsSolutionAddress;\n    proposals[ipfsDataAddress].solutions[msg.sender].owner = msg.sender;\n    proposals[ipfsDataAddress].solutions[msg.sender].score = score;\n    proposals[ipfsDataAddress].solutionList.push(proposals[ipfsDataAddress].solutions[msg.sender]);\n    solutionsForAddr[msg.sender].push(proposals[ipfsDataAddress].solutions[msg.sender]);\n  }\n\n  function solutionUpdate(string memory ipfsDataAddress, string memory ipfsSolutionAddress) public {\n    require(_testEmptyString(proposals[ipfsDataAddress].solutions[msg.sender].ipfsSolutionAddress), \"A solution does not exist for this sender\");\n    proposals[ipfsDataAddress].solutions[msg.sender].ipfsSolutionAddress = ipfsSolutionAddress;\n  }\n\n  function solutionEvaluate(string memory ipfsDataAddress, uint score) public {\n    require(_testEmptyString(proposals[ipfsDataAddress].solutions[msg.sender].ipfsSolutionAddress), \"A solution does not exist for this sender\");\n    proposals[ipfsDataAddress].solutions[msg.sender].score = score;\n  }\n\n  function getSolutionsForAddressLength() public view returns(uint) {\n    return solutionsForAddr[msg.sender].length;\n  }\n\n  function withdraw(string memory ipfsDataAddress) public {\n    uint reward = proposals[ipfsDataAddress].solutions[msg.sender].reward;\n    proposals[ipfsDataAddress].solutions[msg.sender].reward = 0;\n    msg.sender.transfer(reward);\n  }\n\n  function getProposalCount() public view returns(uint) {\n    return proposalList.length;\n  }\n\n  function getProposalSolutionCount(string memory ipfsDataAddress) public view returns(uint) {\n    return proposals[ipfsDataAddress].solutionList.length;\n  }\n\n  function getProposalSolution(string memory ipfsDataAddress, uint index) public view returns(string memory cid, uint score, address owner) {\n    return (\n      proposals[ipfsDataAddress].solutionList[index].ipfsSolutionAddress,\n      proposals[ipfsDataAddress].solutionList[index].score,\n      proposals[ipfsDataAddress].solutionList[index].owner\n    );\n  }\n\n  function _reward(string memory ipfsDataAddress) internal {\n    require(proposals[ipfsDataAddress].status == 1, \"The proposal is already finished\");\n\n    uint maxScore = 0;\n    uint totalPerf = 0;\n\n    for (uint i = 0; i < proposals[ipfsDataAddress].solutionList.length; i++) {\n      if (proposals[ipfsDataAddress].solutionList[i].score > maxScore) {\n        maxScore = proposals[ipfsDataAddress].solutionList[i].score;\n      }\n    }\n\n    for (uint i = 0; i < proposals[ipfsDataAddress].solutionList.length; i++) {\n      proposals[ipfsDataAddress].solutionList[i].perf = proposals[ipfsDataAddress].solutionList[i].score * 1000 / maxScore;\n      totalPerf += proposals[ipfsDataAddress].solutionList[i].perf;\n    }\n\n    for (uint i = 0; i < proposals[ipfsDataAddress].solutionList.length; i++) {\n      uint reward = (proposals[ipfsDataAddress].solutionList[i].perf / totalPerf) * proposals[ipfsDataAddress].balance;\n      proposals[ipfsDataAddress].solutionList[i].owner.transfer(reward);\n      proposals[ipfsDataAddress].solutions[proposals[ipfsDataAddress].solutionList[i].owner].reward = reward;\n    }\n  }\n\n  function _testEmptyString(string memory anyString) pure internal returns(bool) {\n    bytes memory tempEmptyStringTest = bytes(anyString); // Uses memory\n    if (tempEmptyStringTest.length == 0) {\n      return false;\n    } else {\n      return true;\n    }\n  }\n}\n",
  "sourcePath": "/Users/adamwootton/Code/hackfs/contracts/ProposalContract.sol",
  "compiler": {
    "name": "solc",
    "version": "0.5.16+commit.9c3226ce.Emscripten.clang"
  },
  "schemaVersion": "3.2.3",
  "updatedAt": "2020-08-04T02:59:23.501Z",
  "networkType": "ethereum",
  "devdoc": {
    "methods": {}
  },
  "userdoc": {
    "methods": {}
  }
}